:100000000C9428070C9450070C9450070C9450073C
:100010000C9450070C9450070C9450070C94500704
:100020000C9450070C9450070C9450070C945007F4
:100030000C9450070C9450070C9450070C945007E4
:100040000C94492B0C9450070C942E2C0C940A2CD5
:100050000C94932B0C9450070C9450070C9450075D
:100060000C9450070C945007000000002300260059
:1000700029002330303031205B303030305D205368
:100080004F4E4F52204E6F6465204F4B202D206302
:100090006F6E66696720617420687474703A2F2FE0
:1000A0003C69703E2F00534F4E4F52204172742DC9
:1000B0004E657420746F20444D58204E6F64652047
:1000C000284E616E6F292076302E332E3000534F2C
:1000D0004E4F52204E6F6465002020287374617467
:1000E0006963290A0020202844484350290A003C1B
:1000F0002F7072653E3C68323E576972696E673C8C
:100100002F68323E3C7072653E4E616E6F2020203B
:100110002020202020202020204D41583438352018
:100120006D6F64756C652020202020202020584CA5
:10013000522028444D58206F7574290A35562020C6
:10014000202D2D2D2D2D2D2D2D2D3E205643430AB6
:10015000474E4420202D2D2D2D2D2D2D2D2D3E2093
:10016000474E44202D2D2D2D2D2D2D2D2D2D2D2D7A
:100170002D2D3E202070696E20312028736869651E
:100180006C64290A44312028545829202D2D2D2D06
:100190002D2D3E2044490A44322020202D2D2D2D86
:1001A0002D2D2D2D2D3E204445202B20524520283D
:1001B00074696564290A2020202020202020202026
:1001C000202020202020412020202D2D2D2D2D2DC0
:1001D0002D2D2D2D2D2D2D2D3E202070696E20339F
:1001E0002028446174612B290A202020202020200F
:1001F000202020202020202020422020202D2D2DB6
:100200002D2D2D2D2D2D2D2D2D2D2D3E20207069A8
:100210006E20322028446174612D290A4433202D38
:100220003E2033333052202D3E204C4544202D3E7D
:1002300020474E44202020286163746976697479D0
:100240002C206F7074696F6E616C290A5368696540
:100250006C642075736573204431302D4431332034
:1002600028535049292E204C6561766520746865B5
:100270006D20616C6F6E652E3C2F7072653E3C6820
:10028000323E466C617368696E673C2F68323E3C53
:100290007072653E466C6173682066726F6D207483
:1002A00068652062726F7773657220286E6F2073A5
:1002B0006F66747761726529206F72204172647570
:1002C000696E6F204944453A0A68747470733A2F16
:1002D0002F736F6E6F726C74642E676974687562C9
:1002E0002E696F2F736F6E6F722D6172746E6574ED
:1002F0002D6E6F64652F0A4944453A20426F617242
:10030000642041726475696E6F204E616E6F2C209F
:1003100050726F636573736F722041546D656761CE
:100320003332385020284F6C6420426F6F746C6FEA
:10033000616465722920666F7220636C6F6E6573ED
:100340002E0A526573657420746F20666163746F42
:1003500072793A2072652D666C6173682C206F7219
:1003600020736574204E65743D31323720537562B9
:100370003D313520556E69763D313520616E642002
:10038000536176652E3C2F7072653E3C68323E4E5E
:100390006F7465733C2F68323E3C64697620636CF1
:1003A0006173733D6B207374796C653D27666F6E66
:1003B000742D73697A653A31337078273E416E73D4
:1003C0007765727320417274506F6C6C206173207A
:1003D00022534F4E4F52204E6F6465222E204163B0
:1003E000636570747320417274446D782062792063
:1003F00062726F616463617374206F7220756E69DD
:10040000636173742E20486F6C6473207468652078
:100410006C617374206C6F6F6B2069662074686503
:1004200020736F757263652073746F70732E204133
:1004300072742D4E6574202F20756E697665727307
:1004400065206368616E676573206170706C7920E8
:10045000696D6D6564696174656C793B20495020F4
:100460006368616E676573206170706C7920616686
:10047000746572206120706F7765722D6379636C8B
:10048000652E20536F757263653A206769746875CD
:10049000622E636F6D2F736F6E6F726C74642F7347
:1004A0006F6E6F722D6172746E65742D6E6F646500
:1004B0003C2F6469763E3C2F6469763E3C2F626F28
:1004C00064793E3C2F68746D6C3E000A444D5820A0
:1004D0006F75742020203A20353132206368206304
:1004E0006F6E74696E756F75732C20545820706927
:1004F0006E2044310A00202F20556E697665727394
:10050000652000202F205375622D4E657420004D0C
:100510004143202020202020203A2030323A353319
:100520003A34463A34453A34463A35320A417274DE
:100530002D4E65742020203A20706F72742036345E
:1005400035342C204E657420004950202020202076
:100550002020203A20003C68323E53746174757349
:100560003C2F68323E3C7072653E003E3C627574C2
:10057000746F6E3E536176653C2F627574746F6E56
:100580003E3C2F666F726D3E003E3C6C6162656C56
:100590003E476174657761793C2F6C6162656C3EA2
:1005A0003C696E707574206E616D653D6720766183
:1005B0006C75653D003E3C6C6162656C3E537562D6
:1005C0006E6574206D61736B3C2F6C6162656C3E6F
:1005D0003C696E707574206E616D653D6D2076614D
:1005E0006C75653D003E5374617469633C2F6F7098
:1005F00074696F6E3E3C2F73656C6563743E3C6C32
:100600006162656C3E5374617469632049503C2F8C
:100610006C6162656C3E3C696E707574206E616DD4
:10062000653D612076616C75653D002073656C6584
:1006300063746564003E44484350202866616C6CD6
:10064000206261636B20746F20737461746963202E
:1006500062656C6F77206966206E6F6E65293C2F2E
:100660006F7074696F6E3E3C6F7074696F6E207648
:10067000616C75653D30002073656C6563746564FD
:10068000003E3C2F6469763E3C2F6469763E3C64B4
:10069000697620636C6173733D6B207374796C654C
:1006A0003D27666F6E742D73697A653A31327078C2
:1006B0003B6D617267696E2D746F703A3670782782
:1006C0003E506F72742D4164647265737320302FD5
:1006D000302F302069732073686F776E206173202C
:1006E00022556E6976657273652031222062792009
:1006F0006D6F737420636F6E736F6C65733B205105
:100700004C432B20616E64204D412063616C6C2052
:10071000697420556E69766572736520302E3C2FA2
:100720006469763E3C68323E4E6574776F726B3C0E
:100730002F68323E3C6C6162656C3E416464726558
:100740007373696E673C2F6C6162656C3E3C7365C8
:100750006C656374206E616D653D643E3C6F7074C2
:10076000696F6E2076616C75653D31003E3C2F648B
:1007700069763E3C6469763E3C6C6162656C3E55D0
:100780006E6976657273652028302D3135293C2FCE
:100790006C6162656C3E3C696E707574206E616D53
:1007A000653D7520747970653D6E756D626572206A
:1007B0006D696E3D30206D61783D31352076616C1C
:1007C00075653D003E3C2F6469763E3C6469763E2B
:1007D0003C6C6162656C3E5375622D4E65742028D9
:1007E000302D3135293C2F6C6162656C3E3C696E61
:1007F000707574206E616D653D7320747970653D10
:100800006E756D626572206D696E3D30206D617828
:100810003D31352076616C75653D003C68323E4166
:1008200072742D4E65743C2F68323E3C666F726D5B
:1008300020616374696F6E3D2F736176653E3C6421
:10084000697620636C6173733D723E3C6469763EE9
:100850003C6C6162656C3E4E65742028302D3132EF
:1008600037293C2F6C6162656C3E3C696E70757413
:10087000206E616D653D6E20747970653D6E756D9D
:10088000626572206D696E3D30206D61783D313258
:10089000372076616C75653D003C2F6469763E00BB
:1008A000204E6574776F726B2073657474696E6720
:1008B00073206368616E6765206F6E206E65787463
:1008C00020706F7765722D6379636C6520E2809488
:1008D00020756E706C756720616E642072652D7076
:1008E0006C756720746865206E6F64652E003C64CB
:1008F000697620636C6173733D6F6B3E53617665FF
:10090000642E00485454502F312E31203230302084
:100910004F4B0D0A436F6E74656E742D547970657C
:100920003A20746578742F68746D6C0D0A436F6E8D
:100930006E656374696F6E3A20636C6F73650D0A40
:100940000D0A3C21444F43545950452068746D6C46
:100950003E3C68746D6C3E3C686561643E3C6D6510
:10096000746120636861727365743D7574662D38B7
:100970003E3C6D657461206E616D653D766965779D
:10098000706F727420636F6E74656E743D27776943
:100990006474683D6465766963652D77696474681D
:1009A0002C696E697469616C2D7363616C653D318E
:1009B000273E3C7469746C653E534F4E4F52204144
:1009C00072742D4E6574204E6F64653C2F7469748B
:1009D0006C653E3C7374796C653E626F64797B66CE
:1009E0006F6E743A313570782F312E35202D61704D
:1009F000706C652D73797374656D2C5365676F65C5
:100A00002055492C48656C7665746963612C417288
:100A100069616C2C73616E732D73657269663B62DC
:100A200061636B67726F756E643A233131313431B3
:100A3000383B636F6C6F723A236536653865623B8D
:100A40006D617267696E3A303B70616464696E67AC
:100A50003A323070787D68317B666F6E742D7369C1
:100A60007A653A323070783B6D617267696E3A3000
:100A70002030203470787D68327B666F6E742D7301
:100A8000697A653A313470783B746578742D747284
:100A9000616E73666F726D3A7570706572636173C3
:100AA000653B6C65747465722D73706163696E6704
:100AB0003A2E3038656D3B636F6C6F723A23386144
:100AC000393461303B6D617267696E3A32347078E7
:100AD0002030203870787D2E637B6D61782D7769AA
:100AE0006474683A35363070783B6D617267696E50
:100AF0003A6175746F7D2E6B7B636F6C6F723A23F6
:100B00003861393461307D6C6162656C7B64697316
:100B1000706C61793A626C6F636B3B6D617267698F
:100B20006E3A313070782030203370783B636F6CD0
:100B30006F723A233861393461303B666F6E742DC1
:100B400073697A653A313370787D696E7075742C8B
:100B500073656C6563747B77696474683A313030AF
:100B6000253B626F782D73697A696E673A626F729E
:100B70006465722D626F783B70616464696E673A78
:100B800038707820313070783B626F726465723AE9
:100B900031707820736F6C69642023326233323392
:100BA000613B626F726465722D7261646975733A3C
:100BB0003670783B6261636B67726F756E643A235F
:100BC0003161316632353B636F6C6F723A23653643
:100BD000653865623B666F6E742D73697A653A316C
:100BE0003570787D2E727B646973706C61793A67B9
:100BF0007269643B677269642D74656D706C6174B1
:100C0000652D636F6C756D6E733A31667220316657
:100C100072203166723B6761703A313070787D6264
:100C20007574746F6E7B6D617267696E2D746F7011
:100C30003A313670783B70616464696E673A31307E
:100C4000707820313870783B626F726465723A3028
:100C50003B626F726465722D7261646975733A36B6
:100C600070783B6261636B67726F756E643A2334B0
:100C700062623964333B636F6C6F723A2330623166
:100C80003031343B666F6E742D7765696768743AEE
:100C90003630303B666F6E742D73697A653A313544
:100CA00070787D7072657B6261636B67726F756E61
:100CB000643A233161316632353B626F726465722A
:100CC0003A31707820736F6C69642023326233325A
:100CD00033613B626F726465722D72616469757312
:100CE0003A3670783B70616464696E673A3132708D
:100CF000783B666F6E742D73697A653A313270781D
:100D00003B6F766572666C6F773A6175746F7D2E96
:100D10006F6B7B6261636B67726F756E643A2331D0
:100D200065336132613B626F726465723A3170782B
:100D300020736F6C696420233265376434663B70BE
:100D4000616464696E673A3130707820313470784C
:100D50003B626F726465722D7261646975733A36B5
:100D600070783B6D617267696E2D626F74746F6D20
:100D70003A313670787D3C2F7374796C653E3C2F28
:100D8000686561643E3C626F64793E3C64697620CC
:100D9000636C6173733D633E3C68313E534F4E4F0D
:100DA00052204172742D4E6574204E6F64653C2F45
:100DB00068313E3C64697620636C6173733D6B3EC1
:100DC00045746865726E65742026726172723B208C
:100DD000444D5835313220266D6964646F743B2070
:100DE0006669726D776172652076302E332E303CE5
:100DF0002F6469763E004172742D4E6574000000C8
:100E000000080002010000030407000000000000C9
:100E1000000000000000250028002B00000000005A
:100E2000240027002A000404040404040404020229
:100E30000202020203030303030301020408102059
:100E40004080010204081020010204081020F82C40
:100E500011241FBECFEFD8E0DEBFCDBF11E0A0E070
:100E6000B1E0EAE6FFE602C005900D92A639B107AF
:100E7000D9F726E0A6E9B1E001C01D92A637B20776
:100E8000E1F717E0C8E2D7E004C02197FE010E9415
:100E90003836C732D107C9F70E944E2D0C94B337AC
:100EA0000C9400008CBD9DBD089590E0FC01E65CB3
:100EB000F14F24918A5D914FFC018491882399F030
:100EC00090E0880F991FFC01E45EF14FA591B49169
:100ED000FC01EE5EF14F859194918FB7F894EC91FF
:100EE000E22BEC938FBF089520E3FC012083329620
:100EF000862F82958F706F706A3030F4605D6293D8
:100F0000682F8111F5CF0895695CF9CF833081F0A6
:100F100028F4813099F08230A9F008958730A9F043
:100F20008830C9F08430B1F4809180008F7D03C097
:100F3000809180008F7780938000089584B58F77AB
:100F400084BD089584B58F7DFBCF8091B0008F77ED
:100F50008093B00008958091B0008F7DF9CF1F93EA
:100F6000CF93DF93282F30E0F901E250F24F8491C4
:100F7000F901E65CF14FD491F901EA5DF14FC491BA
:100F8000CC23A9F0162F81110E948607EC2FF0E0E8
:100F9000EE0FFF1FEE5EF14FA591B4918FB7F8945D
:100FA000EC91111108C0D095DE23DC938FBFDF9147
:100FB000CF911F910895DE2BF8CF3FB7F894809121
:100FC000E4049091E504A091E604B091E70426B50D
:100FD000A89B05C02F3F19F00196A11DB11D3FBF71
:100FE000BA2FA92F982F8827BC01CD01620F711D40
:100FF000811D911D42E0660F771F881F991F4A953A
:10100000D1F708958F929F92AF92BF92CF92DF92C5
:10101000EF92FF924B015C010E94DD076B017C01A6
:101020000E94DD076C197D098E099F09683E734097
:1010300081059105A8F321E0821A9108A108B10861
:1010400088EEC80E83E0D81EE11CF11C81149104C7
:10105000A104B10429F7FF90EF90DF90CF90BF90EB
:10106000AF909F908F9008952FB7F8946091E0040F
:101070007091E1048091E2049091E3042FBF089500
:10108000FC01DB01D1969C91D197D2968C91D2979D
:101090009F963C919F97D0962C9140E851E05183C8
:1010A00040833283238394838583CF010895FC0199
:1010B00083A994A998278927982708958823E9F078
:1010C000A1E8B5E025E014969C91149789130DC012
:1010D00095E0899FF0011124EF57FA4F848114960F
:1010E0008C931382128214820895992331F0929F77
:1010F000D0011124AF57BA4FE6CF0895CF93C091D6
:1011000003018C2F0E94550761E08C2F0E94AF07CE
:10111000CFB7F8948091A801811124C0E0E3FEE0EC
:101120008491E4E4FEE09491E82FF0E0EE0FFF1FDD
:10113000E45EF14FA591B491EC91E92321F461E0D3
:101140008AE00E94AF078AE00E9455078CB5806153
:101150008CBD8CB580648CBD8DE00E9455078BE002
:101160000E9455078091A8018F5F8093A801CFBF8F
:1011700081E080938005CF910895882381F08F3F8F
:1011800029F48091A5019091A601089595E0899F89
:10119000F0011124EF57FA4F82819381089590E076
:1011A00080E0089508958EBD00000DB407FEFDCFC8
:1011B0008EB508950F931F93CF93DF93082FC62FFB
:1011C000142FD091030160E08D2F0E94AF078C2F68
:1011D0008F71802B0E94D308812F0E94D30861E079
:1011E0008D2FDF91CF911F910F910C94AF07CF936B
:1011F000DF93D82FD076909100019D17A1F0C82FD2
:1012000043E06FE180EA0E94DA084C2F50E085E06D
:10121000559547958A95E1F743706FE180E80E9404
:10122000DA08D0930001DF91CF9108951F93CF93F7
:10123000DF93C82F162FD72F0E94F708412F6C2F4E
:1012400080E40E94DA0861E06C0F4D2F80E4DF91AA
:10125000CF911F910C94DA08EF92FF920F931F9396
:10126000CF93DF938B017A018F3F59F095E0899FEF
:10127000E0011124CF57DA4F68817981600F711F27
:101280000FC06091A3017091A401600F711FC3EAA8
:10129000D1E0611588E0780778F37850C3EAD1E0AF
:1012A00080E00E9416098A819B81801B910BE816C1
:1012B000F90608F4C701DF91CF911F910F91FF90BC
:1012C000EF900895CF92DF92FF920F931F93CF93E9
:1012D000DF93182FEB016A0180E591E00E9452072D
:1012E000A60170E060E0812F0E942C098C01F09033
:1012F000030160E08F2D0E94AF078AE30E94D308AC
:101300006E01C00ED11ECC15DD0529F080E00E94D3
:10131000D3088993F8CF61E08F2D0E94AF07C801F1
:10132000DF91CF911F910F91FF90DF90CF900895A3
:101330006091E0057091E1056115710529F061503A
:1013400071098CE00C9416096FEF77E0FACFCF9318
:10135000DF93C82FD62F0E94F7084D2F6C2F80E403
:10136000DF91CF910C94DA081F93CF93DF93182F5E
:10137000D62FC091030160E08C2F0E94AF078D2F04
:101380008F71812B0E94D308D7FF03C080E00E9499
:10139000D30880E00E94D308D82F61E08C2F0E94F0
:1013A000AF078D2FDF91CF911F910895CF93C82F55
:1013B0000E94F7086C2F80E0CF910C94B409CF9372
:1013C000DF93EB01682F84ED0E94A709BE0186ED33
:1013D0000E941609C7E3D0E08AEE0E94D60980FF7A
:1013E00004C0CE010197F1F7F7CFDF91CF910895B7
:1013F000CF93DF93D62FBC0182E00E941609C091E3
:10140000030160E08C2F0E94AF078AE70E94D30897
:101410008D2F0E94D30861E08C2FDF91CF910C9427
:10142000AF07CF93DF93BC0180E00E941609C09103
:10143000030160E08C2F0E94AF078AE30E94D3086B
:1014400080E00E94D308D82F61E08C2F0E94AF0764
:101450008D2FDF91CF910895CF92DF92EF92FF927F
:101460000F931F93CF93DF936C018B01EA0180E50B
:1014700091E00E945207C130D10579F4C8010E9461
:10148000110A682FC601DF91CF911F910F91FF9034
:10149000EF90DF90CF900C94F809C00FD11F7E0120
:1014A00081E0E81AF108B80180E10E941609B6014E
:1014B00084E10E9416090115184048F4E11488E0FF
:1014C000F80628F07E0181E0E81A88E0F80AB70102
:1014D00082E10E94160940E16FE180EA0E94DA0889
:1014E00040E26FE180E80E94DA086FE180E00E944C
:1014F000B40985FDFACFDF91CF911F910F91FF9035
:10150000EF90DF90CF900895CF92DF92EF92FF920D
:101510000F931F93CF93DF938C016091810570919E
:1015200082056150784EC12C98E1D92EE1E8F5E0B2
:1015300020E0D0E0C0E045E03481CB01332341F02E
:10154000439FC00111248F579A4FDC018D919C91CC
:10155000E080F1808E199F090280F381E02D8E1BBF
:101560009F0B8017910799F4B5E02B9FE0011124A0
:10157000CF57DA4FE6E8F5E081E022813381232B73
:1015800009F453C035968F5F8331B9F744C008170B
:10159000190748F48C159D0530F4249FE0011124AF
:1015A000CF57DA4F6C01311121C0209719F7C1E8EC
:1015B000D5E085E0D82E8C8128813981EA80FB80B6
:1015C0008823D9F0E20EF31E8D9DE0011124CF5740
:1015D000DA4F688179816E157F0569F34A815B81F5
:1015E000C7010E942C0AF982E882E5CF349FF001FE
:1015F0001124EF57FA4F232F9FCF809181059091AF
:101600008205821B930B8E199F098150984E80177B
:10161000910708F0AFCF80E0DF91CF911F910F913C
:10162000FF90EF90DF90CF900895288139814A8113
:101630005B81240F351F31832083138302839C81B8
:1016400094838C83E9CF0F931F93DB01E42FA801D0
:1016500090E0EF3FE1F065E0E69FF0011124EF57E5
:10166000FA4F60817181620F731F01C0785025E0CD
:10167000289FF001299FF00D1124EF57FA4F808128
:1016800091818A0F9B1F1F910F910C942C0A6091DE
:10169000A3017091A401620F731F6115E8E07E073A
:1016A00028F7E3EAF1E0DDCFCF92DF92EF92FF92ED
:1016B0000F931F93CF93DF937B018A01482F50E054
:1016C00095E0899FF0011124EF57FA4FC281D38131
:1016D000C61BD70B2C173D0708F4E901209761F1D1
:1016E00085E0849FF001859FF00D1124EF57FA4F9C
:1016F000C080D18080E591E00E945207B6016E0D56
:101700007F1D82E00E941609F090030160E08F2D9A
:101710000E94AF078AE70E94D3086801CC0EDD1E45
:10172000F80181918F010E94D308C016D106C1F73C
:1017300061E08F2D0E94AF07CE01DF91CF911F9105
:101740000F91FF90EF90DF90CF900895CF93DF93AC
:101750001F92CDB7DEB7DC01ED91FC91048CF58DC5
:10176000E02D41E050E0BE016F5F7F4F09951816F4
:10177000190634F4898190E00F90DF91CF9108959C
:101780008FEF9FEFF9CFCF93DF93EC018DA58823E7
:1017900079F09A01AB016E857F850E94540B2E85EE
:1017A0003F85280F391F3F872E87DF91CF910895FE
:1017B00090E080E0FACFCF93DF931F92CDB7DEB7F2
:1017C0006983DC01ED91FC910280F381E02D41E021
:1017D00050E0BE016F5F7F4F09950F90DF91CF9171
:1017E0000895EF92FF920F931F93CF93DF93DC0145
:1017F0001C96ED91FC91309729F1EC011582148231
:10180000128611861D861C868CA50E945E088E019C
:10181000005F1F4F7E01BCE2EB0EF11CF8018081DE
:101820000E945E08D8011C92095F1F4F0E151F050C
:10183000A9F78DA50E945E082E9687E2FE011192FF
:101840008A95E9F7DF91CF911F910F91FF90EF906B
:101850000895CF93DF93FC011382128288EE93E008
:10186000A0E0B0E084839583A683B7838AE291E009
:101870009183808315861486DF011E9687E2ED0131
:1018800019928A95E9F71296CF018C961C921696BA
:101890001C921E92159717968A179B07B9F714A6E4
:1018A00015A614AA13AADF91CF910895DC01ED913A
:1018B000FC91048CF58DE02D0994089580E0089545
:1018C00090E080E008950F931F93CF93DF93EC0196
:1018D0008C010D5F1F4F89910E945E08FE013197B8
:1018E0001082C017D107B9F7DF91CF911F910F91E7
:1018F0000895CF93DF93EC0188810E945E0889816F
:1019000088838A8189831A82DF91CF9108950F930A
:101910001F93CF93DF931F92CDB7DEB78C01DC010D
:10192000ED91FC91008CF18DE02D09958823B1F0AB
:10193000D8011C96ED91FC918281882379F041E0D9
:1019400050E0BE016F5F7F4F0E946209898190E085
:101950000F90DF91CF911F910F9108958FEF9FEF1F
:10196000F7CFCF93DF931F92CDB7DEB7DC01ED91B8
:10197000FC910288F389E02D41E050E0BE016F5FE9
:101980007F4F09951816190634F4898190E00F905D
:10199000DF91CF9108958FEF9FEFF9CF6F927F92F4
:1019A0008F929F92AF92BF92CF92DF92EF92FF926F
:1019B0000F931F93CF93DF93EC014B018A01E881D2
:1019C000F981008CF18DE02D0995882309F478C008
:1019D000EC85FD858281811118C0E881F98106803E
:1019E000F781E02DCE01099590E080E0DF91CF9165
:1019F0001F910F91FF90EF90DF90CF90BF90AF902D
:101A00009F908F907F906F90089578018EE1682E5F
:101A1000B8016E197F09680D791DEC85FD85A70158
:101A200082810E9462096C01AC84BD84F5017280E0
:101A3000872D0E94BD08C816D90649F5EC18FD0887
:101A4000C50102960E94790CAC85BD85EC916E9E15
:101A5000F0011124E75AFA4F818D84FF09C01196D5
:101A60008C911197982F967019F4886011968C9329
:101A7000EC85FD85828181111EC0818182FF03C0BA
:101A800011821D861C86C8018E199F09AFCF85E083
:101A9000789EF0011124EF57FA4F808191818C0DCF
:101AA0009D1D91838083828193818C199D099383ED
:101AB0008283C8019BCFE114F10409F0A9CFF9CFCB
:101AC0008FEF9FEF93CFCF92DF92EF92FF920F9322
:101AD0001F93CF93DF938C01DC01ED91FC91008C7F
:101AE000F18DE02D0995D0E0C0E0882301F1F801E7
:101AF000E484F5846701F2E0CF0ED11C85E0E80EA6
:101B0000F11CD0E0C0E0D6018D916D010E94BD08AE
:101B1000C80FD91FCE14DF04B1F7209741F4D801C4
:101B2000ED91FC910680F781E02DC8010995CE0169
:101B3000DF91CF911F910F91FF90EF90DF90CF90A9
:101B40000895CF93DF931F92CDB7DEB76983DC0191
:101B5000ED91FC910280F381E02D41E050E0BE0167
:101B60006F5F7F4F09950F90DF91CF910895FC0132
:101B7000448555854115510551F0FB012485358576
:101B80002115310521F081E04217530709F080E06B
:101B90000895DC011C96ED91FC91309731F0828123
:101BA000811105C081818170089580E0089581E0F0
:101BB0000895DC01ED91FC91028CF38DE02D0995E7
:101BC00091E089270895FB0141505109460F571FA5
:101BD000E417F50778F4208130E0322F2227618165
:101BE000260F311D820F931F8217930708F4019669
:101BF0003296EECFE417F50751F4208130E0322F12
:101C00002227820F931F8217930708F401960895E5
:101C1000BF92CF92DF92EF92FF920F931F93CF93D9
:101C2000DF93C82FE090E101F12CFE2CEE2480918F
:101C3000E2018451990BE80EF91E48E050E06BEE8A
:101C400071E0C7018C0F911D0E94E30D08E0C131C6
:101C500029F00091FF01069506950C7310E0A8018C
:101C600063EF71E00E94E30DEC010E151F0508F013
:101C700053C0E01AF10A8091A10152E2C52ED12C85
:101C800081FF03C043E2C42ED12CB090A20180E5B5
:101C900091E00E945207B8016C0D7D1DA7018B2DAC
:101CA0000E942C0901977C01B090030160E08B2D0C
:101CB0000E94AF078AE30E94D308D12CC12CCE1416
:101CC000DF04B8F480E00E94D308082F10E0102F42
:101CD000002780E00E94D308800F912F911DC80F2C
:101CE000D91FC817D90708F4219682E0C80ED11C65
:101CF000E6CFEC14FD0461F480E00E94D30890E08C
:101D0000982F8827C80FD91FC817D90708F421961C
:101D100061E08B2D0E94AF079C2F8D2FCD2B11F4EE
:101D20008FEF9FEFDF91CF911F910F91FF90EF9079
:101D3000DF90CF90BF90089544E150E06FED71E0E7
:101D400090E080E00E94E30D009721F0982789271A
:101D5000982708958FEF9FEF08950F931F93809119
:101D60009E0181111BC00E94340800919A011091BC
:101D70009B0120919C0130919D01601771078207A2
:101D8000930761F00E94340860939A0170939B015D
:101D900080939C0190939D0110929E011F910F9141
:101DA0000895CF93DF93EC01AC81BD81E7E6F4E0C9
:101DB0008A819B8191838083B383A283FA0184818A
:101DC0009581E9ECF1E0DA0112964D915C91518335
:101DD000408393838283E9018C819D81EDECF1E066
:101DE0002A813B813183208393838283FB0182811B
:101DF0009381A481B58180931C0690931D06A093C6
:101E00001E06B0931F06DF91CF910895EF92FF92C7
:101E10000F931F93CF93DF93C091A101C1FF6BC0BC
:101E200020919F0130E041ED51E061E070E0809150
:101E3000A2010E94540BCD7FC093A101F090A2019A
:101E400085E0F89EF0011124EF57FA4F00811181CF
:101E5000C281D381C00FD11F80E591E00E9452075B
:101E600060E0C8010E94F809B80184E00E941609E8
:101E7000BE016850710986E00E94160913E024979C
:101E800040E86FE180E80E94DA0840E86FE180EA0C
:101E90000E94DA084AE06CE180EA0E94DA0848E031
:101EA0006FE180E80E94DA088CE10E94D609082FD1
:101EB0008A70D1F348E06FE180EA0E94DA08802F4F
:101EC0008270E82E01FF07C0CE010E94110A85FF33
:101ED00002C01150A9F6C1E0E110C0E08F2D0E94B0
:101EE0005E081092A2018C2FDF91CF911F910F916C
:101EF000FF90EF900895C091C101D091C201CE0131
:101F000008960E94840A8093A201882341F09E01D2
:101F100041ED51E061E070E00E94540B8FCFC0E0D2
:101F2000E2CFCF93DF9320E0AAE0EC013881305379
:101F30003A30C8F4FC0150E040E0CF013191B0EDFF
:101F4000B30FBA30A0F4A49FC001A59F900D112437
:101F5000AC0140535109430F511D37FD5A954F3F76
:101F6000510559F350F380E0DF91CF910895EB01D3
:101F70004993BE01233029F0EC0188818E3299F714
:101F8000CF012F5F243089F681E0EECFCF93DF932E
:101F9000C82FCC2371F0DC2FC13108F0D0E14D2FD8
:101FA00050E066E171E085E396E00E94C30BCD1B33
:101FB000F0CFDF91CF910895EF92FF920F931F938F
:101FC000CF93DF93162F082FEC01862F8150990BAA
:101FD0007C018C2F801BFE016491662349F02196C1
:101FE0008E151F042CF485E396E00E94DB0BF1CFE5
:101FF000181B812FDF91CF911F910F91FF90EF90D0
:102000000C94C60F8F929F92AF92BF92EF92FF9265
:102010000F931F93CF93DF93CDB7DEB7A1970FB682
:10202000F894DEBF0FBECDBF7C01262F30E050E01C
:1020300040E019A28E010F5D1F4F8AE0882E912C7F
:10204000A12CB12CCA01B901A50194010E94073647
:10205000605DD8016E938D01211531054105510553
:1020600089F790E080E0109789F0C701FD010190A9
:102070000020E9F73197AF014A1B5B0BD701ED91C7
:10208000FC910280F381E02DB8010995A1960FB66D
:10209000F894DEBF0FBECDBFDF91CF911F910F919E
:1020A000FF90EF90BF90AF909F908F9008958F9288
:1020B0009F92AF92BF92CF92DF92EF92FF920F93D7
:1020C0001F93CF93DF937C01EB016C0182E0C80E7C
:1020D000D11C4701E5E08E0E911C10E000E0F601F6
:1020E00061916F01CE010E9402105C01E881F981CB
:1020F0000190F081E02D6EE2CE0109958A0D9B1DC5
:10210000080F191FC814D90451F7F7016581CE01D2
:102110000E940210800F911FDF91CF911F910F91AC
:10212000FF90EF90DF90CF90BF90AF909F908F90F7
:102130000895EF92FF920F931F93CF937C018B0131
:10214000C0E0F80161918F01C7010E940210C33005
:1021500021F06EE2C7010E94A10DCF5FC43089F764
:10216000CF911F910F91FF90EF900895FF920F93E1
:102170001F93CF93DF930DEE15E0D0E0C0E0F801A0
:10218000F1908F01CE010E94BF35F81621F06F2D1E
:10219000CE010E94C7352196C131D10581F78DEE60
:1021A00095E0DF91CF911F910F91FF9008950F93CC
:1021B0001F93CF93DF930DEE15E0D0E0C0E0CE018A
:1021C0000E94BF35F80181938F012196C131D1055D
:1021D000B1F78091ED05883AB9F140910E01509127
:1021E0000F01609110017091110180911201909185
:1021F0001301A0911401B091150128EA2093ED0577
:102200001092EE051092EF051092F00521E0209358
:10221000F1054093F2055093F3056093F405709334
:10222000F5052FEF2093F6051092F7051092F805AB
:102230001092F9058093FA059093FB05A093FC0595
:10224000B093FD050E94B6108091EE058F778093C4
:10225000EE058091EF058F708093EF058091F0057A
:102260008F708093F00581E09091F105911101C08C
:1022700080E08093F105DF91CF911F910F91089538
:102280000E9434086C597F4F8F4F9F4F6093E90530
:102290007093EA058093EB059093EC05E3E8F5E095
:1022A0008DE5DF011D928A95E9F781E098E0909332
:1022B00082058093810580918005811102C00E9472
:1022C0007E0880E591E00E9452074FEF60E08FEFBB
:1022D0000E94DA0862E370E080E090E00E94020869
:1022E0001092E1051092E00570E060E088E00E9445
:1022F000160970E060E08CE00E9416096FEF77E04D
:102300008AE00E94160960EB88E30E94A7096FE348
:1023100070E388E20E94160969EF77EF80E30E947C
:1023200016096DE070E080EC0E94160942E362EC51
:1023300080E80E94DA0862E17CE086EC0E941609DF
:1023400062E184EC0E94A7096CED75E08AEC0E94C2
:10235000160962E084EE0E94A70963E585EE0E94FB
:10236000A7096FE482EE0E94A7096EE483EE0E9443
:10237000A7096FE480EE0E94A70962E581EE0E9442
:10238000A70960E071E080E10E94DF098FE10E940F
:10239000F70840EC6BE180E80E94DA0844E06FE166
:1023A00080E80E94DA0866E774E084E10E94DF09B1
:1023B00080918005811102C00E947E0880E591E035
:1023C0000E94520782E70E94D6098F3F09F480E0FD
:1023D00091E0811101C090E09093E80582E0809344
:1023E000E20593E59093E3059FE49093E4052EE4E2
:1023F0002093E5059093E60592E59093E70510920A
:1024000078051092770510927A051092790510924E
:102410007C0510927B0510927E0510927D0510922E
:10242000720520E034E03093580520935705109250
:102430004605109245051092510510925005809363
:102440007F05109240059BE024E080914005883094
:1024500008F00895899FF0011124E851FB4FDF0136
:10246000322F1D923A95E9F78F5F80934005EDCFAB
:10247000AF92BF92CF92DF92EF92FF920F931F9392
:10248000CF93DF93CDB7DEB768970FB6F894DEBF72
:102490000FBECDBF8C017B016A0159010E94401122
:1024A00080E891E09A838983F501428153816481B8
:1024B00075814B835C836D837E8398878F83F60160
:1024C000428153816481758149875A876B877C87F4
:1024D0009E878D87F70142815381648175814F8783
:1024E000588B698B7A8B9C8B8B8BF80182819381C3
:1024F000A481B5818D8B9E8BAF8BB88F9E012F5F92
:102500003F4FAE01495F5F4FBE01635F7F4FCE011A
:1025100043960E94D10E68960FB6F894DEBF0FBEA8
:10252000CDBFDF91CF911F910F91FF90EF90DF9082
:10253000CF90BF90AF900895DC0120915705309166
:102540005805E0914505F091460580915005909120
:1025500051052F5F3F4F21154DE7340710F020E064
:1025600030E1522F432F4E175F0799F34817590751
:1025700081F33093580520935705EF2B49F0892BB1
:1025800059F182E080937F05F0E0E0E0CF0108950B
:1025900080E030E020E080937F058BE0829FF001B7
:1025A000839FF00D1124EF5BFA4F558344837783AB
:1025B00066831097A9F484E0DF011D928A95E9F7FC
:1025C0008BE0829FD001839FB00D1124AF5BBA4F87
:1025D00080E418968C93DACF81E021E030E0DBCF05
:1025E0008D919C9111979183808312968D919C91EE
:1025F00093838283E5CF0F931F93CF93DF93EC01F7
:102600008B018C859D85892B41F470E060E090E022
:1026100080E00E949C129D878C87EC85FD8580E080
:10262000309749F0102701271027158304832E9631
:10263000D287C18781E0DF91CF911F910F910895DB
:10264000FC01709624E0DF01322F1D923A95E9F7E4
:102650003496DF01322F1D923A95E9F73496DF0167
:10266000322F1D923A95E9F73496DF01322F1D92F1
:102670003A95E9F78096DC011D922A95E9F70895CD
:10268000DC0180E891E08D939D9384E0FB01019053
:102690000D928A95E1F708950F931F93CF93DF93DF
:1026A0002091EF013091F0012F3F320721F5809109
:1026B000F1019091F2010196F1F486E0EEE4F1E08F
:1026C000A1EDB1E001900D928A95E1F786E0E2EE8E
:1026D000F5E0A7EDB1E001900D928A95E1F788E071
:1026E00090E09093DE018093DD018091C101909193
:1026F000C2010E969EC08091670490916804822763
:1027000093274091CD015091CE0184239523892BAD
:1027100099F44091F1015091F201809169049091F6
:102720006A04842795276091CF017091D001862398
:102730009723892B09F486C08091C9019091CA0121
:102740009093C6018093C5018091CB019091CC01FB
:102750009093C8018093C7010091C5011091C601F3
:10276000C091C701D091C801E8EEF4E080E0883064
:1027700009F071C08093400546E050E06FEF70E0D3
:1027800081ED91E00E94803786E0E1EFF1E0DF012A
:10279000482F1D924A95E9F7E2EEF5E0A7EDB1E08A
:1027A000982F01900D929A95E1F7E2EEF5E0A7EEF1
:1027B000B1E0982F01900D929A95E1F71093F801EE
:1027C0000093F701D093FA01C093F90120916704B7
:1027D000309168043093EE012093ED01209169045B
:1027E00030916A043093F0012093EF0120E031E052
:1027F0003093E6012093E5013093E0012093DF015F
:1028000028E030E03093E2012093E1018093E3017E
:1028100084E08093E40188E096E09093DE01809369
:10282000DD0187E092E09093C4018093C3018AE2C6
:1028300090E09093C2018093C101DF91CF911F91ED
:102840000F9108953093C6012093C5015093C8019C
:102850004093C70181CF208131810217130729F4EA
:1028600022813381C217D30719F08F5F3B967FCF48
:1028700080934005349686E023CF0F931F93CF9328
:10288000DF93EC010E944C138091C1019091C20131
:102890008A9769F41092A2018091A1018D7F8093A3
:1028A000A101DF91CF911F910F910C94060F098523
:1028B0001A850E94060FF80110A2178E1F821E8231
:1028C000198218821B821A82DF91CF911F910F917A
:1028D0000895AF92BF92CF92DF92EF92FF920F9343
:1028E0001F93CF93DF937C018B0110924005DBE0B7
:1028F000C0914005C83058F1A8EEB4E0FD0180E079
:10290000883009F058C02091C001422F50E080E08B
:10291000C0E090E01A963C911A97BA01631B7109C6
:10292000961717061CF4922F931BC82F8F5F1B96C8
:10293000883081F79093BF01C093BE01C0934005DA
:10294000FBE0CF9FE0011124C851DB4F3FC0CD9F7A
:1029500050011124C50188519B4F6C01FC018081FD
:102960009181892B21F182819381892B01F144E0AE
:1029700050E0B601C7010E946A37892BC1F4D50126
:10298000A451BB4F86E0F80101900D928A95E1F7C2
:102990008091C001F6018287DF91CF911F910F9145
:1029A000FF90EF90DF90CF90BF90AF900895CF5FF2
:1029B000C09340059DCFEF0120813181232BC9F4C5
:1029C00022813381232BA9F48093400584E0F70111
:1029D000DE0101900D928A95E1F7DE01149686E002
:1029E000F80101900D928A95E1F78091C0018A87E4
:1029F000D3CF8F5F3B9684CF9C01AB017093BD0119
:102A00006093BC011616170654F48091BA01909198
:102A1000BB018217930719F0B9010C947737089519
:102A2000EF92FF920F931F93CF93DF93E091B10149
:102A3000F091B201C185D285209709F472C0E0906F
:102A4000B701E1FE4EC0FE01329680E090819923ED
:102A500029F08F5F37968430C9F783E047E0282F4D
:102A600030E08E01489F000D111D1124F801828174
:102A7000811137C06091F3017091F4012F5F3F4FD6
:102A8000429FF001439FF00D1124EC0FFD1F718355
:102A900060838091EB019091EC01F8019483838332
:102AA0008091ED019091EE01968385838091F701ED
:102AB0009091F80198278927982708970E94840AFF
:102AC000F82EF8018283882361F00E94BD088C01F2
:102AD0002AE230E04091A00170E060E08F2D0E947A
:102AE000230BE3FE1EC088A18823D9F08F8D80932D
:102AF000A2018091A10182608093A1018AE280936A
:102B00009F01688179816B5271098091C301909115
:102B1000C401DF91CF911F910F91FF90EF900C9422
:102B2000FC14DF91CF911F910F91FF90EF900895CA
:102B30008F929F92AF92BF92CF92DF92EF92FF92CD
:102B40000F931F93CF93DF93CDB7DEB72A970FB6BE
:102B5000F894DEBF0FBECDBFC090B801D090B901D0
:102B6000D6015C96ED90FC90B090B701E114F104B1
:102B7000C1F5B6FC03C0D12CC12CEAC080910B0674
:102B80008111F9CF8AE0FE013196DF01982F1D9265
:102B90009A95E9F71B821C821D821E821F8218866D
:102BA000AAE0B6E001900D928A95E1F7C601895539
:102BB0009540959587954FEE5EEE849F9001859F99
:102BC000300D949F300D112420930A0681E08093EC
:102BD0000B068AE096E0D6015D969C938E935C97F7
:102BE0007C01B1FE33C00091C1011091C2010115F9
:102BF000110561F1F70181818823C9F181FD26C0AA
:102C00004701F2E08F0E911CA12CD4018D914D0152
:102C100081114CC0C8010E94840AF401319780835D
:102C2000882309F443C02091C3013091C401215D80
:102C300031404091A00170E060E00E94230BB2E0BF
:102C4000AB1204C0F601818D8061818FF701818113
:102C500083FF0DC0877F81838B2D82608093B701B6
:102C6000D60159968C9159978F7E59968C93809165
:102C7000B70184FD04C087FD02C085FF2AC0C701DB
:102C800005960E94630CF7018281882301F1D60129
:102C900014968D919C919683858381818460818334
:102CA000D6015D961C921E925C9765CFA394F3E0CB
:102CB000AF12ABCF8091A1018E7F8093A101D6018D
:102CC00059968C915997806159968C93BFCF1182F8
:102CD000E7CF80FF5BC0C70105960E94790CF70122
:102CE0008581882309F455C09681911163C0C08401
:102CF000D184C114D10409F43ECF95E0899FF0013D
:102D00001124EF57FA4FD382C2820091C301109170
:102D1000C401015D114000939F011127C80108966D
:102D20008C0D9D1D0E94840A8093A201882381F04E
:102D3000B8016F5F7F4F860130E020E0D701159624
:102D40004C910E94230B8091A10182608093A1018C
:102D5000B6018091C3019091C4010E94FC14D092ED
:102D6000C201C092C1012A960FB6F894DEBF0FBE11
:102D7000CDBFDF91CF911F910F91FF90EF90DF902A
:102D8000CF90BF90AF909F908F9008958C7009F076
:102D9000A6CFF701818181FFEECE8581811111C01F
:102DA0001182D6015D961C921E925C9780E1809301
:102DB000B701E1CE0E94BD086C01892B09F4DBCE7E
:102DC000A4CFF601818D8061818FD5CECF92DF9225
:102DD000EF92FF920F931F93CF93DF93843009F408
:102DE00058C1C091B801D091B90127E032E03093C9
:102DF000C4012093C3013093BB012093BA018330F7
:102E0000C9F4898D8F70833009F044C0888999890D
:102E1000892B09F03FC088E08093B7010E94981584
:102E20008091B70185FF2BC61092BD011092BC01A5
:102E3000198E51C0823009F005C18091B6018F5FB3
:102E40008093B601811113C08091B5018F5F80938B
:102E5000B50181110CC08091B4018F5F8093B401E2
:102E6000811105C08091B3018F5F8093B3011092EF
:102E7000C2011092C1011092BD011092BC01898D56
:102E8000982F9D7F953059F48A8D8F5F8A8F883770
:102E900009F4198E1092C2011092C10112C2882346
:102EA000C9F328893989232B09F4C7C09A8D2FEFDC
:102EB000290F2A8F9111EECF9B8D983031F02FEF93
:102EC000280F223050F4953041F4198E80E8809319
:102ED000B7010E94981584E184C0392F953008F01D
:102EE00034E023E001C0220F3A95EAF72A8F9F5F72
:102EF0009B8F8F70833009F47DC008F06AC08130E9
:102F000009F4E7C3823031F610920002809100028A
:102F100082608093000282E08093070294E09093A5
:102F200008028093090210920A028CE290E09093CA
:102F3000C2018093C10180E68093FF018885809360
:102F4000FB0189858093FC018A858093FD018B8537
:102F50008093FE018C858093F7018D858093F80125
:102F60008E858093F9018F858093FA0186E08093A6
:102F7000E8018C819D819093F4018093F3018E810F
:102F80009F819093F6018093F50180916704909161
:102F900068049093EC018093EB0180916904909117
:102FA0006A049093EE018093ED018881998190935A
:102FB000F0018093EF018A819B819093F2018093CD
:102FC000F101898D84FFF4C5109202021092010272
:102FD000B8C2863029F0883019F0843009F05ACF11
:102FE00081E18093000288E290E09093C201809397
:102FF000C10121C084E08093B7010E94981580919F
:10300000BA019091BB019093C4018093C301809158
:10301000BC019091BD01892B09F464C58889998907
:10302000009709F45FC588969093C2018093C1010F
:1030300088E18093000280E57FCF8F70833009F0B4
:1030400029CFE9CE853009F0A9C0E091B101F09116
:10305000B20184819581892B09F41CCF1092B901AA
:103060001092B8018BEF91E09093C4018093C3015B
:103070009093BB018093BA011092BD011092BC01E4
:103080001092C2011092C10188E08093B7010E94A2
:1030900010158091BC019091BD01009709F4FACE02
:1030A0009C01245E3F4F3093C2012093C1013093B5
:1030B000E1012093E201E091B101F091B20120859C
:1030C0002093E70121E12093E801089698278927BA
:1030D00098279093F8018093F7011092FA011092CB
:1030E000F901848195819093F4018093F3018681A5
:1030F00097819093F6018093F501809167049091F8
:1031000068049093EC018093EB01809169049091A5
:103110006A049093EE018093ED01808191819093F8
:10312000F0018093EF01828193819093F20180936B
:10313000F10187E092E09093C4018093C30181E1A3
:103140000E94080E80959095009709F439C19093DC
:10315000FA018093F90185E48093DF011092E00188
:103160001092E6011092E5018091A9019091AA01C7
:1031700001969093AA018093A9019093E301809313
:10318000E4011092EA011092E9010E949C0E8095E0
:1031900090959093EA018093E90193C08091DF01BB
:1031A000853409F077CEE090E101F12CFE2CEE247D
:1031B0008091E201E80EF11C8091C1019091C20161
:1031C0008E159F0508F466CEF092C201E092C1010F
:1031D0008091E5018F7309F05DCEC091E601C111C8
:1031E00059CEC0906704D0906804C114D10431F462
:1031F0008091690490916A04892B19F18091EF0103
:103200009091F0012091E801213159F48F3F980706
:1032100041F42091F1013091F2012F3F3F4F09F429
:103220005DC0C816D90609F035CE2091F101309164
:10323000F2018091690490916A042817390709F016
:1032400029CE0E949C0E019609F024CE8091E801BF
:10325000863009F4B8C0813109F440C0813009F0EA
:1032600019CE8091F301883009F014CE1092F30149
:103270008091F5019091F601873F2FEF920760F161
:1032800009969093F6018093F5018091EB0190915E
:10329000EC019093F0018093EF018091ED0190910A
:1032A000EE019093F2018093F101D092EC01C09273
:1032B000EB018091690490916A049093EE018093F0
:1032C000ED011092B701DF91CF911F910F91FF9007
:1032D000EF90DF90CF9008950896D3CF4CE1E41A99
:1032E000F108F092C201E092C1018BEF91E090935E
:1032F000C4018093C3018091F9019091FA01892B57
:10330000D9F42091F5013091F6014091F3015091EB
:10331000F4016091EB017091EC01A091ED01B0918D
:10332000EE01E1E4F5E085E0E735F80761F4F093BC
:10333000B201E093B101AECD81E10E94080E019689
:1033400009F0A8CDDECF848195810097B9F182176D
:103350009307A1F586819781009719F08417950747
:1033600069F5808191810097D1F4C281D381CD2B01
:10337000E9F4F093B201E093B1011092B901109217
:10338000B80182E08093B7018BEF91E09093BB018D
:103390008093BA011092BD011092BC0178CE8F3F8C
:1033A000980721F4C281D381219619F386179707D4
:1033B00029F482819381A817B907D9F23B96B3CF3C
:1033C0008FEF9FEFC4CE86E00E94080E019609F0B1
:1033D00061CD9091720580910002992369F140912D
:1033E0005D0550915E052091F5013091F60142177F
:1033F000530711F54091F3015091F40120915F05BD
:103400003091600542175307B9F440915905509126
:103410005A052091EB013091EC014217530761F4FA
:1034200040915B0550915C052091ED013091EE01DA
:103430004217530709F455C18F73823081F42091EC
:10344000F5013091F6013093B0012093AF01E7E729
:10345000F5E080E0843009F091C080937F05809191
:10346000000282FD17CD84E18093000288E290E0A3
:103470009093C2018093C10180E58093FF01309158
:10348000FA018091FE018093FA012091F901809167
:10349000FD018093F9012093FD019091F801809145
:1034A000FC018093F8019093FC018091F7018093D7
:1034B0007F054091FB014093F7018093FB013F5F43
:1034C0003093FE0131110DC02F5F2093FD012111BA
:1034D00008C09F5F9093FC01911103C08F5F8093A0
:1034E000FB018091F3019091F4019093B0018093DE
:1034F000AF012091F5013091F6013093F401209352
:10350000F3019093F6018093F5018091EB01909186
:10351000EC019093F0018093EF018091ED01909187
:10352000EE019093F2018093F101D092EC01C092F0
:10353000EB018091690490916A049093EE0180936D
:10354000ED0180E48093E7018091C1019091C20177
:103550009093E1018093E20110920602109205021D
:10356000109204021092030286E00E94080E8095D9
:1035700090959093040280930302EDCD4191519177
:103580008F5F2417350709F065CF10927F059923C7
:1035900031F081E080937F05973009F07BCC89E59D
:1035A00095E09093B9018093B80183E0809373050F
:1035B0008093710510926F0584E0809370051092DE
:1035C000740530935E0520935D058091F301909121
:1035D000F4019093600580935F058091EB019091D9
:1035E000EC0190935A05809359058091ED019091DB
:1035F000EE0190935C0580935B0581E080937205FA
:103600008091B301809365058091B4018093660534
:103610008091B501809367058091B601809368051C
:1036200081E090E090936A05809369058091FA01AA
:10363000809364058091F901809363058091F8017E
:10364000809362058091F7018093610581E090E0AD
:103650000E94E02C8091FF01982F907F9135B8F166
:1036600082958F708550990B880F991F880F991F2D
:10367000EC2FF0E0E817F9072CF4EF52FE4F36A9D3
:10368000311103C0C0937F0522C0313011F4CF5FE8
:10369000EFCF27A9323009F52430F9F4C0937F0524
:1036A00080AD91AD8927982789279093B0018093A9
:1036B000AF01813022E0920710F080E092E0909319
:1036C0006C0580936B0590936E0580936D05C9E53D
:1036D000D5E080E18093000219CC222399F2C20F39
:1036E000C7CF29E535E03093B9012093B801109296
:1036F000B70182FF08C01092720580E28093B70183
:103700000E949815C7CB2091FF0122952F70220FA0
:10371000220F20937F05E21AF10887010451110955
:103720001093C2010093C1019F70923021F4982F31
:103730009F739231F1F00115110519F4982F9370D0
:10374000C1F02091F70190916105291300C22091E9
:10375000F801909162052913FAC12091F901909125
:1037600063052913F4C12091FA019091640529138E
:10377000EEC184FF5BC06091690570916A056115B7
:10378000710509F453C085E695E00E94AD2C309197
:10379000FB018091AB01381349C02091FC0180915D
:1037A000AC01281343C09091FD018091AD019813A5
:1037B0003DC08091FE014091AE01841337C030932B
:1037C0006505209366059093670580936805909141
:1037D00071058091740581111EC080916F05209143
:1037E0007305921B282F269526952695921B890FE7
:1037F00080936F0597FD919520917005322F369536
:103800003695231B920F9093700586958695869525
:10381000890F8093710581E08093B70180917105D4
:103820008093730510926A051092690520917205C4
:10383000E22FEF70E150E83008F02CCBF0E0ED5DC6
:10384000F34E0C9438362B1C4B1CC21C861DBB1D22
:10385000CE1DA71D7E1D8091B70180FF1BCB83E08D
:103860008093720580E48093B70110926A051092EC
:1038700069050115110531F082E48093B701C80193
:103880000E94E02C1092BD011092BC010E9498157C
:10389000C9E5D5E0C5CA8091B70180FF6BC08091B2
:1038A00000028F73823109F065C08091FF01982F6B
:1038B000907F9135B8F182958F708550990B880F64
:1038C000991F880F991FEC2FF0E0E817F9072CF4E7
:1038D000EF52FE4F36A9311103C0C0937F0522C0BD
:1038E000313011F4CF5FEFCF27A93230F1F524301A
:1038F000E1F5C0937F0580AD91AD89279827892791
:103900009093B0018093AF01813042E0940710F0B2
:1039100080E092E090936C0580936B0590936E0528
:1039200080936D0583E0809372058091F701809309
:1039300061058091F801809362058091F90180937F
:1039400063058091FA018093640581E090E00E9414
:10395000E02C82E48093B70110926A051092690509
:103960001092C2011092C1018DCF222309F4B5CF6C
:10397000C20FA9CF80E28093B7010E9498151092E0
:1039800072056DCD8091000280FF28C024FD26C005
:103990008091690590916A05892B09F07BCAC7015E
:1039A00043970E94E02C8091B701982F90619093EB
:1039B000B701012B19F082618093B7010E9498151D
:1039C00081E090E090936A058093690588E0809398
:1039D000720510927405C9E5D5E002CB85FF14C0CD
:1039E0008091050290910602982789279827AC01BB
:1039F000495F5D4F5093C4014093C301081B190BED
:103A00001093C2010093C1014091C1015091C201C4
:103A10009091B7014115510541F024FD06C0926017
:103A20009093B701CA010E94E02C80910102282FD7
:103A300030E0322F222780910202820F932F911DB6
:103A40009093B0018093AF0120916D0530916E0588
:103A50002817390710F0892B21F43093B0012093F7
:103A6000AF018091AF019091B00190936C0580936C
:103A70006B058091B701837009F40CCA03CF84FFF2
:103A80000CC01092BD011092BC0181E090E0998BB6
:103A9000888B84E0898F1B8EA3CA2091BC01309152
:103AA000BD0121153105B9F080FF02C0198A188ABD
:103AB00088899989009789F48A899B898217930755
:103AC00020F49093BD018093BC018091BC01909142
:103AD000BD01998B888B1B8E92CA9093BD018093F8
:103AE000BC01F9CF8091B70181FFD4C988E290E091
:103AF0009093C2018093C10180E19BCA8091B7017C
:103B000080FFC8C91092720580E1F8CD011511053A
:103B100019F0C8010E94E02C8091B701817090914A
:103B2000000290FF1EC08823C1F087E080937205D9
:103B30001092730510926A051092690581E090E079
:103B40000E94E02C80E18093B7010E94981580E1EB
:103B500080930002C9E5D5E046CA86E080937205ED
:103B6000EDCF8823C1F085E08093720510926A053D
:103B7000109269058FC90115110519F0C8010E943D
:103B8000E02C8091000280FF06C087E080937205E0
:103B900010927305D3CF012BD1F67CC98091B70168
:103BA00080FF78C987E0809372051092730572C90F
:103BB00082E08093010210920202C3CCCF93DF9384
:103BC000EC012C853D852115310529F490E080E03C
:103BD000DF91CF910895EDA5EE23C1F381E08EA78B
:103BE00085E0E89FF0011124EF57FA4F8E859F85FD
:103BF0000796938382833093B2012093B10185E0CD
:103C00000E94E6168091C1019091C201892BF1F2C8
:103C10008C859D850E943D1481E090E0D9CFCF92A4
:103C2000DF92EF92FF920F931F93CF93DF938091D8
:103C3000E805882309F41EC20E9434080091960109
:103C4000109197012091980130919901601B710B9F
:103C5000820B930B613177428105910508F019C100
:103C6000D091A001D11151C080E591E00E9452078E
:103C700089E30E94D609882309F445C06091E005D4
:103C80007091E1057B0126E0E20EF11CE11448E0B1
:103C9000F40628F07B018AEFE81A87E0F80A80E052
:103CA0000E94160960E08AE30E94B409C82F60E010
:103CB0008AE30E94B409982F8C2F9093E10580939A
:103CC000E00560E08AE30E94B409182F60E08AE30F
:103CD0000E94B409C82F60E08AE30E94B409082F4B
:103CE00040E46EE180E80E94DA0807FF0DC1F0921F
:103CF000A401E092A3019C2F812F04979093A60129
:103D00008093A501DFEFD093A0011091A0011123B2
:103D100009F460C081E08093A101812F0E94BD0859
:103D2000EC019093C2018093C101892B09F401C178
:103D300042E650E061ED71E0812F0E946209E0905F
:103D4000DD01F090DE01A8E0EA16F10409F0DFC021
:103D50001093A2012E97D093C201C093C10180910C
:103D6000EB019091EC012091670430916804822767
:103D700093272091CD013091CE0182239323892B6B
:103D8000C1F48091ED019091EE0120916904309190
:103D90006A04822793272091CF013091D00182239A
:103DA0009323892B31F467ED71E08BEE91E00E9453
:103DB000691481E00E94E6168091C1019091C201D0
:103DC000892B21F00E944C130E94060F8091A101C3
:103DD00080FDAFC00E9434080091E9051091EA050A
:103DE0002091EB053091EC056B017C01C01AD10AE2
:103DF000E20AF30A9701860137FD3CC16C597F4FF7
:103E00008F4F9F4F6093E9057093EA058093EB0510
:103E10009093EC0589E595E09093B9018093B80102
:103E200082E00E94E6168091C1019091C201892B27
:103E300009F01BC181E495E09093B2018093B10138
:103E400085E00E94E6168091C1019091C201892B04
:103E500021F081E495E00E943D148CE495E090937C
:103E6000B2018093B10185E00E94E6168091C10104
:103E70009091C201892B09F4FDC08CE495E0DF919B
:103E8000CF911F910F91FF90EF90DF90CF900C9406
:103E90003D140E94340860939601709397018093BB
:103EA0009801909399012091C0012F5F2093C00148
:103EB000109240059BE030E064E08091400588303E
:103EC00008F0CECE989FF0011124E851FB4F4081BD
:103ED0005181A281B3814A2B5B2B452B89F042850E
:103EE000D901A41BB109A837B10554F0899FF0018D
:103EF0001124E851FB4FDF01C62E1D92CA94E9F749
:103F00008F5F80934005D9CF0E949809FCCEB8E01E
:103F1000EB16B6E0FB0669F41092C2011092C101E3
:103F2000AA9780F48091C1019091C201892B09F078
:103F30004BCF80E591E00E9452070E9498091092B1
:103F4000A00148CF8091E5019091E6018115E1E063
:103F50009E0701F18115924029F72091F7013091D8
:103F6000F801809167049091680428173907D1F609
:103F70002091F9013091FA018091690490916A04CD
:103F80002817390779F667EE71E08DEE91E00E940F
:103F90006914C8CF0091F7011091F801809167046E
:103FA000909168040817190709F0BCCFC091F90176
:103FB000D091FA018091690490916A04C817D907D9
:103FC00009F0B0CF67EE71E08DEE91E00E946914C8
:103FD00080E092E09093E6018093E50186E0E7EED1
:103FE000F1E0A1EFB1E001900D928A95E1F786E052
:103FF000E2EEF5E0A7EEB1E001900D928A95E1F7CF
:1040000086E0E2EEF5E0A7EDB1E001900D928A9531
:10401000E1F786E0E1EFF1E0A1EDB1E001900D9272
:104020008A95E1F78091ED019091EE019093F8016E
:104030008093F7018091EF019091F0019093FA0144
:104040008093F9011093EE010093ED01D093F001FC
:10405000C093EF01F092DE01E092DD018AE290E090
:104060009093C2018093C1015DCF0E944C130E94C6
:10407000060FE0CEDF91CF911F910F91FF90EF904F
:10408000DF90CF900895CF93DF93EC010E940F1E35
:104090008CA50E945E081CA6DF91CF9108950F9316
:1040A0001F93CF93DF931F92CDB7DEB78C010E9491
:1040B0000F1EF80184A5882389F041E050E0BE017D
:1040C0006F5F7F4F0E946209019741F4898190E000
:1040D0000F90DF91CF911F910F9108958FEF9FEF78
:1040E000F7CFEF92FF920F931F93CF93DF937C0153
:1040F0008B01EA010E940F1EF70184A5882369F154
:10410000AE01B8010E9462098C01F701C4A58C2F91
:104110000E94BD088017910769F48C2F0E945E08E9
:10412000F70114A6C801DF91CF911F910F91FF9065
:10413000EF90089585E0C89FF0011124EF57FA4FE2
:1041400080819181800F911F9183808382819381EF
:10415000801B910B93838283E5CF80E090E0E3CFD7
:10416000CF93DF93EC010E940F1E8CA5DF91CF91BE
:104170000C94BD08CF93DF93EC010E940F1E8CA519
:104180000E945E0888898CA789899A8998AB8FA735
:104190008B899C899AAB89AB8D899E899CAB8BABB3
:1041A000CE014096AE014B5D5F4F27E0FC01379694
:1041B000DC0101900D922A95E1F707968417950787
:1041C000A1F71DA28CA5DF91CF910C94BD082F9271
:1041D0003F924F925F926F927F928F929F92AF9297
:1041E000BF92DF92EF92FF920F931F93CF93DF93D3
:1041F000CDB7DEB7E6970FB6F894DEBF0FBECDBFE2
:104200007C014A015B0119010E9434082B013C0129
:104210008701075B1F4FC8010E94BA2018161906B4
:104220009CF00E943408641975098609970986165E
:104230009706A806B90608F48DC162E370E080E035
:1042400090E00E940208E7CF42E250E0BE016F5FBB
:104250007F4FC8010E9471208981823009F075C1A9
:10426000F80183A994A98115934409F06EC16D8169
:104270007E818F8198850E943E362B013C01F101A1
:10428000408251826282738246E050E0B701685FEB
:104290007F4FCE014D960E946A37892B99F4F70122
:1042A00080819181A281B381481659066A067B06F6
:1042B00048F084819581A681B78184159505A6056E
:1042C000B705E8F4C8010E944320D12C8D2DE69655
:1042D0000FB6F894DEBF0FBECDBFDF91CF911F9117
:1042E0000F91FF90EF90DF90BF90AF909F908F90D5
:1042F0007F906F905F904F903F902F9008958989A5
:104300009A89AB89BC89808B918BA28BB38B8EEC05
:10431000A82EB12CC8010E94A60BF1E0AF1AB1087B
:10432000C9F7D12CC701849698AB8FA7F701B8962F
:10433000FAABE9AB08969CAB8BAB47019CE1890ECD
:10434000911C7497FEABEDAB1701F8E12F0E311CF9
:10435000270120E2420E511CC8010E94B02018160D
:1043600019060CF0F3C0C8010E94A60B8333910517
:1043700009F4D1C09CF58130910509F471C074F441
:10438000892B51F3C8010E94A60BB82EBA94FFEFF7
:10439000BF1611F3C8010E94A60BF8CF8330910518
:1043A00009F469C0069771F7C8010E94A60BA82EF0
:1043B00044E050E0B201C8010E947120712C612CD0
:1043C000EA2DE450FF0B5F016A147B042CF6C80150
:1043D0000E94A60BFFEF6F1A7F0AF6CF8A33910572
:1043E00009F46DC064F58533910591F1C69751F6D6
:1043F000C8010E94A60BB82EF701848D8823D9F03E
:10440000F80191A982A937A520A93BA72CA79DA7B0
:104410008EA7B401CE0183960E9440134DA15EA1E8
:104420006FA178A58BA59CA5ADA5BEA5481759077A
:104430006A077B07D9F544E050E0B40118C08B331C
:10444000910509F452C08F3F910509F485CF9ACFA9
:10445000C8010E94A60BC8010E94A60BD82E7CCFD3
:10446000C8010E94A60B44E050E06DA97EA9C801D6
:104470000E94712071CFC8010E94A60BA82E44E0B3
:1044800050E0B101C8010E947120712C612C8A2D6D
:104490008450990B5C016A147B040CF05DCFC80159
:1044A0000E94A60B9FEF691A790AF5CFBA94FFEF25
:1044B000BF1609F451CFC8010E94A60BF7CFC8015F
:1044C0000E94A60B44E050E069A97AA9C8010E94A5
:1044D0007120F70160A571A582A593A50E943E36C3
:1044E00060A771A782A793A737CFC8010E94A60B28
:1044F00044E050E06BA97CA9C8010E947120F7013B
:1045000064A575A586A597A50E943E3664A775A7E4
:1045100086A797A721CFC8010E94A60B44E050E0D0
:104520006FA578A9C8010E947120F70164A175A147
:1045300086A197A10E943E3664A375A386A397A384
:1045400060AB71AB82AB93AB07CFD12CC8010E949B
:104550004320BCCEDD24DA94B9CECF92DF92EF9225
:10456000FF920F931F93CF93DF9300D000D0CDB76E
:10457000DEB78C017B016A010E940F1ED7011296E3
:104580008C91129781110EC013968C911397811103
:1045900009C014968C911497811104C015968C91C2
:1045A0008823E9F0C114D104D1F0D8011C96ED9113
:1045B000FC91D70112962D913C9113973A83298350
:1045C00014968D919C919C838B837C2D6D2D3097BF
:1045D00079F1778366833183208393838283F80123
:1045E00084859585892BB1F185A5811133C08EE035
:1045F00096E00E94840AD8019D968C939D972BE2A9
:1046000030E01F963C932E931E9721E090E081119D
:1046100001C020E0822F0F900F900F900F90DF913C
:10462000CF911F910F91FF90EF90DF90CF90089561
:10463000CE0101960E949C12F8019587848700970D
:1046400049F09801225F3F4FDC011A963C932E936C
:104650001997C5CF80E090E0DECF4F925F926F92C6
:104660007F928F929F92AF92BF92CF92DF92EF9202
:10467000FF920F931F93CF93DF93CDB7DEB763976E
:104680000FB6F894DEBF0FBECDBF7C016B013A01BF
:10469000FB01DB018D91882309F444C08E32D1F3F4
:1046A00080538A30B8F3F701428153816481758168
:1046B0008091280690912906A0912A06B0912B0698
:1046C000481759076A077B0709F444C28701085F46
:1046D0001F4F0E9434086F7077277C5FC8010E94CB
:1046E000FB12813009F03BC280E891E09A83898314
:1046F000F70182819381A481B5818B839C83AD83F3
:10470000BE8345E350E0BE016F5F7F4FC8010E944A
:10471000AD22892B09F057C0D12CC12CC8010E94B1
:10472000F10B39C030E020E090E080E05AE04191A8
:10473000442309F1843091050CF0B5CF4E3271F469
:104740002F3F310511F00CF0AECFD301A80FB91FE8
:1047500012962C93019630E020E0E9CF529FB001F1
:10476000539F700D1124242F440F330B2053310914
:10477000260F371FDCCF2F3F310511F00CF093CF00
:10478000843091050CF08FCF680E791EF3012283DF
:10479000CC24C394D12CC60163960FB6F894DEBF27
:1047A0000FBECDBFDF91CF911F910F91FF90EF9082
:1047B000DF90CF90BF90AF909F908F907F906F9041
:1047C0005F904F9008950E943408F70177836683C5
:1047D00042E050E0B7016A5F7F4FC8010E94C30BFF
:1047E00081E090E09A83898342E050E0BE016F5FF0
:1047F0007F4FC8010E94C30B80E091E09A838983B8
:1048000042E050E0BE016F5F7F4FC8010E94C30BC2
:104810001A82198242E050E0BE016F5F7F4FC801EB
:104820000E94C30B42E050E0BE016F5F7F4FC801A2
:104830000E94C30B42E050E0BE016F5F7F4FC80192
:104840000E94C30B5601F6018081882301F16501A6
:10485000F60181912F01882311F08E32B1F44601C7
:104860008A189B081814190474F48D8641E050E0EE
:10487000BE01635F7F4FC8010E94C30BA401B50155
:10488000C8010E94C30B5201DECF6201E1CF1D8639
:1048900041E050E0BE01635F7F4FC8010E94C30B3F
:1048A000C12CDD24D394DA82C98242E050E0BE01FB
:1048B0006F5F7F4FC8010E94C30BDA82C98242E05A
:1048C00050E0BE016F5F7F4FC8010E94C30BC8015B
:1048D0000E94DE1D892B09F41FCF93E0A92EB12C75
:1048E000230122E0420E511CF7C0F701428153819F
:1048F0006481758191AD82AD37A920AD3B832C8356
:104900009D838E838B819C81AD81BE814817590721
:104910006A077B0729F483AD94AD8115954319F09F
:104920009EEF8FEFCDC0C8010E94B0200C970CF411
:104930000FC14CE050E0BE016F5F7F4FC8010E9485
:1049400071208B819C819827892798279A8B898B46
:10495000F7014681578129813A814217530711F4A3
:1049600097FD05C0C8010E9443209CEFDACF8F70ED
:104970009270892B29F0C8010E9443209BEFD1CF70
:104980006F807884762467247624D12CC12C61141E
:104990007104B9F4C8010E9443209AEFC2CF8D85FB
:1049A000811117C0C8010E94A60BC8010E94A60B66
:1049B000C8010E94A60BC8010E94A60BFFEFCF1AE8
:1049C000DF0A8D819E81982789279827C816D906E6
:1049D000A8F441E050E0BE01635F7F4FC8010E9430
:1049E00071208D858823D9F28D859FEF980F9D8743
:1049F0008823A9F2C8010E94A60BF6CF912C812C26
:104A000041E050E0BE016D5E7F4FC8010E94712001
:104A10008B89982F907C61F4882389F08B899FEF94
:104A2000980F9B8B882341F0C8010E94A60BF6CFFC
:104A3000C8010E94A60B1B8A8B898111E1CF42E03D
:104A400050E0BE01615F7F4FC8010E94712042E0CB
:104A500050E0BE01635F7F4FC8010E947120C80112
:104A60000E94A60BC8010E94A60BC8010E94A60BBB
:104A7000C8010E94A60B42E050E0BE016F5E7F4F6E
:104A8000C8010E9471208F8598898115914009F095
:104A900040C08D859E8581159140D9F589899A8977
:104AA0008115944029F0C8010E94432097EF39CF27
:104AB00044E050E0B201C8010E94712091E080E022
:104AC000C92ED82EE1E0AE1AB10809F427CEFFEFC7
:104AD000CF16DF0609F022CE0E9434083B014C01BC
:104AE000C8010E94BA20181619060CF4FECE0E94C6
:104AF000340866197709880999096938734181056D
:104B0000910520F562E370E080E090E00E940208E9
:104B1000E7CFD12CC12C89899A8998278927982792
:104B2000C816D90638F4C8010E94A60B2FEFC21A86
:104B3000D20AF1CF8FEF881A980A8614970409F0E9
:104B40005FCFC8010E94432096EFEBCE9FEFE9CEE6
:104B50009DEFE7CE8EEFC82EDD24DA941CCED12C4B
:104B6000C12C19CEAF92BF92CF92DF92EF92FF92FB
:104B70000F931F93CF93DF93CDB7DEB7C354D10903
:104B80000FB6F894DEBF0FBECDBF7C015B016A019A
:104B900000E811E01FAF0EAF24961CAE1DAE1EAE96
:104BA0001FAE24971A8309831B821C821D821E82DA
:104BB000CE0109960E94290C80911C0690911D0639
:104BC000A0911E06B0911F068B839C83AD83BE838C
:104BD00018861F82AE01425C5F4FB501CE0101967F
:104BE0000E942D2381309105C1F4D701ED91FC91F4
:104BF0000684F785E02D1A83098324968CAD9DAD3C
:104C0000AEADBFAD24978B839C83AD83BE83A601DD
:104C1000BE016F5F7F4FC7010995CD5BDF4F0FB6B8
:104C2000F894DEBF0FBECDBFDF91CF911F910F91E2
:104C3000FF90EF90DF90CF90BF90AF900895AF922C
:104C4000BF92CF92DF92EF92FF920F931F93CF9379
:104C5000DF93CDB7DEB7C354D1090FB6F894DEBFEA
:104C60000FBECDBF7C015B016A0100E811E01FAF00
:104C70000EAF24961CAE1DAE1EAE1FAE24971A8337
:104C800009831B821C821D821E82CE0109960E940E
:104C9000290C80911C0690911D06A0911E06B091D2
:104CA0001F068B839C83AD83BE8318861F82AE0153
:104CB000425C5F4FB501CE0101960E942D238130E9
:104CC0009105C1F4D701ED91FC910488F589E02D9F
:104CD0001A83098324968CAD9DADAEADBFAD2497EC
:104CE0008B839C83AD83BE83A601BE016F5F7F4F24
:104CF000C7010995CD5BDF4F0FB6F894DEBF0FBE3D
:104D0000CDBFDF91CF911F910F91FF90EF90DF907A
:104D1000CF90BF90AF900895CF93DF93EC010E94A6
:104D20000F1EEC85FD85309709F185818823F1F010
:104D300080819EE1989FF0011124E75AFA4F208963
:104D40003189232B99F4F093B901E093B80183E002
:104D50000E94E6168091C1019091C201892B31F029
:104D60000E944C13DF91CF910C94060FDF91CF91ED
:104D70000895CF93DF93EC010E940F1EEC85FD8513
:104D800085818823C9F086818823A1F0878122E06C
:104D9000811101C0215030E0322F2227330F80854E
:104DA0009185280F391F80E096E0821B930BDF91DD
:104DB000CF91089521E0EECF80E096E0F8CF4F92BA
:104DC0005F926F927F928F929F92AF92BF92CF929B
:104DD000DF92EF92FF920F931F93CF93DF935C01CB
:104DE0004B017A01DC011C96CD91DC916A010E9495
:104DF00034082B013C010E940F1E209709F475C056
:104E00008981882309F471C0867009F06EC08E8193
:104E10008823D1F18F8112E0811101C01150FE0170
:104E2000E10FF11D8581811133C080E092E00E9485
:104E3000840AFE01E10FF11D8583811127C00E94C4
:104E400034086419750986099709613D7740810521
:104E5000910508F447C081E090E0F50193838283D7
:104E6000C7018C199D09DF91CF911F910F91FF9080
:104E7000EF90DF90CF90BF90AF909F908F907F90FA
:104E80006F905F904F90089511E0C8CF19861886F3
:104E9000012FA7014C195D09480D591D68857985B9
:104EA0009601FE01E10FF11D85810E94540BC81A85
:104EB000D90A28853985820F931F998788871C1402
:104EC0001D0474F6111109C0D501ED91FC91068005
:104ED000F781E02DC50109958ECF12E0023009F06F
:104EE000A4CFADCF0E94AD0E86CF90E080E0BBCFC7
:104EF000CF92DF92EF92FF920F931F93CF93DF93A6
:104F0000CDB7DEB7A0970FB6F894DEBF0FBECDBF0A
:104F10006C017B01C7010E9482358823A9F0813290
:104F200008F080E2082F10E0A801B701CE01019639
:104F30000E947935A801BE016F5F7F4FC6010E94B4
:104F4000DF26E00EF11EE6CFA0960FB6F894DEBF86
:104F50000FBECDBFDF91CF911F910F91FF90EF90CA
:104F6000DF90CF900895CF93DF93EC010E940F1E46
:104F7000EC85FD85309739F0818182FF08C081E0A2
:104F80009281911101C080E0DF91CF91089581E07D
:104F9000FBCFCF93DF93EC01EC85FD85309759F083
:104FA0008181882341F082FF0CC011828C859D8510
:104FB00002960E94630C1D861C86DF91CF910C9493
:104FC0000F1EE881F9810680F781E02DCE01099559
:104FD000EC85FD85818182608183E8CFCF92DF926D
:104FE000EF92FF92CF93DF93EC017B016A01E8819E
:104FF000F9810488F589E02D0995F701A281B38133
:1050000044815581DC24CD24DC2480915705909186
:10501000580520917205E0905D05F0905E050196BF
:105020008115FDE79F0710F080E090E1782F692F50
:10503000222319F0E616F70691F390935805809312
:10504000570510927F05222341F081E080937F0570
:10505000273019F090E080E05DC082E08093720517
:105060008091B301809365058091B40180936605BA
:105070008091B501809367058091B60180936805A2
:1050800080E092E090936C0580936B0590936E05A1
:1050900080936D0581E090E090936A0580936905A7
:1050A000109274058093730583E0809371051092CC
:1050B0006F0580E18093700570935E0560935D05D8
:1050C000D0926005C0925F05B0935A05A093590530
:1050D00050935C0540935B050E9434082E853F8504
:1050E0006B017C01C20ED31EE11CF11C8091720584
:1050F0008F7009F4AFCF0E940F1E809172058F70E0
:10510000833079F480917505909176059D878C8721
:1051100081E090E0DF91CF91FF90EF90DF90CF9012
:1051200008950E9434086C197D098E099F0916168E
:10513000170618061906D4F6109272058BCF6F92D7
:105140007F929F92AF92BF92CF92DF92EF92FF92A7
:105150000F931F93CF93DF93CDB7DEB7A6970FB60C
:10516000F894DEBF0FBECDBF8C01962EB42EA52EB7
:1051700020E2622ECE0101966C01DC01E62D1D922B
:10518000EA95E9F77801F9E4EF0EF11C80E891E087
:105190009AA389A38FEF8BA38CA38DA38EA343E443
:1051A00050E0BE016F5D7F4FC7010E94AD220196A6
:1051B00009F4D0C081E089838A8386E0782E7B82DF
:1051C0001C82D80114966D917D918D919C911797B9
:1051D0000E943E366D837E838F839887A986BA8628
:1051E0004CE150E0B601C7010E94C30BFE013796A7
:1051F0008AE1DF011D928A95E9F75801B8E0AB0E0C
:10520000B11CF501D60101900D927A94E1F740E1CD
:1052100050E0B601C7010E94C30BF60111926A94D7
:10522000E9F796E0692E712C40E250E0B601C70123
:105230000E94C30BF1E06F1A7108B1F783E689830E
:1052400092E89A8393E59B838C8385E38D8381E049
:105250008E839F829DE3988797E099878A8786E06F
:10526000F501DE011B9601900D928A95E1F78CE025
:10527000898BF801A685B785109709F07FC08A8BC6
:1052800062E871E0CE0143960E949237D8011B96E6
:105290006C91CE0149960E947407F8016485CE0195
:1052A0004B960E947407D8011D966C91CE014D96C5
:1052B0000E9474074EE150E0B601C7010E94C30B83
:1052C000F3E09F122DC082E3898384E08A83D801B2
:1052D00050969C9150979B8351969C9151979C839B
:1052E00052969C9152979D8353969C9153979E837F
:1052F00096E39F8388875C968C915C9789875D96FF
:105300008C915D978A875E968C915E978B875F966E
:105310008C918C874CE050E0B601C7010E94C30B12
:1053200087E3898386E08A8391E09B8393E09C8373
:105330008D838FE08E838AE38F838BE388878FEF63
:10534000898749E050E0B601C7010E94C30BC7013D
:105350000E94DE1DA6960FB6F894DEBF0FBECDBF2D
:10536000DF91CF911F910F91FF90EF90DF90CF9041
:10537000BF90AF909F907F906F900895FD01019036
:105380000020E9F731975F01AA1ABB0AAA8A42E115
:1053900050E0B601C7010E94C30BA5015527F801D3
:1053A000668577858ACF2F923F924F925F926F9258
:1053B0007F928F929F92AF92BF92CF92DF92EF92A5
:1053C000FF920F931F93CF93DF9300D000D000D0B4
:1053D0001F92CDB7DEB78C010E9403352FEC37E06A
:1053E00040E050E00E94D535DC01CB010196A11DC3
:1053F000B11DF80184839583A683B783808391834D
:10540000A283B3835801F9E4AF0EB11CC5010E9419
:10541000F10B64E470E0C5010E94FB12882309F4DB
:1054200035C10E9434082B013C01480188E4880EF4
:10543000911C180190E4290E311C48EEC42E43E063
:10544000D42EE12CF12C1F821E82D4018C9183304A
:10545000B1F181115EC0F80184819581A681B78187
:105460000196A11DB11D84839583A683B7830E94F5
:1054700034086419750986099709A70196010E94E5
:105480000736A90161E0C8010E949F2881E0D4018C
:105490008C938E819F810197C1F20E943408641918
:1054A000750986099709D801DC962D913D914D919A
:1054B0005C91DF97261737074807590720F6C50183
:1054C0000E94F10BF80184819581A681B781019634
:1054D000A11DB11D84839583A683B7838E819F818F
:1054E00027960FB6F894DEBF0FBECDBFDF91CF91E8
:1054F0001F910F91FF90EF90DF90CF90BF90AF90F2
:105500009F908F907F906F905F904F903F902F90E3
:1055100008958430F9F4F80184819581A681B781DA
:105520000196A11DB11D84839583A683B7830E9434
:1055300034086419750986099709A70196010E9424
:105540000736A90163E0C8010E949F28E2E0D40168
:10555000EC939FCF813049F5D1014D915D916D91D3
:105560007C919E012F5F3F4FC8010E94E7208D83F1
:10557000823009F084C089819A81AB81BC81F801B5
:1055800084839583A683B7830E94340864197509C0
:1055900086099709A70196010E940736A90163E0D1
:1055A000C8010E949F28ED81D2CF823009F071CFCF
:1055B000D1014D915D916D917C919E012F5F3F4F87
:1055C000C8010E94E7208D83853009F052C083E036
:1055D000F4018083F80184A195A1A6A1B7A1892B2C
:1055E0008A2B8B2B41F484E893E0A0E0B0E084A305
:1055F00095A3A6A3B7A3F80180A591A5A2A5B3A5DD
:10560000892B8A2B8B2B61F484A195A1A6A1B7A12C
:10561000B695A7959795879580A791A7A2A7B3A7B9
:10562000F80180A591A5A2A5B3A544A555A566A599
:1056300077A5452B462B472B51F4AC01BD01440FF8
:10564000551F661F771F44A755A766A777A7F801C0
:1056500080AB91ABA2ABB3AB84A595A5A6A5B7A52E
:1056600084AB95ABA6ABB7AB81E090E09F838E8314
:1056700010CF9D81963019F4D4011C920ACFBD81C0
:10568000BF3F09F006CFF401108203CF1F821E82B4
:1056900025CF1F920F920FB60F9211242F933F9395
:1056A0008F939F93AF93BF938091E0049091E10417
:1056B000A091E204B091E3043091DF0423E0230FD2
:1056C0002D3758F50196A11DB11D2093DF0480935D
:1056D000E0049093E104A093E204B093E30480918A
:1056E000E4049091E504A091E604B091E7040196EA
:1056F000A11DB11D8093E4049093E504A093E604FA
:10570000B093E704BF91AF919F918F913F912F91FB
:105710000F900FBE0F901F90189526E8230F02964A
:10572000A11DB11DD2CF1F920F920FB60F9211245F
:105730002F933F938F939F93EF93FF9380913B021F
:1057400090913C022091400230914102213031057C
:10575000F9F48F3F9807E1F41092C50089E0809337
:10576000C40088E48093C1008EE28093C20010924E
:10577000C60010923C0210923B02FF91EF919F9164
:105780008F913F912F910F900FBE0F901F90189502
:105790000097A1F41092C50083E08093C40088E2D2
:1057A0008093C1008EE08093C2001092C60081E019
:1057B00090E090933C0280933B02DFCF2091010167
:1057C000309102018217930770F49C012F5F3F4FC5
:1057D00030933C0220933B028A5B9D4FFC01808109
:1057E0008093C600CACF1092C50083E08093C400A6
:1057F00088E48093C1008EE08093C200E0913B0278
:10580000F0913C02EA5BFD4F80818093C6008FEFF0
:105810009FEFCFCF1F920F920FB60F9211242F93AD
:105820003F934F935F936F937F938F939F93AF9328
:10583000BF93EF93FF930E94932BFF91EF91BF9142
:10584000AF919F918F917F916F915F914F913F9118
:105850002F910F900FBE0F901F9018951F920F92CF
:105860000FB60F9211242F933F934F935F936F9333
:105870007F938F939F93AF93BF93EF93FF93209169
:10588000C0008091C60090913D029130A1F482E069
:1058900080933D02FF91EF91BF91AF919F918F91C6
:1058A0007F916F915F914F913F912F910F900FBE1C
:1058B0000F901F90189524FF1FC083E080933D0236
:1058C00086E492E090933A028093390280913D02FF
:1058D000853001F780914002909141020397B9F61B
:1058E0001092C50083E08093C40080E18093C100E2
:1058F00086E08093C200CECF9330A9F4811129C0F5
:1059000084E080933D020E943408609335027093D6
:105910003602809337029093380280913902909139
:105920003A020196CFCF943089F6E0913902F09196
:105930003A029081891380833196F0933A02E09382
:10594000390280914402909145028E179F0708F01A
:10595000A1CF85E080933D02B9CFFC013381360FA2
:105960003093AE01A72FBB2792819A0F9093AD0180
:1059700021812093AC0140814093AB019A171B0613
:1059800048F481E0820F8093AC01811103C04F5F26
:105990004093AB0177273617170688F49F5F9093E3
:1059A000AD0191110CC08091AC018F5F8093AC016F
:1059B000811105C08091AB018F5F8093AB01089589
:1059C000CF93DF93C091B801D091B901BC01CE0152
:1059D00008960E94AD2CEBEAF1E0808188878181F6
:1059E000898782818A8783818B87DF91CF91089510
:1059F000EEEFF5E080E891E09183808312821382DC
:105A000014821582E4E0F6E091838083128213828F
:105A100014821582E4E1F6E091838083128213827E
:105A200014821582EAE0F6E0128213821482158253
:105A300016821782E0E2F6E091838083128213825D
:105A400014821582EAE1F6E0918380831282138248
:105A500014821582E6E2F6E091838083128213823B
:105A600014821582ECE2F6E0918380831282138225
:105A700014821582EAE6F6E0918380831282138213
:105A80001482158285E396E00E94290CE2E3F6E099
:105A900080E090E59183808312820895CF93DF9315
:105AA000CDB7DEB7C554D1090FB6F894DEBF0FBE2F
:105AB000CDBF789484B5826084BD84B5816084BD97
:105AC00085B5826085BD85B5816085BD80916E009C
:105AD000816080936E0010928100809181008260CD
