:100000000C94F0070C9418080C9418080C94180819
:100010000C9418080C9418080C9418080C941808E0
:100020000C9418080C9418080C9418080C941808D0
:100030000C9418080C9418080C9418080C941808C0
:100040000C94D91F0C9418080C94BE200C949A2080
:100050000C9423200C9418080C9418080C9418087D
:100060000C9418080C9418080000000023002600C7
:1000700029002330303031205B303030305D205368
:100080004F4E4F52204E6F6465204F4B202D206302
:100090006F6E66696720617420687474703A2F2FE0
:1000A0003C69703E2F00534F4E4F52204172742DC9
:1000B0004E657420746F20444D58204E6F64652047
:1000C000284E616E6F292076302E332E3100534F2B
:1000D0004E4F52204E6F6465002020287374617467
:1000E0006963290A0020202844484350290A003C1B
:1000F0002F7072653E3C68323E576972696E673C8C
:100100002F68323E3C7072653E4E616E6F2020203B
:100110002020202020202020204D41583438352018
:100120006D6F64756C652020202020202020584CA5
:10013000522028444D58206F7574290A35562020C6
:10014000202D2D2D2D2D2D2D2D2D3E205643430AB6
:10015000474E4420202D2D2D2D2D2D2D2D2D3E2093
:10016000474E44202D2D2D2D2D2D2D2D2D2D2D2D7A
:100170002D2D3E202070696E20312028736869651E
:100180006C64290A44312028545829202D2D2D2D06
:100190002D2D3E2044490A44322020202D2D2D2D86
:1001A0002D2D2D2D2D3E204445202B20524520283D
:1001B00074696564290A2020202020202020202026
:1001C000202020202020412020202D2D2D2D2D2DC0
:1001D0002D2D2D2D2D2D2D2D3E202070696E20339F
:1001E0002028446174612B290A202020202020200F
:1001F000202020202020202020422020202D2D2DB6
:100200002D2D2D2D2D2D2D2D2D2D2D3E20207069A8
:100210006E20322028446174612D290A4433202D38
:100220003E2033333052202D3E204C4544202D3E7D
:1002300020474E44202020286163746976697479D0
:100240002C206F7074696F6E616C290A5368696540
:100250006C642075736573204431302D4431332034
:1002600028535049292E204C6561766520746865B5
:100270006D20616C6F6E652E3C2F7072653E3C6820
:10028000323E466C617368696E673C2F68323E3C53
:100290007072653E466C6173682066726F6D207483
:1002A00068652062726F7773657220286E6F2073A5
:1002B0006F66747761726529206F72204172647570
:1002C000696E6F204944453A0A68747470733A2F16
:1002D0002F736F6E6F726C74642E676974687562C9
:1002E0002E696F2F736F6E6F722D6172746E6574ED
:1002F0002D6E6F64652F0A4944453A20426F617242
:10030000642041726475696E6F204E616E6F2C209F
:1003100050726F636573736F722041546D656761CE
:100320003332385020284F6C6420426F6F746C6FEA
:10033000616465722920666F7220636C6F6E6573ED
:100340002E0A526573657420746F20666163746F42
:1003500072793A2072652D666C6173682C206F7219
:1003600020736574204E65743D31323720537562B9
:100370003D313520556E69763D313520616E642002
:10038000536176652E3C2F7072653E3C68323E4E5E
:100390006F7465733C2F68323E3C64697620636CF1
:1003A0006173733D6B207374796C653D27666F6E66
:1003B000742D73697A653A31337078273E416E73D4
:1003C0007765727320417274506F6C6C206173207A
:1003D00022534F4E4F52204E6F6465222E204163B0
:1003E000636570747320417274446D782062792063
:1003F00062726F616463617374206F7220756E69DD
:10040000636173742E20486F6C6473207468652078
:100410006C617374206C6F6F6B2069662074686503
:1004200020736F757263652073746F70732E204133
:1004300072742D4E6574202F20756E697665727307
:1004400065206368616E676573206170706C7920E8
:10045000696D6D6564696174656C793B20495020F4
:100460006368616E676573206170706C7920616686
:10047000746572206120706F7765722D6379636C8B
:10048000652E20536F757263653A206769746875CD
:10049000622E636F6D2F736F6E6F726C74642F7347
:1004A0006F6E6F722D6172746E65742D6E6F646500
:1004B0003C2F6469763E3C2F6469763E3C2F626F28
:1004C00064793E3C2F68746D6C3E000A444D5820A0
:1004D0006F75742020203A20353132206368206304
:1004E0006F6E74696E756F75732C20545820706927
:1004F0006E2044310A00202F20556E697665727394
:10050000652000202F205375622D4E657420004D0C
:100510004143202020202020203A2030323A353319
:100520003A34463A34453A34463A35320A417274DE
:100530002D4E65742020203A20706F72742036345E
:1005400035342C204E657420004950202020202076
:100550002020203A20003C68323E53746174757349
:100560003C2F68323E3C7072653E003E3C627574C2
:10057000746F6E3E536176653C2F627574746F6E56
:100580003E3C2F666F726D3E003E3C6C6162656C56
:100590003E476174657761793C2F6C6162656C3EA2
:1005A0003C696E707574206E616D653D6720766183
:1005B0006C75653D003E3C6C6162656C3E537562D6
:1005C0006E6574206D61736B3C2F6C6162656C3E6F
:1005D0003C696E707574206E616D653D6D2076614D
:1005E0006C75653D003E5374617469633C2F6F7098
:1005F00074696F6E3E3C2F73656C6563743E3C6C32
:100600006162656C3E5374617469632049503C2F8C
:100610006C6162656C3E3C696E707574206E616DD4
:10062000653D612076616C75653D002073656C6584
:1006300063746564003E44484350202866616C6CD6
:10064000206261636B20746F20737461746963202E
:1006500062656C6F77206966206E6F6E65293C2F2E
:100660006F7074696F6E3E3C6F7074696F6E207648
:10067000616C75653D30002073656C6563746564FD
:10068000003E3C2F6469763E3C2F6469763E3C64B4
:10069000697620636C6173733D6B207374796C654C
:1006A0003D27666F6E742D73697A653A31327078C2
:1006B0003B6D617267696E2D746F703A3670782782
:1006C0003E506F72742D4164647265737320302FD5
:1006D000302F302069732073686F776E206173202C
:1006E00022556E6976657273652031222062792009
:1006F0006D6F737420636F6E736F6C65733B205105
:100700004C432B20616E64204D412063616C6C2052
:10071000697420556E69766572736520302E3C2FA2
:100720006469763E3C68323E4E6574776F726B3C0E
:100730002F68323E3C6C6162656C3E416464726558
:100740007373696E673C2F6C6162656C3E3C7365C8
:100750006C656374206E616D653D643E3C6F7074C2
:10076000696F6E2076616C75653D31003E3C2F648B
:1007700069763E3C6469763E3C6C6162656C3E55D0
:100780006E6976657273652028302D3135293C2FCE
:100790006C6162656C3E3C696E707574206E616D53
:1007A000653D7520747970653D6E756D626572206A
:1007B0006D696E3D30206D61783D31352076616C1C
:1007C00075653D003E3C2F6469763E3C6469763E2B
:1007D0003C6C6162656C3E5375622D4E65742028D9
:1007E000302D3135293C2F6C6162656C3E3C696E61
:1007F000707574206E616D653D7320747970653D10
:100800006E756D626572206D696E3D30206D617828
:100810003D31352076616C75653D003C68323E4166
:1008200072742D4E65743C2F68323E3C666F726D5B
:1008300020616374696F6E3D2F736176653E3C6421
:10084000697620636C6173733D723E3C6469763EE9
:100850003C6C6162656C3E4E65742028302D3132EF
:1008600037293C2F6C6162656C3E3C696E70757413
:10087000206E616D653D6E20747970653D6E756D9D
:10088000626572206D696E3D30206D61783D313258
:10089000372076616C75653D003C2F6469763E00BB
:1008A000204E6574776F726B2073657474696E6720
:1008B00073206368616E6765206F6E206E65787463
:1008C00020706F7765722D6379636C6520E2809488
:1008D00020756E706C756720616E642072652D7076
:1008E0006C756720746865206E6F64652E003C64CB
:1008F000697620636C6173733D6F6B3E53617665FF
:10090000642E00485454502F312E31203230302084
:100910004F4B0D0A436F6E74656E742D547970657C
:100920003A20746578742F68746D6C0D0A436F6E8D
:100930006E656374696F6E3A20636C6F73650D0A40
:100940000D0A3C21444F43545950452068746D6C46
:100950003E3C68746D6C3E3C686561643E3C6D6510
:10096000746120636861727365743D7574662D38B7
:100970003E3C6D657461206E616D653D766965779D
:10098000706F727420636F6E74656E743D27776943
:100990006474683D6465766963652D77696474681D
:1009A0002C696E697469616C2D7363616C653D318E
:1009B000273E3C7469746C653E534F4E4F52204144
:1009C00072742D4E6574204E6F64653C2F7469748B
:1009D0006C653E3C7374796C653E626F64797B66CE
:1009E0006F6E743A313570782F312E352027444D93
:1009F0002053616E73272C73797374656D2D75693F
:100A00002C2D6170706C652D73797374656D2C532A
:100A100065676F652055492C48656C766574696318
:100A2000612C417269616C2C73616E732D736572F8
:100A300069663B6261636B67726F756E643A2330FF
:100A400064306230373B636F6C6F723A23463446D2
:100A50003145433B6D617267696E3A303B7061644A
:100A600064696E673A323070787D2E777B666F6E80
:100A7000742D7765696768743A3830303B6C6574FB
:100A80007465722D73706163696E673A2E323265D8
:100A90006D3B746578742D7472616E73666F726DE0
:100AA0003A7570706572636173653B666F6E742D25
:100AB00073697A653A313470787D2E7720697B6668
:100AC0006F6E742D7374796C653A6E6F726D616CB4
:100AD0003B636F6C6F723A233866383537343B6C42
:100AE00065747465722D73706163696E673A2E3335
:100AF000656D3B666F6E742D73697A653A3131703E
:100B0000783B6D617267696E2D6C6566743A31323F
:100B100070783B70616464696E672D6C6566743AC9
:100B2000313270783B626F726465722D6C656674E9
:100B30003A31707820736F6C6964202333633333E8
:100B400033307D68317B666F6E742D73697A653AD8
:100B5000323470783B6D617267696E3A3138707803
:100B60002030203270783B636F6C6F723A236338A9
:100B7000623438657D68327B666F6E742D73697A76
:100B8000653A313070783B746578742D7472616E9B
:100B900073666F726D3A7570706572636173653BF1
:100BA0006C65747465722D73706163696E673A2E3B
:100BB0003134656D3B636F6C6F723A236164393910
:100BC00037383B6D617267696E3A32327078203027
:100BD000203870787D2E637B6D61782D7769647421
:100BE000683A35363070783B6D617267696E3A618C
:100BF00075746F7D2E6B7B636F6C6F723A233866F2
:100C0000383537347D6C6162656C7B646973706CF8
:100C100061793A626C6F636B3B6D617267696E3AC2
:100C2000313070782030203470783B636F6C6F7295
:100C30003A233866383537343B666F6E742D7369E6
:100C40007A653A313070783B6C65747465722D73D7
:100C5000706163696E673A2E3039656D3B746578F3
:100C6000742D7472616E73666F726D3A7570706513
:100C700072636173657D696E7075742C73656C65E4
:100C800063747B77696474683A313030253B626FF6
:100C9000782D73697A696E673A626F726465722D36
:100CA000626F783B70616464696E673A387078206F
:100CB000313070783B626F726465723A31707820BF
:100CC000736F6C696420233261323532303B626F5E
:100CD000726465722D7261646975733A3770783B1E
:100CE0006261636B67726F756E643A23323231658D
:100CF00031373B636F6C6F723A234634463145435C
:100D00003B666F6E742D73697A653A313570787D04
:100D10002E727B646973706C61793A677269643BA7
:100D2000677269642D74656D706C6174652D636F95
:100D30006C756D6E733A3166722031667220316661
:100D4000723B6761703A313070787D627574746F90
:100D50006E7B6D617267696E2D746F703A3136709B
:100D6000783B70616464696E673A31327078203222
:100D70003470783B626F726465723A303B626F72B6
:100D80006465722D7261646975733A3270783B6282
:100D900061636B67726F756E643A236164393937CA
:100DA000383B636F6C6F723A233135313331303BEE
:100DB000666F6E742D7765696768743A3830303BBA
:100DC000666F6E742D73697A653A31312E3570789D
:100DD0003B6C65747465722D73706163696E673AFC
:100DE0002E3131656D3B746578742D7472616E734C
:100DF000666F726D3A7570706572636173657D7050
:100E000072657B6261636B67726F756E643A2331E2
:100E100037313431303B626F726465723A317078C9
:100E200020736F6C696420233261323532303B624B
:100E30006F726465722D7261646975733A38707887
:100E40003B70616464696E673A313270783B666FFB
:100E50006E742D73697A653A313270783B6F7665BE
:100E600072666C6F773A6175746F7D2E6F6B7B6203
:100E700061636B67726F756E643A23316232613100
:100E8000653B626F726465723A31707820736F6C83
:100E9000696420233265376434663B636F6C6F721C
:100EA0003A233766633938613B70616464696E6701
:100EB0003A3130707820313470783B626F726465FB
:100EC000722D7261646975733A3870783B6D617226
:100ED00067696E2D626F74746F6D3A313670787D0C
:100EE0003C2F7374796C653E3C2F686561643E3CB1
:100EF000626F64793E3C64697620636C6173733D14
:100F0000633E3C64697620636C6173733D773E5346
:100F10006F6E6F723C693E4172742D4E6574204E47
:100F20006F64653C2F693E3C2F6469763E3C6831B6
:100F30003E4172742D4E6574204E6F64653C2F687F
:100F4000313E3C64697620636C6173733D6B3E4552
:100F5000746865726E65742026726172723B2044FB
:100F60004D5835313220266D6964646F743B2066BC
:100F700069726D776172652076302E332E313C2F89
:100F80006469763E004172742D4E65740000000065
:100F90000800020100000304070000000000000038
:100FA0000000000000250028002B000000000024A5
:100FB0000027002A000404040404040404020202BA
:100FC000020202030303030303010204081020408A
:100FD00080010204081020010204081020003D21B5
:100FE00011241FBECFEFD8E0DEBFCDBF11E0A0E0DF
:100FF000B1E0E2EEF7E502C005900D92AA3BB10721
:10100000D9F725E0AAEBB1E001C01D92AE36B207D8
:10101000E1F717E0C0EFD7E004C02197FE010E947E
:101020007D2ACF3ED107C9F70E94B4210C94EF2B43
:101030000C9400008CBD9DBD089590E0FC01E75329
:10104000F04F24918B54904FFC018491882399F0A8
:1010500090E0880F991FFC01E555F04FA591B491E0
:10106000FC01EF55F04F859194918FB7F894EC9176
:10107000E22BEC938FBF089520E3FC01208332968E
:10108000862F82958F706F706A3030F4605D629346
:10109000682F8111F5CF0895695CF9CFFC01818D2E
:1010A000928D08950895833081F028F4813099F06D
:1010B0008230A9F008958730A9F08830C9F08430D3
:1010C000B1F4809180008F7D03C0809180008F7784
:1010D00080938000089584B58F7784BD089584B58A
:1010E0008F7DFBCF8091B0008F778093B000089503
:1010F0008091B0008F7DF9CF1F93CF93DF93282F7E
:1011000030E0F901E357F04F8491F901E753F04FD4
:10111000D491F901EB54F04FC491CC23A9F0162FD0
:1011200081110E945308EC2FF0E0EE0FFF1FEF55E6
:10113000F04FA591B4918FB7F894EC91111108C0BC
:10114000D095DE23DC938FBFDF91CF911F9108955F
:10115000DE2BF8CF3FB7F8948091D0049091D10462
:10116000A091D204B091D30426B5A89B05C02F3F0F
:1011700019F00196A11DB11D3FBFBA2FA92F982FBD
:101180008827BC01CD01620F711D811D911D42E0B8
:10119000660F771F881F991F4A95D1F708958F9280
:1011A0009F92AF92BF92CF92DF92EF92FF924B014C
:1011B0005C010E94AA086B017C010E94AA086C19BC
:1011C0007D098E099F09683E734081059105A8F34A
:1011D00021E0821A9108A108B10888EEC80E83E0C8
:1011E000D81EE11CF11C81149104A104B10429F75B
:1011F000FF90EF90DF90CF90BF90AF909F908F9037
:1012000008952FB7F8946091CC047091CD0480912B
:10121000CE049091CF042FBF0895FC0120812EBDF4
:101220009B012150310941F051810DB407FEFDCFE2
:101230004EB55EBD4193F5CF61507109860F971F82
:101240000DB407FEFDCF2EB5FC0120830895E0917B
:10125000BB01F091BC0180819091BA01892B808300
:101260000895E091BB01F091BC0190818091BA0199
:1012700080958923808308958EBD00000DB407FEFC
:10128000FDCF8EB50895AF92BF92CF92DF92EF92CD
:10129000FF920F931F93CF93DF93CDB7DEB72897BD
:1012A0000FB6F894DEBF0FBECDBF8C017B016A0183
:1012B0008091F8048333E1F45801A40EB51EA01602
:1012C000B10609F46FC00E94310980EF0E943C0909
:1012D000812F0E943C09802F0E943C090F5F1F4F05
:1012E000F70181917F010E943C090E942709E7CF05
:1012F0005B01A40EB51E8433C1F40E943109198329
:101300000A838D2D80688B83CC8264E070E0CE01EF
:1013100001960E940D09AE14BF0409F441C0F70103
:1013200081917F010E943C09F6CF0E9431090F3F55
:10133000110509F028F419820A8384E08B830CC01C
:1013400017FD17C019820A8333E0169507953A9561
:10135000E1F7007E0C600B8386E0C816D104A0F58F
:10136000F701DE011496EA15FB0599F081918D9342
:10137000FACFC80126E0969587952A95E1F7807EF9
:1013800019830A830115104C10F48461D7CF8C6146
:10139000D5CFB6016D5F7F4FCE0101960E940D093A
:1013A0000E942709C60128960FB6F894DEBF0FBE2B
:1013B000CDBFDF91CF911F910F91FF90EF90DF9004
:1013C000CF90BF90AF90089563E070E0CE0101969A
:1013D0000E940D09F70181917F010E943C09AE1422
:1013E000BF04C1F7DDCFCF93DF931F92CDB7DEB738
:1013F000898341E050E0BE016F5F7F4F90E080E065
:101400000E9443090F90DF91CF91089590E02091C1
:10141000F804233339F40C96982F990F990F990FEC
:1014200080E008954896F8CFDA01E091BE01F0E03F
:10143000FE2FEE27E60FF71F90E0982F8827A901CF
:10144000BD018E0F9F1F0C944309CF93DF9300D0F3
:10145000CDB7DEB779836A8322E030E0AE014F5F1B
:101460005F4F60E170E00E94140A0F900F90DF91CF
:10147000CF910895CF93DF9300D0CDB7DEB77983B6
:101480006A8322E030E0AE014F5F5F4F64E070E0BE
:101490000E94140A0F900F90DF91CF910895CF937F
:1014A000DF931F92CDB7DEB72091BE0130E0322F1F
:1014B0002227260F371F90E0982F8827498341E085
:1014C00050E0BE016F5F7F4F820F931F0E94430960
:1014D0000F90DF91CF910895CF93DF931F92CDB7F7
:1014E000DEB76983DC01ED91FC910280F381E02D90
:1014F00041E050E0BE016F5F7F4F09950F90DF9193
:10150000CF910895CF93DF931F92CDB7DEB7698354
:10151000DC01ED91FC910280F381E02D41E050E08F
:10152000BE016F5F7F4F09950F90DF91CF910895B6
:10153000FC019485FB018485981303C081E09430FD
:1015400008F080E00895CF93DF931F92CDB7DEB708
:101550006983DC01ED91FC910280F381E02D41E093
:1015600050E0BE016F5F7F4F09950F90DF91CF91E3
:101570000895FC01768765870895DC01ED91FC9163
:1015800002A0F3A1E02D099591E089270895862F07
:10159000089581E08627089521E0FC018485843048
:1015A00008F020E0822F0895089544E050E0BC0147
:1015B0008FE090E00C94430944E050E0BC0185E0EA
:1015C00090E00C94430944E050E0BC0181E090E0DD
:1015D0000C9443090895FF920F931F93CF93DF93C9
:1015E000EB01FC01178A168A2A81211109C02B817F
:1015F000211106C02C81211103C02D81222301F16C
:1016000041155105E9F08A01FC01F08C80E591E07B
:101610000E941A08AE014E5F5F4F24E030E06CE09C
:1016200070E08F2D0E94140AB8018F2D0E94250AA8
:1016300081E090E0DF91CF911F910F91FF9008958D
:1016400080E0F7CFCF93DF9320E0AAE0EC01388170
:1016500030533A30C8F4FC0150E040E0CF01319102
:10166000B0EDB30FBA30A0F4A49FC001A59F900DB8
:101670001124AC0140535109430F511D37FD5A95B8
:101680004F3F510559F350F380E0DF91CF9108951A
:10169000EB014993BE01233029F0EC0188818E32A1
:1016A00099F7CF012F5F243089F681E0EECFFC015E
:1016B000848595850895FC0184899589089523E999
:1016C00031E0FC0131832083FB014089518962892B
:1016D0007389FC0142835383648375830895DC011D
:1016E000ED91FC91048CF58DE02D0994089590E026
:1016F00080E008958F929F92AF92BF92EF92FF92F7
:101700000F931F93CF93DF93CDB7DEB7A1970FB69B
:10171000F894DEBF0FBECDBF7C01262F30E050E035
:1017200040E019A28E010F5D1F4F8AE0882E912C98
:10173000A12CB12CCA01B901A50194010E944C2A27
:10174000605DD8016E938D0121153105410551056C
:1017500089F790E080E0109789F0C701FD010190C2
:101760000020E9F73197AF014A1B5B0BD701ED91E0
:10177000FC910280F381E02DB8010995A1960FB686
:10178000F894DEBF0FBECDBFDF91CF911F910F91B7
:10179000FF90EF90BF90AF909F908F9008958F92A1
:1017A0009F92AF92BF92CF92DF92EF92FF920F93F0
:1017B0001F93CF93DF937C01EB016C0182E0C80E95
:1017C000D11C4701E5E08E0E911C10E000E0F6010F
:1017D00061916F01CE010E947A0B5C01E881F98171
:1017E0000190F081E02D6EE2CE0109958A0D9B1DDE
:1017F000080F191FC814D90451F7F7016581CE01EC
:101800000E947A0B800F911FDF91CF911F910F9152
:10181000FF90EF90DF90CF90BF90AF909F908F9010
:101820000895EF92FF920F931F93CF937C018B014A
:10183000C0E0F80161918F01C7010E947A0BC330AB
:1018400021F06EE2C7010E94A30ACF5FC43089F77E
:10185000CF911F910F91FF90EF900895FF920F93FA
:101860001F93CF93DF930AEF14E0D0E0C0E0F801BC
:10187000F1908F01CE010E94042AF81621F06F2DFD
:10188000CE010E940C2A2196C131D10581F78AEF41
:1018900094E0DF91CF911F910F91FF9008950F93E6
:1018A0001F93CF93DF930AEF14E0D0E0C0E0CE01A6
:1018B0000E94042AF80181938F012196C131D1053C
:1018C000B1F78091FA04883AB9F140910F01509133
:1018D000100160911101709112018091130190919A
:1018E0001401A0911501B091160128EA2093FA0481
:1018F0001092FB041092FC041092FD0421E020934E
:10190000FE044093FF04509300056093010570931B
:1019100002052FEF20930305109204051092050590
:10192000109206058093070590930805A09309057A
:10193000B0930A050E942E0C8091FB048F77809350
:10194000FB048091FC048F708093FC048091FD0463
:101950008F708093FD0481E09091FE04911101C08D
:1019600080E08093FE04DF91CF911F910F91089545
:10197000AF92BF92CF92DF92EF92FF920F931F939D
:10198000CF93DF9300D000D0CDB7DEB78C016B01D1
:101990007A018091F8048333E9F45B016801C40E95
:1019A000D51EC016D106A9F10E9431098FE00E9410
:1019B0003C09812F0E943C09802F0E943C090F5F47
:1019C0001F4F80E00E943C09F50181935F010E9456
:1019D0002709E7CF843369F50E94310919830A8307
:1019E0008F2D8F778B83EC8264E070E0CE010196BF
:1019F0000E940D09A70170E060E0C6010E94BC2BA7
:101A0000E114F10421F0B701C6010E940D090E9402
:101A10002709C7010F900F900F900F90DF91CF9182
:101A20001F910F91FF90EF90DF90CF90BF90AF90FC
:101A300008950E9431090F3F110509F030F4198211
:101A40000A831B8263E070E0D1CF17FD0BC01982BF
:101A50000A8333E0169507953A95E1F7007E086012
:101A60000B83F0CFC80126E0969587952A95E1F77C
:101A7000807E19830A830115104C18F480618B83D2
:101A8000E1CF8861FCCFCF93DF931F92CDB7DEB754
:101A90002091BE0130E0322F2227260F371F90E021
:101AA000982F882741E050E0BE016F5F7F4F820F83
:101AB000931F0E94B80C89810F90DF91CF910895F8
:101AC000CF93C82F462F61E070E00E944F0A61E07B
:101AD00070E08C2F0E94430D8111F9CFCF910895B2
:101AE000CF93C82F80E591E00E941A0868E070E06B
:101AF0008C2FCF910C94600DCF93C82F80E591E08F
:101B00000E941A0860E170E08C2FCF910C94600D58
:101B1000CF93DF93EC01888D843020F40E947C0DFC
:101B200084E0888FDF91CF91089563E070E00C949A
:101B3000430DCF93C82F80E591E00E941A088C2FA7
:101B4000CF910C94950DEF92FF920F931F93CF932B
:101B50007C0100EF14E0C0E0F801219131918F0188
:101B6000F701848195812817390729F0CF5FC430A8
:101B700099F780E006C08C2F0E94990D8431B1F74F
:101B800081E0CF911F910F91FF90EF900895CF9337
:101B9000DF93EC018C858430D0F40E94990D843160
:101BA00089F0882379F0883169F021E08C3159F48B
:101BB000E881F9810084F185E02DCE01099521E0CD
:101BC000892B09F420E0822FDF91CF91089580E0E6
:101BD000FBCFCF92DF92EF92FF92CF93DF93EC0196
:101BE0008C85843068F40E94700D0E9401096B019D
:101BF0007C018C850E94990D811109C084E08C873D
:101C0000DF91CF91FF90EF90DF90CF90089561E04A
:101C100070E080E090E00E94CF080E940109AB01D3
:101C2000BC014C195D096E097F098D859E85B0E068
:101C3000A0E0481759076A077B07D8F28C850E94F5
:101C40007C0DDCCFCF93FC01C08D80E591E00E943C
:101C50001A0860E270E08C2F0E94600D62E070E074
:101C60008C2F0E94430D84FD16C062E070E08C2F23
:101C70000E94430D83FF0AC048E162E070E08C2FB0
:101C80000E944F0A80E090E0CF91089580E591E0B6
:101C90000E941A08E3CF40E162E070E08C2F0E94BE
:101CA0004F0A81E0F0CFCF93DF931F92CDB7DEB71D
:101CB00041E050E0BE016F5F7F4F90E080E00E9406
:101CC000B80C89810F90DF91CF910895CF93DF9366
:101CD000C4E1D0E00E94530E882361F061E070E01F
:101CE00080E090E00E94CF082197A1F780E0DF918B
:101CF000CF91089581E0FBCF1F93CF93DF9300D066
:101D0000CDB7DEB760E372E080E090E00E94CF08DC
:101D10001FB7F8948091BD01811124C0EFEBFFE063
:101D20008491E3EDFFE09491E82FF0E0EE0FFF1FC8
:101D3000E555F04FA591B491EC91E92321F461E0D0
:101D40008AE00E947C088AE00E941D088CB58061B0
:101D50008CBD8CB580648CBD8DE00E941D088BE02D
:101D60000E941D088091BD018F5F8093BD011FBF40
:101D700080910001282F30E0F901EB54F04FE491FD
:101D8000F0E0EE0FFF1FEF55F04F45915491509347
:101D9000BC014093BB01F901E753F04FE491E0939C
:101DA000BA010E941D080E94270980E591E00E9467
:101DB0001A0884E38093F80480E80E94F3090E94E3
:101DC000660E882309F448C088E00E94F3090E9447
:101DD000530E883009F040C080E10E94F3090E9450
:101DE000530E8031C9F580E00E94F3090E94530E22
:101DF000182F811131C041E050E0BE016F5F7F4F6D
:101E00008FE190E00E94B80C8981833029F580E44D
:101E10008093BE0142E06EE170E0812F0E944F0A84
:101E200042E06FE170E0812F0E944F0A1F5F143083
:101E300089F740E06EE170E0812F0E944F0A40E098
:101E40006FE170E0812F0E944F0A1F5F183089F701
:101E500081E08093F9046AC087E38093F80480E806
:101E60000E94F3090E94660E882329F188E00E94EF
:101E7000F3090E94530E8830F1F480E10E94F309C7
:101E80000E94530E182F8031B1F480E00E94F309B4
:101E90000E94530E81110FC041E050E0BE016F5F00
:101EA0007F4F89E390E00E94B80C8981843019F457
:101EB0001093BE01CDCF83E38093F80480E80E94A5
:101EC000F3090E94660E882371F180E10E94F309F4
:101ED0000E94530E803139F582E10E94F3090E947D
:101EE000530E823101F580E00E94F3090E94530EE7
:101EF000811119C084E08093BE0115E51A8341E089
:101F000050E0BE016E5F7F4F8BE190E00E9443097D
:101F1000198341E050E0BE016F5F7F4F8AE190E09E
:101F20000E94430995CF1092F80480E00F900F9023
:101F3000DF91CF911F910895CF92DF92EF92FF92A0
:101F40000F931F93CF93DF93EC018B017A0169010B
:101F50008091F904882371F180E591E00E941A08CC
:101F600046E050E06FE571E089E090E00E944309AF
:101F7000CE0102960E94D50AC70102960E94E30A8A
:101F8000C60102960E94DC0AF80182819381A48135
:101F9000B58180932B0590932C05A0932D05B093CC
:101FA0002E05DF91CF911F910F91FF90EF90DF9061
:101FB000CF9008950E947C0E882399F3CDCF1F9374
:101FC000CF93DF931F92CDB7DEB7182F80E591E056
:101FD0000E941A08812F0E94060A27E0129FF00132
:101FE0001124EC52FB4F22813381377041E050E0E5
:101FF000BE016F5F7F4F820F931F0E94B80C8981D3
:102000000F90DF91CF911F910895FC01808D843056
:1020100040F4218D328D232B21F00E94DF0F90E0C0
:1020200008958FEF9FEF0895CF93DF93FC012485F0
:10203000243028F08FEF9FEFDF91CF910895EC01CE
:102040000190F081E02D0084F185E02D0995892B28
:1020500089F38C850E94DF0F90E0EECFDA01E091EA
:10206000BE01F0E0FE2FEE27E60FF71F90E0982F5D
:102070008827A901BD018E0F9F1F0C94B80C8F9269
:102080009F92AF92BF92CF92DF92EF92FF921F93F7
:10209000CF93DF93CDB7DEB72C970FB6F894DEBFA2
:1020A0000FBECDBF2091F80414E0222329F16B016B
:1020B0007C0180E591E00E941A085E0127E0A20EF3
:1020C000B11C450110E0812F0E94950DF401819310
:1020D0004F01882349F11F5F1430A9F710E0F50183
:1020E00081915F018D31D9F08831C9F08A518230F8
:1020F000B0F01F5F143099F7812F2C960FB6F8942B
:10210000DEBF0FBECDBFDF91CF911F91FF90EF904B
:10211000DF90CF90BF90AF909F908F90089560E137
:1021200070E0812F0E94600DA12EB12CF501EE0F01
:10213000FF1FE051FB4F1182108283EE93E0019765
:10214000F1F742E870E060E0812F0E944F0A4FEF04
:1021500062E070E0812F0E944F0AB601C114D104E1
:1021600091F4809103019091040101968115F0ECA6
:102170009F0708F45CC09093040180930301609171
:10218000030170910401812F0E943A0A86E0E7E181
:10219000F1E0DE01119601900D928A95E1F7F701C9
:1021A00083818F778C8384818D8385818E83A70142
:1021B0004E5F5F4F24E030E06CE070E0812F0E94C2
:1021C000140AB601812F0E94250A26E030E0AE01F4
:1021D0004F5F5F4F66E070E0812F0E94140A61E05C
:1021E00070E0812F0E94600D27E02A9DC0012B9D89
:1021F000900D11249C012C523B4F7901F901118261
:10220000108222E030E0AE01455F5F4F68E270E08F
:10221000812F0E942E108B859C85982789279827CF
:10222000F7019383828316821582148265CF80E042
:1022300090ECA1CFCF92DF92EF92FF920F931F937A
:10224000CF93DF9300D000D000D0CDB7DEB78C01A4
:102250006B017A01FC01808D843010F40E947C0DAA
:1022600083E991E09A838983F60182819381A48135
:10227000B5818B839C83AD83BE83B701CE0101966C
:102280000E943F10F801808F8430A0F4F586E48628
:10229000128E118E81E026960FB6F894DEBF0FBE27
:1022A000CDBFDF91CF911F910F91FF90EF90DF9005
:1022B000CF90089580E0EFCFAF92BF92CF92DF92A0
:1022C000EF92FF920F931F93CF93DF9300D000D034
:1022D00000D0CDB7DEB7082F6B0180E591E00E94FA
:1022E0001A089E012F5F3F4F7901590110E0812F9D
:1022F0000E94950DF50181935F01882341F11F5FD5
:102300001430A9F710E0F70181917F018D31D1F0F0
:102310008831C1F08A518230A8F01F5F143099F7DC
:10232000812F26960FB6F894DEBF0FBECDBFDF918A
:10233000CF911F910F91FF90EF90DF90CF90BF90C2
:10234000AF90089560E170E0812F0E94600DE12E52
:10235000F12CF701EE0FFF1FE051FB4F11821082AD
:1023600083EE93E00197F1F7402F70E060E0812F5A
:102370000E944F0A4FEF62E070E0812F0E944F0AE7
:10238000B601CD2889F48091030190910401019652
:102390008115F0EC9F0798F190930401809303015D
:1023A0006091030170910401812F0E943A0A61E05B
:1023B00070E0812F0E94600D27E02E9DC0012F9DAF
:1023C000900D11249C012C523B4F7901F90111828F
:1023D000108222E030E0AE014B5F5F4F68E270E0B8
:1023E000812F0E942E108D819E8198278927982702
:1023F000F7019383828316821582148291CF80E045
:1024000090ECCACFCF92DF92EF92FF921F93CF93BF
:10241000DF93EC017B016A018C85843048F40E94D3
:10242000990D882319F08C850E94700D84E08C87AB
:10243000F70182819381A481B5810097A105B1053F
:1024400051F490E080E0DF91CF911F91FF90EF90E9
:10245000DF90CF9008958F3F9F4FAF4FBF4F89F3CD
:102460008091F804811103C084E08C87EACF70E08A
:1024700060E081E20E945C11182F8C87843008F79D
:1024800080E591E00E941A08A7014E5F5F4F24E0AB
:1024900030E06CE070E0812F0E94140AB601812FB9
:1024A0000E94250A64E070E0812F0E94600D0E9466
:1024B00001096B017C018C850E94990D873109F11E
:1024C0008C31F9F0882309F4BCCF0E940109AB01DB
:1024D000BC014C195D096E097F098D859E85B0E0B0
:1024E000A0E084179507A607B70738F061E070E011
:1024F00080E090E00E94CF08DECF8C850E947C0DAA
:10250000B3CF81E090E09FCF0F931F93CF93DF93E2
:10251000EC018B01888D843010F40E947C0D809139
:10252000F804811107C094E0988FDF91CF911F913B
:102530000F910895B80182E00E945C11888F843069
:1025400030F41D870C871A8E198E81E0EECF80E063
:10255000ECCF0F931F93CF932091F804222349F1DE
:102560008C01FC016481758181E20E945C11C82F9D
:102570008430F8F480E591E00E941A088C2F0E94C4
:10258000950D833131F08C2FCF911F910F910C94C9
:10259000700D62E070E08C2F0E94600DF801848164
:1025A0009581EC2FF0E0EE0FFF1FE051FB4F918380
:1025B0008083CF911F910F9108957F928F929F9268
:1025C000AF92BF92CF92DF92EF92FF920F931F9341
:1025D000CF93DF9300D0CDB7DEB7782E8B014A01C1
:1025E000590122E030E0AE014F5F5F4F64E270E0DE
:1025F0000E942E10E980FA80FE24EF24FE24E00ED3
:10260000F11E970137704091F804072D10E0433315
:1026100009F042C0085F1F4F102F0027110F110F44
:10262000110FC901800F911F4733C9F1A9014A0D4C
:102630005B1D4130584098F160E078E06B01C21AB0
:10264000D30AA601B4010E944309A5014C195D09F2
:10265000B4016C0D7D1DC8010E944309EA0CFB1CEE
:10266000F982EA8222E030E0AE014F5F5F4F64E220
:1026700070E0872D0E94140A0F900F90DF91CF9188
:102680001F910F91FF90EF90DF90CF90BF90AF9090
:102690009F908F907F900895005F1F4FBDCFA50141
:1026A000B401DACFEF92FF921F93CF93DF9300D064
:1026B000CDB7DEB7182F22E030E0AE014F5F5F4F9D
:1026C00060E270E00E942E10E980FA80FE24EF2480
:1026D000FE2422E030E0AE014F5F5F4F60E270E029
:1026E000812F0E942E1089819A8198278927982707
:1026F000E816F90689F487E0189FF0011124EC52DE
:10270000FB4FF582E482C7010F900F90DF91CF91CC
:102710001F91FF90EF9008957C01DBCF1F93CF9323
:10272000DF93182F80E591E00E941A08812F0E9404
:102730005213EC01812F0E94950D873121F08C31CD
:1027400011F0D0E0C0E0CE01DF91CF911F9108954C
:10275000CF93DF93EC018C85843060F40E94990D57
:10276000873111F08C3131F48C850E948E138115E4
:10277000984088F3DF91CF910895FC0184858430DF
:1027800010F40C948E1390E080E00895CF92DF92C5
:10279000EF92FF921F93CF93DF93182F7B01EA01F3
:1027A0004130584010F0C0E0D8E080E591E00E9450
:1027B0001A08812F0E9452136C01812F0E94950DDF
:1027C000873111F08C3121F5CC16DD0670F380E5F0
:1027D00091E00E941A089E01A70170E060E0812F3D
:1027E0000E94DD1260E270E0812F0E94600D62E0C5
:1027F00070E0812F0E94430D84FD0DC0812F0E9447
:10280000950D8823B9F080E591E00E941A08EFCF7A
:10281000D0E0C0E0DCCF40E162E070E0812F0E94B8
:102820004F0ACE01DF91CF911F91FF90EF90DF9083
:10283000CF900895D0E0C0E0F4CF0F931F93CF93D3
:10284000DF938C01EA01FC018485843048F40E9406
:10285000C613892B39F481E090E0F80193838283D9
:10286000D0E0C0E0CE01DF91CF911F910F9108958C
:10287000CF92DF92EF92FF920F931F93CF93DF934C
:10288000CDB7DEB7A0970FB6F894DEBF0FBECDBFB1
:102890006C017B01C7010E94C7298823A9F08132FE
:1028A00008F080E2082F10E0A801B701CE010196E0
:1028B0000E94BE29A801BE016F5F7F4FC6010E9422
:1028C0001D14E00EF11EE6CFA0960FB6F894DEBF01
:1028D0000FBECDBFDF91CF911F910F91FF90EF9071
:1028E000DF90CF9008959F92AF92BF92CF92DF92E8
:1028F000EF92FF920F931F93CF93DF938C015B01B5
:10290000942EE52EFC01C688D788F08C80E591E0F6
:102910000E941A088F2D0E945213C92DDE2D8C178C
:102920009D0708F4EC019E01A501B6018F2D0E94C0
:10293000DD12F801868997898C0F9D1F978B868BF6
:10294000CE01DF91CF911F910F91FF90EF90DF901B
:10295000CF90BF90AF909F900895CF93DF93C82FF3
:10296000CC2371F0DC2FC13108F0D0E14D2F50E0C5
:102970006DE171E087E495E00E947314CD1BF0CF08
:10298000DF91CF910895EF92FF920F931F93CF9312
:10299000DF93162F082FEC01862F8150990B7C01B5
:1029A0008C2F801BFE016491662349F021968E15C1
:1029B0001F042CF487E495E00E946C0AF1CF181BE9
:1029C000812FDF91CF911F910F91FF90EF900C9489
:1029D000AD14FF920F931F93CF93DF9300D0CDB729
:1029E000DEB7F82E22E030E0AE014F5F5F4F66E2C7
:1029F00070E00E942E1009811A81102701271027EC
:102A000022E030E0AE014F5F5F4F66E270E08F2D55
:102A10000E942E1089819A81982789279827081764
:102A2000190749F4C8010F900F90DF91CF911F91C2
:102A30000F91FF9008958C01E3CF1F93CF93DF9305
:102A4000182F87E0189FE0011124CC52DB4F8881BA
:102A50009981009761F480E591E00E941A08812F26
:102A60000E94E9142E81821B910999838883DF914A
:102A7000CF911F910895AF92BF92CF92DF92EF92C4
:102A8000FF920F931F93CF93DF93EC017B01809113
:102A9000F804811120C01B821A8288EE93E0A0E026
:102AA000B0E08C839D83AE83BF8381E391E0998303
:102AB000888384E08C8788EE93E09E878D87CE01A3
:102AC000DF91CF911F910F91FF90EF90DF90CF900A
:102AD000BF90AF90089580EFC82E84E0D82E10E00C
:102AE00094E0B92EA12CD6012D913D916D01F701F5
:102AF000848195812817390791F4812F0E94990DBF
:102B0000082F873111F08C3139F5812F0E941D1566
:102B1000892B59F50C3119F4812F0E94700D1F5F1C
:102B2000143009F7A11008C0D701ED91FC91008481
:102B3000F185E02DC70109951B821A8288EE93E08A
:102B4000A0E0B0E08C839D83AE83BF8381E391E0FE
:102B500099838883BC86AFCF843149F08111DFCF60
:102B6000F601329711821082DACFB12ED8CFAA2483
:102B7000A394D5CF8F929F92AF92BF92CF92DF92C4
:102B8000EF92FF921F93CF93DF93CDB7DEB72F97CE
:102B90000FB6F894DEBF0FBECDBF5C014B017A01CA
:102BA0008091F8048823A1F1B501CE0101960E941D
:102BB0003B1580EFC82E84E0D82E10E0F60121915D
:102BC00031916F01F501848195812817390751F4FE
:102BD000812F0E94990D873129F4A701B401812F1B
:102BE0000E94C6131F5F143049F7C7012F960FB616
:102BF000F894DEBF0FBECDBFDF91CF911F91FF9044
:102C0000EF90DF90CF90BF90AF909F908F900895FE
:102C1000F12CE12CEACFFC018485843010F40C9473
:102C20001D1590E080E008954F925F927F928F9201
:102C30009F92AF92BF92CF92DF92EF92FF920F934B
:102C40001F93CF93DF9300D0CDB7DEB7782E6B0103
:102C50004A01A82EB12C27E0829FC0011124FC015B
:102C6000EC52FB4F7F010081118180E591E00E94D1
:102C70001A080815190554F4872D0E94E914F70164
:102C800026818C01021B1109118300830115110596
:102C900019F5872D0E94950D843159F0882349F04C
:102CA00001E010E08C3111F410E000E01195019585
:102CB0001109C8010F900F90DF91CF911F910F91D3
:102CC000FF90EF90DF90CF90BF90AF909F908F904C
:102CD0007F905F904F900895801691060CF48401C8
:102CE00087E08A9DF0018B9DF00D1124EC52FB4F83
:102CF000E280F380C114D10451F12701F7E05F2293
:102D0000872D0E94060A840D951D2091F804273313
:102D100009F453C09801240D351D2130384008F4C2
:102D20004CC020E038E0490184189508A401B601A0
:102D30000E94B80C2601480C591C6801C818D90813
:102D4000872D0E94060AA601B2010E94B80CE00E6F
:102D5000F11E87E08A9DF0018B9DF00D1124EC524D
:102D6000FB4FF382E28220813181201B310B3183C2
:102D700020838681800F912F911D8A3F910510F449
:102D8000232BF1F487E08A9DF0018B9DF00D112437
:102D9000EC52FB4F1682F982EA8222E030E0AE016B
:102DA0004F5F5F4F68E270E0872D0E94140A60E475
:102DB00070E0872D0E94600D7CCFA801B601C5CFC1
:102DC000868377CFCF93DF93FC01218D328D211540
:102DD000310529F48FEF9FEFDF91CF910895EC013A
:102DE000808D4217530708F0A9010E941416181687
:102DF000190684F7298D3A8D281B390B3A8F298FB4
:102E0000EBCF0F931F93CF93DF931F92CDB7DEB716
:102E1000FC01218D328D232B41F48FEF9FEF0F901A
:102E2000DF91CF911F910F9108958C0141E050E007
:102E3000BE016F5F7F4FFC01808D0E941416181633
:102E400019065CF7F801818D928D0197928F818F21
:102E5000898190E0E4CFCF93DF931F92CDB7DEB7A7
:102E600041E050E0BE016F5F7F4FFC0184850E940E
:102E700014161816190634F4898190E00F90DF912A
:102E8000CF9108958FEF9FEFF9CFFC0184858430B7
:102E900010F40C94141690E080E008950F931F93A3
:102EA000CF93DF9300D0CDB7DEB7FC01248524306B
:102EB000E0F48C0180E591E00E941A0822E030E005
:102EC000AE014F5F5F4F60E170E0F80184850E94C2
:102ED0002E1089819A819827892798270F900F9023
:102EE000DF91CF911F910F91089590E080E0F6CF90
:102EF0000F931F93CF93DF9300D0CDB7DEB7FC01C4
:102F000024852430E0F48C0180E591E00E941A08C9
:102F100022E030E0AE014F5F5F4F64E070E0F80107
:102F200084850E942E1089819A8198278927982765
:102F30000F900F90DF91CF911F910F91089590E026
:102F400080E0F6CFDC0183E991E08D939D9384E0EE
:102F5000FB0101900D928A95E1F70895EF92FF929F
:102F60000F931F93CF93DF9300D000D0CDB7DEB780
:102F70008C017B01FB0184858430A8F083E991E01A
:102F8000F801918380831282138214821582C80112
:102F90000F900F900F900F90DF91CF911F910F9195
:102FA000FF90EF90089580E591E00E941A0824E0D8
:102FB00030E0AE014F5F5F4F6CE070E0F701848559
:102FC0000E942E10BE016F5F7F4FC8010E94A217A2
:102FD000DECF0F931F93CF93DF93CDB7DEB7289744
:102FE0000FB6F894DEBF0FBECDBF8C01D801599645
:102FF0004D915C915A974115510551F0ED91FC911D
:10300000048CF58DE02D70E060E0C8010995EECFED
:10301000F801808D0E941D15892BB1F148E050E028
:10302000BE016F5F7F4FD80158968C910E94141695
:1030300018161906F4F4D801509684E0FE01319672
:1030400001900D928A95E1F78D8190E0982F882765
:103050002E81820F911DF801958B848B8F81282FF3
:1030600030E0322F22278885820F932F911D928F77
:10307000818F28960FB6F894DEBF0FBECDBFDF91CB
:10308000CF911F910F91089590E080E0F2CF4F9281
:103090005F926F927F928F929F92AF92BF92CF92E8
:1030A000DF92EF92FF920F931F93CF93DF93CDB7F1
:1030B000DEB763970FB6F894DEBF0FBECDBF7C01BD
:1030C0006B013A01FB0120E090E080E06AE0319181
:1030D000332309F461C040ED430F4A3008F04DC07E
:1030E000689FA001699F500D1124CA01C097830FEA
:1030F000911D37FD9A958F3F910549F340F3F701F4
:1031000042815381648175818091370590913805A2
:10311000A0913905B0913A05481759076A077B070E
:1031200009F40DC28701085F1F4F0E9401096F70EB
:1031300077277C5FC8010E948412813009F004C2A5
:1031400083E991E09A838983F70182819381A48145
:10315000B5818B839C83AD83BE8345E350E0BE0184
:103160006F5F7F4FC8010E94EB0A892BA9F5D12C14
:10317000C12CC8010E94880D17C03E3209F0BFCF94
:10318000233009F4BCCFD301A20FB11D12968C934A
:103190002F5F90E080E09BCF233009F0B0CFF301A8
:1031A0008583CC24C394D12CC60163960FB6F894C2
:1031B000DEBF0FBECDBFDF91CF911F910F91FF906A
:1031C000EF90DF90CF90BF90AF909F908F907F90C7
:1031D0006F905F904F9008950E940109F7017783E7
:1031E000668342E050E0B7016A5F7F4FC8010E94EA
:1031F000731481E090E09A83898342E050E0BE013D
:103200006F5F7F4FC8010E94731480E091E09A8342
:10321000898342E050E0BE016F5F7F4FC8010E948A
:1032200073141A82198242E050E0BE016F5F7F4F33
:10323000C8010E94731442E050E0BE016F5F7F4FEF
:10324000C8010E94731442E050E0BE016F5F7F4FDF
:10325000C8010E9473145601F6018081882301F190
:103260006501F60181912F01882311F08E32B1F4AE
:1032700046018A189B081814190474F48D8641E0DD
:1032800050E0BE01635F7F4FC8010E947314A40128
:10329000B501C8010E9473145201DECF6201E1CF73
:1032A0001D8641E050E0BE01635F7F4FC8010E9470
:1032B0007314C12CDD24D394DA82C98242E050E039
:1032C000BE016F5F7F4FC8010E947314DA82C9820A
:1032D00042E050E0BE016F5F7F4FC8010E9473144F
:1032E000C8010E94220E892B09F441CFF3E0AF2ED2
:1032F000B12C230122E0420E511CD4C0F7014281BF
:10330000538164817581808D918DA28DB38D481715
:1033100059076A077B0709F008C1848D958DC59709
:1033200009F003C181A192A15DEFC52EDD24DA94DD
:103330000C970CF4ADC04CE050E0BE016F5F7F4FC6
:10334000C8010E94E2168B819C81982789279827C3
:103350009A8B898BF7014681578129813A814217DF
:10336000530709F0E7C097FFE5C08F7092703BEFFD
:10337000C32EDD24DA94892B09F08AC06F8078840B
:103380007624672476242AEFC22EDD24DA94611491
:10339000710409F47DC0D12CC12C8D819E819827A8
:1033A00089279827C816D906F8F441E050E0BE01F5
:1033B000635F7F4FC8010E94E2164D85442331F0C0
:1033C00050E070E060E0C8010E94E2168D85811136
:1033D000ECCF44E050E070E060E0C8010E94E216EB
:1033E000FFEFCF1ADF0AD9CF912C812C41E050E0BA
:1033F000BE016D5E7F4FC8010E94E2164B89842F8B
:10340000807C09F06CC0442331F050E070E060E053
:10341000C8010E94E2168B898111E8CF42E050E09A
:10342000BE01615F7F4FC8010E94E21642E050E09A
:10343000BE01635F7F4FC8010E94E21644E050E086
:1034400070E060E0C8010E94E21642E050E0BE0178
:103450006F5E7F4FC8010E94E2168F859889498967
:103460005A898115914009F043C0CD84DE84DC2463
:10347000CD24DC2481E0C816D104D1F54115544097
:1034800009F04AC044E050E0B201C8010E94E216CF
:1034900021E0A21AB10809F46CCEFFEFCF16DF06C7
:1034A00009F067CE0E9401093B014C01C8010E944E
:1034B000E917181619060CF421CF0E9401096619A4
:1034C000770988099909693873418105910548F59B
:1034D00062E370E080E090E00E94CF08E7CF41E037
:1034E00050E070E060E0C8010E94E2161B8A93CFB2
:1034F00054274527542770E060E0C8010E94E21677
:10350000FFEF8F1A9F0A6814790409F06FCF96EFC6
:10351000C92EDD24DA94BCCFE7EFCE2EDD24DA9479
:10352000B7CFCC24CA94DC2CB3CF6EEFC62EDD24EB
:10353000DA94AECF4CEFC42EDD24DA94A9CF8EEF0F
:10354000C82EDD24DA9430CED12CC12C2DCECF92D2
:10355000DF92EF92FF920F931F93CF93DF93CDB73C
:10356000DEB7AF970FB6F894DEBF0FBECDBF7C01BC
:103570006A0103E911E01A8309831C861B8688EE21
:1035800093E0A0E0B0E08D879E87AF87B88B89E697
:1035900091E09A878987188F0F8B198E1A8E1B8E50
:1035A0001C8E84E089A31BA70AA71CA61DA61EA625
:1035B0001FA680912B0590912C05A0912D05B0910F
:1035C0002E058EA39FA3A8A7B9A78B839C83AD8349
:1035D000BE8318861F82AE01465D5F4FCE01019605
:1035E0000E94471881309105B1F4D701ED91FC910B
:1035F0000488F589E02D1DA30CA38CA59DA5AEA57F
:10360000BFA58EA39FA3A8A7B9A7A601BE016C5D05
:103610007F4FC7010995AF960FB6F894DEBF0FBE76
:10362000CDBFDF91CF911F910F91FF90EF90DF9071
:10363000CF900895CF92DF92EF92FF920F931F9356
:10364000CF93DF93CDB7DEB7AF970FB6F894DEBF59
:103650000FBECDBF8C016B017A0183E991E09A83A3
:1036600089831B821C821D821E821C861B8648EE5B
:1036700053E060E070E04D875E876F87788B29E6C6
:1036800031E03A872987988F8F8B198E1A8E1B8E7F
:103690001C8E24E029A39BA78AA71CA61DA61EA6F4
:1036A0001FA6D8011C968C91843060F40E94990D5D
:1036B000882321F0F80184850E94700D84E0D801F0
:1036C0001C968C9380912B0590912C05A0912D0533
:1036D000B0912E058EA39FA3A8A7B9A78B839C8327
:1036E000AD83BE8318861F82AE01465D5F4FB60173
:1036F000CE0101960E9447180097C1F0D801ED91C4
:10370000FC910684F785E02D83E991E09DA38CA3CD
:103710008CA59DA5AEA5BFA58EA39FA3A8A7B9A75D
:10372000A701BE016C5D7F4FC8010995AF960FB62A
:10373000F894DEBF0FBECDBFDF91CF911F910F91E7
:10374000FF90EF90DF90CF9008953F924F925F925D
:103750006F927F928F929F92AF92BF92CF92DF92A1
:10376000EF92FF920F931F93CF93DF93CDB7DEB706
:10377000EA970FB6F894DEBF0FBECDBF7C012A01D9
:103780003B0169010E9401094B015C0187010D5B4E
:103790001F4FC8010E94E917181619069CF00E94D5
:1037A0000109681979098A099B09461657066806AE
:1037B000790608F466C162E370E080E090E00E9460
:1037C000CF08E7CF42E250E0BE016F5F7F4FC801F4
:1037D0000E94E21689818230D1F0312C832DEA9645
:1037E0000FB6F894DEBF0FBECDBFDF91CF911F9112
:1037F0000F91FF90EF90DF90CF90BF90AF909F9090
:103800008F907F906F905F904F903F900895F80158
:10381000848995898334910501F76D817E818F813B
:1038200098850E94832A4B015C01F6018082918277
:10383000A282B38246E050E0B701685F7F4FCE01BD
:103840004D960E94AF2B892B41F6F7018081918123
:10385000A281B38188169906AA06BB0608F4BDCFDB
:1038600084819581A681B78188159905AA05BB0534
:1038700008F4B3CF89899A89AB89BC8986879787F1
:10388000A08BB18B4EEC50E070E060E0C8010E946C
:10389000E216312CC701829698AB8FA7F701B69636
:1038A000FAABE9AB08969CAB8BAB67019AE1C90E0A
:1038B000D11CBD96FEABEDABC701429698AF8FAB66
:1038C000FD97FAAFE9AF4701FEE18F0E911CF801B9
:1038D000818D928D181619060CF080CFC8010E94B8
:1038E00001178333910509F4B2C014F581309105B5
:1038F00009F464C044F4892B51F3C8010E940117F4
:10390000AC01552775C08330910509F462C0069754
:10391000A1F7C8010E940117B82E44E050E0B4019D
:10392000C8010E94E216EB2DE450FF0BAF0160C00E
:103930008A33910509F45FC084F585339105B1F1AF
:10394000C697D9F6C8010E9401175C01B601CE01E5
:1039500089960E94A2178BA59CA5ADA5BEA5892B13
:103960008A2B8B2BB1F0EDA9FEA94080518062809B
:103970007380B601CE0183960E94A2178DA19EA1ED
:10398000AFA1B8A5A501481659066A067B0609F03D
:10399000B8CF44E050E0B60118C08B33910509F46C
:1039A00040C08F3F910509F492CFA7CFC8010E9474
:1039B0000117C8010E940117382E89CFC8010E9443
:1039C000011744E050E06FA978ADC8010E94E216EB
:1039D0007ECFC8010E940117B82E44E050E069ADC7
:1039E0007AADC8010E94E2168B2D8450990BAC0170
:1039F00070E060E0EACFC8010E94011744E050E0A7
:103A000069A97AA9C8010E94E216F70166A177A107
:103A100080A591A50E94832A66A377A380A791A77A
:103A200056CFC8010E94011744E050E06BA97CA961
:103A3000C8010E94E216F70162A573A584A595A5A9
:103A40000E94832A62A773A784A795A740CFC801C5
:103A50000E94011744E050E06FA578A9C8010E94B8
:103A6000E216F70162A173A184A195A10E94832AA5
:103A700062A373A384A395A366A777A780AB91AB3A
:103A800026CF33243A94AACE0C94262B7F928F9281
:103A90009F92AF92BF92CF92DF92EF92FF920F93DD
:103AA0001F93CF93DF93CDB7DEB7A6970FB6F894E9
:103AB000DEBF0FBECDBF8C01762E942E852E20E268
:103AC000A22ECE0101967C01DC01EA2D1D92EA9521
:103AD000E9F76801F3E4CF0ED11C83E991E09AA3E2
:103AE00089A38FEF8BA38CA38DA38EA343E450E017
:103AF000BE016F5D7F4FC6010E94EB0A019609F47B
:103B0000BFC081E089838A8386E0B82EBB821C8295
:103B1000D80114966D917D918D919C9117970E947B
:103B2000832A6D837E838F83988789869A8680E82F
:103B300090E09C878B874CE150E0B701C6010E9462
:103B40007314FE0137968AE1DF011D928A95E9F729
:103B50004801B8E08B0E911CF401D70101900D9241
:103B6000BA94E1F740E150E0B701C6010E94731436
:103B7000F7011192AA94E9F796E0A92EB12C40E240
:103B800050E0B701C6010E947314F1E0AF1AB1080A
:103B9000B1F783E6898392E89A8393E59B838C83CC
:103BA00085E38D8381E08E837F829DE3988797E014
:103BB00099878A8786E0F401DE011B9601900D92B9
:103BC0008A95E1F78CE0898B8A8B65EA71E0CE01FA
:103BD00043960E94CE2BD8011B966C91CE0149963C
:103BE0000E943C08F8016485CE014B960E943C0877
:103BF000D8011D966C91CE014D960E943C084EE175
:103C000050E0B701C6010E947314B3E07B121EC0DE
:103C100082E3898384E08A83F80196859B83978574
:103C20009C8390899D8391899E8396E39F83888757
:103C3000828D8987838D8A87848D8B87858D8C87FC
:103C40004CE050E0B701C6010E94731487E38983FA
:103C500086E08A8391E09B8393E09C838D838FE051
:103C60008E838AE38F838BE388878FEF898749E090
:103C700050E0B701C6010E947314C6010E94220ED3
:103C8000A6960FB6F894DEBF0FBECDBFDF91CF91E1
:103C90001F910F91FF90EF90DF90CF90BF90AF906A
:103CA0009F908F907F9008952F923F924F925F92B6
:103CB0006F927F928F929F92AF92BF92CF92DF923C
:103CC000EF92FF920F931F93CF93DF9300D000D01A
:103CD00000D0CDB7DEB78C010E9448292FEC37E029
:103CE00040E050E00E941A2ADC01CB010196A11DA0
:103CF000B11DF80184839583A683B7838083918364
:103D0000A283B3835801F3E4AF0EB11CC5010E9436
:103D1000880D64E470E0C5010E948412882309F4D0
:103D200045C10E9401092B013C01480182E4880E33
:103D3000911C48EEC42E43E0D42EE12CF12C52E02D
:103D4000252E1E821D82D4018C918330B1F1811108
:103D500066C0F80184819581A681B7810196A11D75
:103D6000B11D84839583A683B7830E9401096419DA
:103D7000750986099709A70196010E944C2AA90195
:103D800061E0C8010E94461D81E0D4018C938D81C1
:103D90009E810197C1F20E94010964197509860983
:103DA0009709D801D6962D913D914D915C91D99767
:103DB000261737074807590720F6C5010E94880DC6
:103DC000F80184819581A681B7810196A11DB11D5D
:103DD00084839583A683B7830E940109F801FE9628
:103DE00060837183828393838D819E8126960FB633
:103DF000F894DEBF0FBECDBFDF91CF911F910F9121
:103E0000FF90EF90DF90CF90BF90AF909F908F90FA
:103E10007F906F905F904F903F902F9008958430E7
:103E2000F1F4F80184819581A681B7810196A11DE5
:103E3000B11D84839583A683B7830E940109641909
:103E4000750986099709A70196010E944C2AA901C4
:103E500063E0C8010E94461DD4012C9298CF8130A6
:103E600051F5F80142AD53AD64AD75AD9E012F5FC4
:103E70003F4FC8010E94A51B382EF2E08F1390C05F
:103E800089819A81AB81BC81F80184839583A68363
:103E9000B7830E9401096419750986099709A7016A
:103EA00096010E944C2AA90163E0C8010E94461DA8
:103EB000D4013C926CCF823009F069CFF80142AD59
:103EC00053AD64AD75AD9E012F5F3F4FC8010E9499
:103ED000A51B382EF5E08F135DC0E3E0D401EC9311
:103EE000F80182A193A1A4A1B5A1892B8A2B8B2BC8
:103EF00041F484E893E0A0E0B0E082A393A3A4A3FC
:103F0000B5A3F80186A197A1A0A5B1A5892B8A2BFD
:103F10008B2B61F482A193A1A4A1B5A1B695A7951D
:103F20009795879586A397A3A0A7B1A7F80182A527
:103F300093A5A4A5B5A5892B8A2B8B2BA9F482A1C7
:103F400093A1A4A1B5A1AC01BD0123E0769567952D
:103F5000579547952A95D1F7841B950BA60BB70B60
:103F600082A793A7A4A7B5A7F80186A197A1A0A5AA
:103F7000B1A586A797A7A0ABB1AB82A593A5A4A531
:103F8000B5A582AB93ABA4ABB5AB81E090E09E83CB
:103F90008D83FDCE96E0891303C0D4011C92F7CE29
:103FA000BFEF3B12F4CEF4011082F1CE1E821D82CF
:103FB0001BCF1F920F920FB60F9211242F933F9396
:103FC0008F939F93AF93BF938091CC049091CD0436
:103FD000A091CE04B091CF043091CB0423E0230F05
:103FE0002D3758F50196A11DB11D2093CB04809368
:103FF000CC049093CD04A093CE04B093CF048091D1
:10400000D0049091D104A091D204B091D304019630
:10401000A11DB11D8093D0049093D104A093D2042C
:10402000B093D304BF91AF919F918F913F912F9106
:104030000F900FBE0F901F90189526E8230F029641
:10404000A11DB11DD2CF1F920F920FB60F92112456
:104050002F933F938F939F93EF93FF938091C5018D
:104060009091C6012091CA013091CB0121303105D8
:10407000F9F48F3F9807E1F41092C50089E080932E
:10408000C40088E48093C1008EE28093C200109245
:10409000C6001092C6011092C501FF91EF919F9149
:1040A0008F913F912F910F900FBE0F901F901895F9
:1040B0000097A1F41092C50083E08093C40088E2C9
:1040C0008093C1008EE08093C2001092C60081E010
:1040D00090E09093C6018093C501DFCF209101014C
:1040E000309102018217930770F49C012F5F3F4FBC
:1040F0003093C6012093C5018A5C9D4FFC018081ED
:104100008093C600CACF1092C50083E08093C4009C
:1041100088E48093C1008EE08093C200E091C501E5
:10412000F091C601EA5CFD4F80818093C6008FEF5D
:104130009FEFCFCF1F920F920FB60F9211242F93A4
:104140003F934F935F936F937F938F939F93AF931F
:10415000BF93EF93FF930E942320FF91EF91BF91B4
:10416000AF919F918F917F916F915F914F913F910F
:104170002F910F900FBE0F901F9018951F920F92C6
:104180000FB60F9211242F933F934F935F936F932A
:104190007F938F939F93AF93BF93EF93FF93209160
:1041A000C0008091C6009091C7019130A1F482E0D7
:1041B0008093C701FF91EF91BF91AF919F918F9134
:1041C0007F916F915F914F913F912F910F900FBE13
:1041D0000F901F90189524FF1FC083E08093C701A4
:1041E00086E392E09093C4018093C3018091C7015C
:1041F000853001F78091CA019091CB010397B9F600
:104200001092C50083E08093C40080E18093C100D8
:1042100086E08093C200CECF9330A9F4811129C0EB
:1042200084E08093C7010E9401096093BF017093ED
:10423000C0018093C1019093C2018091C30190910C
:10424000C4010196CFCF943089F6E091C301F0917B
:10425000C4019081891380833196F093C401E09367
:10426000C30180913402909135028E179F0708F0A8
:10427000A1CF85E08093C701B9CFEBE0F5E083E9FA
:1042800091E0918380831282138214821582E1E18E
:10429000F5E0918380831282138214821582E7E114
:1042A000F5E0918380831282138214821582EDE1FE
:1042B000F5E0918380831282138214821582E3E2F7
:1042C000F5E0918380831282138214821582EFE2DB
:1042D000F5E0918380831282138214821582E9E2D1
:1042E000F5E0918380831282138214821582E5E3C4
:1042F000F5E0918380831282138214821582EBE3AE
:10430000F5E0918380831282138214821582E2E6A3
:10431000F5E0918380831282138214821582E7E490
:10432000F5E01382128248EE53E060E070E04483CF
:1043300055836683778329E631E03183208397872D
:104340008687108A118A128A138A84E0808FE1E4BA
:10435000F5E01382128289E991E09183808380E500
:1043600090E0958384830895CF93DF93CDB7DEB734
:10437000EE970FB6F894DEBF0FBECDBF789484B52C
:10438000826084BD84B5816084BD85B5826085BD51
:1043900085B5816085BD80916E00816080936E00DF
:1043A00010928100809181008260809381008091D1
:1043B0008100816080938100809180008160809382
:1043C00080008091B10084608093B1008091B00042
:1043D00081608093B00080917A00846080937A003D
:1043E00080917A00826080937A0080917A00816067
:1043F00080937A0080917A00806880937A0010928E
:10440000C10083E00E941D0861E083E00E947C08F7
:104410000E944F0C82E090E09093C9018093C80104
:1044200081E08093C7011092C6011092C50186E316
:1044300092E09093C4018093C3010E9401096093AC
:10444000BF017093C0018093C1019093C20180E0CD
:1044500092E090930201809301018091010190917B
:1044600002018A5C9D4F9093350280933402E6E30B
:10447000F2E087E394E011928E179F07E1F781E065
:1044800090E09093CB018093CA011092C0001091EC
:10449000C801812F0E941D0860E0812F0E947C08C6
:1044A0008091CA019091CB018130910509F010C132
:1044B00061E0812F0E947C0880E290E090930201ED
:1044C000809301011092C50089E08093C40088E4C4
:1044D0008093C1008EE28093C2001092C60080E0FB
:1044E00092E0909302018093010186E394E090931F
:1044F0003502809334028AE0809300018091FE04AB
:10450000882309F40FC180912A0281112AC01092D8
:1045100012021092110288EE93E0A0E0B0E08093C6
:10452000130290931402A0931502B093160289E629
:1045300091E09093100280930F0283E991E09093B1
:104540001E0280931D0210921F02109220021092F0
:1045500021021092220284E08093270281E080935E
:104560002A028CEC91E09093330280933202809186
:10457000F904882309F4CAC080E591E00E941A0872
:1045800046E050E06FE571E089E090E00E94430969
:1045900083E991E09A8389831B821C821D821E829B
:1045A000CE0103960E94D50A1092EE011092EF01FF
:1045B0001092F0011092F1011092F2011092F301A9
:1045C0001092F4011092F5011092F6011092F70189
:1045D0001092F8011092F90188E893E1A0E0B0E0B0
:1045E0008093020290930302A0930402B093050209
:1045F00080ED97E0A0E0B0E0809306029093070280
:10460000A0930802B0930902EAEDF1E084E1DF0132
:104610001D928A95E9F786E0EFE5F1E0A4EDB1E0BF
:1046200001900D928A95E1F710920E028CEC91E0C8
:104630000E94541E7C01019709F06EC080E591E054
:104640000E941A080091320210913302B801625F91
:104650007F4FCE0101960E94A217CE0103960E94C1
:10466000D50AB8016A5E7F4FCE0101960E94A2175B
:10467000CE0103960E94E30AB8016E5E7F4FCE0121
:1046800001960E94A217CE0103960E94DC0AB8018F
:10469000625E7F4FCE0101960E94A2178B819C81A2
:1046A000AD81BE8180932B0590932C05A0932D05A1
:1046B000B0932E050E94AA087F7380910301909108
:1046C000040168277927709304016093030124C0D3
:1046D000029709F004CF86E392E09093C40180939F
:1046E000C30181E08093C7011092C50083E08093ED
:1046F000C40080E98093C10086E08093C20080916D
:10470000C00087FFECCE8091C600F9CF0E947C0EDE
:10471000F12CE12C811130CF81E0EF2809F480E009
:104720008093CA048091CA04811145C06FEF74E080
:10473000CE01C9960E94A21763E075E0CE01C39630
:104740000E94A21767E075E0CE018D960E94A21725
:1047500083E991E09A8389834DA95EA96FA978AD19
:104760004B835C836D837E839B8B8A8B4FA558A97B
:1047700069A97AA94C8B5D8B6E8B7F8B9AA389A3D9
:104780004BA35CA36DA37EA398A78FA38BAD9CAD19
:10479000ADADBEAD89A79AA7ABA7BCA79E012F5F01
:1047A0003F4FAE014E5E5F4FBE016F5D7F4FCE014A
:1047B00087960E949C0F66E379E187E495E00E946A
:1047C000841281E495E00E94A91260E083E00E94D7
:1047D0007C0878EE872E73E0972EA12CB12C7E01F9
:1047E000E7E0EE0EF11C8091CA04882309F4CBC0E7
:1047F00000913202109133020115110509F4C3C072
:104800000E9401092B013C016801FEE3CF0ED11C7F
:10481000F60180819181A281B381A3019201281BBD
:10482000390B4A0B5B0BCA01B901683E33E07307D1
:104830008105910590F1A50194010E944C2A461A28
:10484000570A680A790AD6014D925D926D927C9260
:104850001397F80186A597A5A0A9B1A929013A0146
:10486000440C551C661C771C84159505A605B705D8
:1048700008F02AC116A617A610AA11AAF80182A943
:1048800093A9A4A9B5A984159505A605B70508F0AF
:1048900024C112AA13AA14AA15AAF80186A597A5DD
:1048A000A0A9B1A9892B8A2B8B2B09F01FC1EE5B24
:1048B000FF4F8081833009F019C184E08083C801F3
:1048C0000E94541E0196D801D2964D915D916D9132
:1048D0007C91D597452B462B472BA1F4F801EE5B35
:1048E000FF4F2081233011F021110CC01082F801FC
:1048F0003E9684E1DF011D928A95E9F7C8010E9486
:10490000541E03968230910511F00497E1F580E57D
:1049100091E00E941A080091320210913302B8010E
:10492000625F7F4FCE0101960E94A217CE010396CF
:104930000E94D50AB8016A5E7F4FCE0101960E949F
:10494000A217CE0103960E94E30AB8016E5E7F4F64
:10495000CE0101960E94A217CE0103960E94DC0AA6
:10496000B801625E7F4FCE0101960E94A2178B8133
:104970009C81AD81BE8180932B0590932C05A093E3
:104980002D05B0932E0587E495E00E94E9178C0170
:104990000C970CF4DCC042E150E068EB74E087E473
:1049A00095E00E94E2160C970CF4D1C0A8EBB4E09D
:1049B000E5E8FFE080EC94E03D9124913213C7C01C
:1049C00031968A179B07C1F78091C0049091C1046A
:1049D0008115B0E59B0709F0F7C0023111050CF411
:1049E000B6C09091C7048091FB049813B0C0209189
:1049F000C6048091FC04B0E18B9FC001112430916A
:104A0000FD04832B2817190609F0A1C02091C804C2
:104A10003091C9040251110932272327322721304E
:104A2000E2E03E0710F020E032E02017310708F402
:104A30008901DD24D394C12C0115110509F462C04C
:104A4000A8010132110510F040E250E067E374E084
:104A500087E495E00E94E216181619060CF052C081
:104A6000E0913402F09135022D2D3C2D622F6D190D
:104A700070E068177907ECF5A9012130A2E03A0748
:104A800014F040E052E01416150614F041E050E036
:104A9000695C7B4FDB016C91DA01AA5CBD4F6C93C2
:104AA00060910101709102016417750750F45093F1
:104AB000020140930101E0910101F0910201EA5CE1
:104AC000FD4F2F5F3F4FD2CF821B930BA40BB50B33
:104AD00086A797A7A0ABB1ABD1CE821B930BA40B3B
:104AE000B50B82AB93ABA4ABB5ABD7CE90E080E077
:104AF000EACEF0933502E0933402081B190BD22E54
:104B0000C32E9ACFE0E9FFE08491ECECFFE0149132
:104B1000E8EBFFE0049170E060E0002399F0811180
:104B20000E945308E02FF0E0EE0FFF1FE859FF4FFF
:104B3000A591B491EC911E2391E080E009F490E0FE
:104B4000692F782FB1E06B2783E00E947C0861E435
:104B500075E0CE0142960E943B158E8D843008F0A0
:104B60000EC30E9401092B013C0188E5C82E84E098
:104B7000D82E10E0CE0142960E94C70D882309F47A
:104B800041C10E9401096419750986099709643FAA
:104B900071408105910508F035C1CE0142960E9411
:104BA0000B16892B39F3CE0142960E942B178A30BF
:104BB00009F428C18D3009F425C11F35D8F61F5FCF
:104BC000D6018D936D01D6CF8115904209F0BFCFEC
:104BD00000915B0510915C058091570590915805F7
:104BE000A0915905B0915A058BA39CA3ADA3BEA378
:104BF00083E991E09B8B8A8B1C8A1D8A1E8A1F8AFF
:104C000080E591E00E941A0844E050E0BE016C5E2D
:104C10007F4F8FE090E00E94B80C0115110511F450
:104C200006E319E183E991E09A8389838BA19CA132
:104C3000ADA1BEA18B839C83AD83BE83A801BE01C1
:104C40006F5F7F4F87E495E00E94EB0A68E085E89C
:104C50009FE00E94C31460E087E495E00E946C0A24
:104C600061E287E495E00E946C0A8C899D89AE8997
:104C7000BF898B839C83AD83BE838E010D5F1F4FE5
:104C80006801D8016D918D0187E495E00E946C0A5E
:104C90000E151F05B1F766E387E495E00E946C0AE4
:104CA00069E187E495E00E946C0A60E087E495E0A2
:104CB0000E946C0A62E087E495E00E946C0A6091B1
:104CC000FB0487E495E00E946C0A6091FC0487E491
:104CD00095E00E946C0A60E087E495E00E946C0A0F
:104CE0006FEF87E495E00E946C0A60E087E495E04E
:104CF0000E946C0A60ED87E495E00E946C0A6FE701
:104D000087E495E00E946C0A6FE787E495E00E94D3
:104D10006C0A62E18EEC90E00E94C31460E486EAC3
:104D200090E00E94C31460E482E790E00E94C31404
:104D300060E087E495E00E946C0A61E087E495E01A
:104D40000E946C0A60E887E495E00E946C0A83E0A8
:104D50000E94AD1484E00E94AD1460E887E495E001
:104D60000E946C0A83E00E94AD1484E00E94AD149E
:104D70006091FC04B0E16B9FC00111246091FD04BF
:104D8000682B87E495E00E946C0A83E00E94AD14D2
:104D900086E00E94AD1460E087E495E00E946C0A12
:104DA00046E050E06FE571E087E495E00E947314FF
:104DB0008C899D89AE89BF898B839C83AD83BE839B
:104DC0008601F80161918F0187E495E00E946C0AE9
:104DD000E016F106B1F761E087E495E00E946C0A05
:104DE0008091CA046EE0811101C06CE087E495E017
:104DF0000E946C0A8AE10E94AD1487E495E00E944B
:104E0000220EA5CEE12FF0E0E85AFB4F1082CE0132
:104E100042960E940B16892B29F0CE0142960E94E1
:104E20002B17F5CF6CEA71E088E594E00E94D52B52
:104E3000009709F485C08C01065F1F4F60E270E0A7
:104E4000C8010E94C32B009711F0FC01108281E180
:104E5000EAEFF4E0DE01119601900D928A95E1F7F8
:104E600067EB71E0C8010E94D0298C01009709F41A
:104E700071C06DE370E00E94C32B009709F435C048
:104E8000DC0111962C91222309F42FC0FC01119210
:104E90006F01CF010E94A029D801EC91E156E531C4
:104EA00020F50E2E000CFF0BE85AF84D0C947D2ACD
:104EB000982775277527922775277527A6277527A1
:104EC0007527752775277527A2276D2775277527DD
:104ED000752775277C277527872797FD0BC0803896
:104EE000910514F08FE790E08A8367EB71E090E022
:104EF00080E0B9CF80E0F8CF97FD07C08031910501
:104F000014F08FE090E08B83F0CF80E0FCCF97FD32
:104F100007C08031910514F08FE090E08C83E5CFDD
:104F200080E0FCCF21E0892B09F420E02D83DDCF48
:104F3000BE016A5F7F4FC6010E94220B8111D5CF4F
:104F400010E01FC0BE01665F7F4FF5CFBE01625FFC
:104F50007F4FF1CF8A818F3709F019C18B818F3054
:104F600009F015C18C818F3009F011C160E090E02B
:104F700080E00E940C2A0E944F0C81E0809357042D
:104F800011E063E079E0CE0142960E9438141123CB
:104F9000B1F06EEE78E0CE0142960E943814809116
:104FA0005704882331F060EA78E0CE0142960E94EF
:104FB000381469E978E0CE0142960E9438146BE11A
:104FC00078E0CE0142960E9438146091FB04CE0135
:104FD00042960E947A0B64EC77E0CE0142960E94E2
:104FE00038146091FC04CE0142960E947A0B6CE664
:104FF00077E0CE0142960E9438146091FD04CE0104
:1050000042960E947A0B61E876E0CE0142960E94B9
:1050100038148091FE04882331F067E776E0CE01F2
:1050200042960E94381465E376E0CE0142960E94D3
:1050300038148091FE04811106C06BE276E0CE0147
:1050400042960E94381465EE75E0CE0142960E94A9
:1050500038146FEF74E0CE0142960E94110C65EB9C
:1050600075E0CE0142960E94381463E075E0CE01EF
:1050700042960E94110C69E875E0CE0142960E94AA
:10508000381467E075E0CE0142960E94110C6BE681
:1050900075E0CE0142960E94381466E575E0CE01B7
:1050A00042960E94381469E475E0CE0142960E944F
:1050B000381483E991E09A8389831B821C821D82C4
:1050C0001E8280E591E00E941A0844E050E0BE0193
:1050D0006D5F7F4F8FE090E00E94B80CBE016E5E66
:1050E0007F4FCE0101960E94CF0B8091CA0465EEDE
:1050F00070E0811102C069ED70E0CE0142960E941D
:1051000038146FE075E0CE0142960E943814609129
:10511000FB04CE0142960E947A0B63E075E0CE015B
:1051200042960E9438146091FC04CE0142960E947F
:105130007A0B66EF74E0CE0142960E9438146091BB
:10514000FD04CE0142960E947A0B6BEC74E0CE0116
:1051500042960E9438146FEE70E0CE0142960E9493
:105160003814CE0142960E94A81365E070E080E0FA
:1051700090E00E94CF08CE0142960E94E90D80E0A7
:1051800090E0892B09F42FCB0E9400002CCB9D814D
:105190008091FE0498132EC044E050E06FEF74E05D
:1051A000CE0106960E94AF2B892B21F544E050E0FA
:1051B00063E075E0CE010A960E94AF2B892BD1F4F3
:1051C00044E050E067E075E0CE010E960E94AF2B00
:1051D00021E0892B09F420E02093570481E1FE01AE
:1051E0003196AAEFB4E001900D928A95E1F70E9402
:1051F0002E0CC6CE21E0F0CF8F929F92AF92BF923D
:10520000CF92DF92EF92FF92CF93DF93EC01688110
:1052100079818A819B81611571058105910521F450
:1052200064E279ED8BE597E02DE133EF41E050E06A
:105230000E941A2A49015A019B01AC01A7EAB1E474
:105240000E94392A6B017C01ACEEB4EFA5019401F8
:105250000E94472AC60ED71EE81EF91EF7FE06C09A
:1052600081E0C81AD108E10880E8F80AC882D9822A
:10527000EA82FB82C701B6019F77DF91CF91FF9051
:10528000EF90DF90CF90BF90AF909F908F90089558
:105290008F929F92AF92BF92CF92DF92EF92FF9246
:1052A00060910501709106018091070190910801BC
:1052B000611571058105910521F464E279ED8BE5B5
:1052C00097E02DE133EF41E050E00E941A2A4901B6
:1052D0005A019B01AC01A7EAB1E40E94392A6B0193
:1052E0007C01ACEEB4EFA50194010E94472AC60EE2
:1052F000D71EE81EF91EF7FE06C081E0C81AD108C5
:10530000E10880E8F80AC0920501D0920601E09217
:105310000701F0920801C701B6019F77FF90EF9057
:10532000DF90CF90BF90AF909F908F900895609343
:105330000501709306018093070190930801089579
:10534000FC0188279927E89421912032E9F329303C
:1053500010F02E30C8F32B3241F02D3239F468941E
:1053600004C00E94FC29820F911D219120532A30F4
:10537000C0F31EF4909581959F4F0895FB01DC01C9
:1053800002C005900D9241505040D8F70895FC019D
:1053900005900020E9F7809590958E0F9F1F089546
:1053A00048E655E00E94D5290895FA01A191B081FF
:1053B000009719F41097E1F0CD01DC01CD010D90BB
:1053C000002011F4C00113C0FB012191222319F028
:1053D0002015D9F7F3CFFB012191201519F41E9266
:1053E000119606C02223C1F70D900020A1F7D0012D
:1053F000FA01A193B08308957AE0979F902D879F3B
:10540000802D910D11240895F999FECF92BD81BD93
:10541000F89A992780B50895262FF999FECF1FBADB
:1054200092BD81BD20BD0FB6F894FA9AF99A0FBECD
:1054300001960895052E97FB1EF400940E94312AD0
:1054400057FD07D00E944C2A07FC03D04EF40C9461
:10545000312A50954095309521953F4F4F4F5F4FE2
:10546000089590958095709561957F4F8F4F9F4FD0
:1054700008950E946E2AA59F900DB49F900DA49F41
:10548000800D911D11240895B7FF0C94392A0E94B4
:10549000392A821B930B0895A1E21A2EAA1BBB1B6B
:1054A000FD010DC0AA1FBB1FEE1FFF1FA217B307F0
:1054B000E407F50720F0A21BB30BE40BF50B661F06
:1054C000771F881F991F1A9469F7609570958095CA
:1054D00090959B01AC01BD01CF010895A29FB00141
:1054E000B39FC001A39F700D811D1124911DB29F18
:1054F000700D811D1124911D0895EE0FFF1F059061
:10550000F491E02D09946927962769277827872742
:10551000782708950F931F93CF93DF9382309105DF
:1055200010F482E090E0E0916C05F0916D0530E0C0
:1055300020E0B0E0A0E0309799F42115310509F49E
:105540004AC0281B390B24303105D8F58A819B814C
:105550006115710589F1FB0193838283FE0111C0FE
:10556000408151810281138148175907E0F04817A3
:10557000590799F4109761F012960C9312971396AD
:105580001C933296CF01DF91CF911F910F91089517
:1055900000936C0510936D05F4CF2115310551F082
:1055A0004217530738F0A901DB019A01BD01DF0161
:1055B000F801C1CFEF01F9CF90936D0580936C0591
:1055C000CDCFFE01E20FF31F819391932250310959
:1055D00039832883D7CF20916A0530916B05232B1F
:1055E00041F420910B0130910C0130936B05209315
:1055F0006A052091090130910A012115310541F414
:105600002DB73EB740910D0150910E01241B350B73
:10561000E0916A05F0916B05E217F307A0F42E1BE9
:105620003F0B2817390778F0AC014E5F5F4F241706
:10563000350748F04E0F5F1F50936B0540936A0586
:10564000819391939FCFF0E0E0E09CCFCF93DF93E5
:105650000097E9F0FC01329713821282A0916C0549
:10566000B0916D05ED0130E020E01097A1F42081AC
:105670003181820F931F20916A0530916B052817A5
:10568000390709F061C0F0936B05E0936A05DF917B
:10569000CF910895EA01CE17DF07E8F54A815B81D3
:1056A0009E0141155105B1F7E901FB83EA83499158
:1056B0005991C40FD51FEC17FD0761F480819181CA
:1056C0000296840F951FE9019983888382819381D3
:1056D0009B838A83F0E0E0E012968D919C91139772
:1056E0000097B9F52D913C911197CD010296820F4B
:1056F000931F20916A0530916B052817390739F6F9
:10570000309751F510926D0510926C05B0936B05B2
:10571000A0936A05BCCFD383C28340815181840F9B
:10572000951FC817D90761F44E5F5F4F8881998133
:10573000480F591F518340838A819B8193838283C1
:105740002115310509F0B0CFF0936D05E0936C059C
:105750009ECFFD01DC01C0CF13821282D7CFFB01A7
:10576000DC0104C08D910190801921F4415050401A
:10577000C8F7881B990B0895DC0101C06D93415057
:105780005040E0F70895FC018191861721F08823AD
:10579000D9F7992708953197CF010895FB01DC01CE
:1057A00001900D920020E1F70895FB0151915523DE
:1057B000A9F0BF01DC014D9145174111E1F759F402
:1057C000CD010190002049F04D9140154111C9F3E0
:1057D000FB014111EFCF81E090E001970895F8942B
:0257E000FFCFF9
:1057E2000A200000C00100000000006E05800002D7
:1057F20000000A0200000101005E0000000000003B
:105802000000000000000000000000000000000096
:1058120000A30A1D14BD13A8130B162B1714100294
:10582200121A1B4517E90DC70DCC0AD40A441DC92B
:105832000AC70A980ABD0A7817AE174E17B90A02A4
:10584200534F4E4F52000000006C0A7314770B52F4
:10585200084E080117051084121A11880DEB0AA7C9
:105862001A220EE917E2166F0B5F0B5B0B570B0048
:10587200000000CF0B00000000820ABA15770B76F9
:105882000BA912A30D57495A6E657400474554205F
:0A5892002F736176653F00260000C9
:00000001FF
