:100000000C9428070C9450070C9450070C9450073C
:100010000C9450070C9450070C9450070C94500704
:100020000C9450070C9450070C9450070C945007F4
:100030000C9450070C9450070C9450070C945007E4
:100040000C94111F0C9450070C94F61F0C94D21FA3
:100050000C945B1F0C9450070C9450070C945007A1
:100060000C9450070C945007000000002300260059
:1000700029002330303031205B303030305D205368
:100080004F4E4F52204E6F6465204F4B202D206302
:100090006F6E66696720617420687474703A2F2FE0
:1000A0003C69703E2F00534F4E4F52204172742DC9
:1000B0004E657420746F20444D58204E6F64652047
:1000C000284E616E6F292076302E332E3000534F2C
:1000D0004E4F52204E6F6465002020287374617467
:1000E0006963290A0020202844484350290A003C1B
:1000F0002F7072653E3C68323E576972696E673C8C
:100100002F68323E3C7072653E4E616E6F2020203B
:100110002020202020202020204D41583438352018
:100120006D6F64756C652020202020202020584CA5
:10013000522028444D58206F7574290A35562020C6
:10014000202D2D2D2D2D2D2D2D2D3E205643430AB6
:10015000474E4420202D2D2D2D2D2D2D2D2D3E2093
:10016000474E44202D2D2D2D2D2D2D2D2D2D2D2D7A
:100170002D2D3E202070696E20312028736869651E
:100180006C64290A44312028545829202D2D2D2D06
:100190002D2D3E2044490A44322020202D2D2D2D86
:1001A0002D2D2D2D2D3E204445202B20524520283D
:1001B00074696564290A2020202020202020202026
:1001C000202020202020412020202D2D2D2D2D2DC0
:1001D0002D2D2D2D2D2D2D2D3E202070696E20339F
:1001E0002028446174612B290A202020202020200F
:1001F000202020202020202020422020202D2D2DB6
:100200002D2D2D2D2D2D2D2D2D2D2D3E20207069A8
:100210006E20322028446174612D290A4433202D38
:100220003E2033333052202D3E204C4544202D3E7D
:1002300020474E44202020286163746976697479D0
:100240002C206F7074696F6E616C290A5368696540
:100250006C642075736573204431302D4431332034
:1002600028535049292E204C6561766520746865B5
:100270006D20616C6F6E652E3C2F7072653E3C6820
:10028000323E466C617368696E673C2F68323E3C53
:100290007072653E466C6173682066726F6D207483
:1002A00068652062726F7773657220286E6F2073A5
:1002B0006F66747761726529206F72204172647570
:1002C000696E6F204944453A0A68747470733A2F16
:1002D0002F736F6E6F726C74642E676974687562C9
:1002E0002E696F2F736F6E6F722D6172746E6574ED
:1002F0002D6E6F64652F0A4944453A20426F617242
:10030000642041726475696E6F204E616E6F2C209F
:1003100050726F636573736F722041546D656761CE
:100320003332385020284F6C6420426F6F746C6FEA
:10033000616465722920666F7220636C6F6E6573ED
:100340002E0A526573657420746F20666163746F42
:1003500072793A2072652D666C6173682C206F7219
:1003600020736574204E65743D31323720537562B9
:100370003D313520556E69763D313520616E642002
:10038000536176652E3C2F7072653E3C68323E4E5E
:100390006F7465733C2F68323E3C64697620636CF1
:1003A0006173733D6B207374796C653D27666F6E66
:1003B000742D73697A653A31337078273E416E73D4
:1003C0007765727320417274506F6C6C206173207A
:1003D00022534F4E4F52204E6F6465222E204163B0
:1003E000636570747320417274446D782062792063
:1003F00062726F616463617374206F7220756E69DD
:10040000636173742E20486F6C6473207468652078
:100410006C617374206C6F6F6B2069662074686503
:1004200020736F757263652073746F70732E204133
:1004300072742D4E6574202F20756E697665727307
:1004400065206368616E676573206170706C7920E8
:10045000696D6D6564696174656C793B20495020F4
:100460006368616E676573206170706C7920616686
:10047000746572206120706F7765722D6379636C8B
:10048000652E20536F757263653A206769746875CD
:10049000622E636F6D2F736F6E6F726C74642F7347
:1004A0006F6E6F722D6172746E65742D6E6F646500
:1004B0003C2F6469763E3C2F6469763E3C2F626F28
:1004C00064793E3C2F68746D6C3E000A444D5820A0
:1004D0006F75742020203A20353132206368206304
:1004E0006F6E74696E756F75732C20545820706927
:1004F0006E2044310A00202F20556E697665727394
:10050000652000202F205375622D4E657420004D0C
:100510004143202020202020203A2030323A353319
:100520003A34463A34453A34463A35320A417274DE
:100530002D4E65742020203A20706F72742036345E
:1005400035342C204E657420004950202020202076
:100550002020203A20003C68323E53746174757349
:100560003C2F68323E3C7072653E003E3C627574C2
:10057000746F6E3E536176653C2F627574746F6E56
:100580003E3C2F666F726D3E003E3C6C6162656C56
:100590003E476174657761793C2F6C6162656C3EA2
:1005A0003C696E707574206E616D653D6720766183
:1005B0006C75653D003E3C6C6162656C3E537562D6
:1005C0006E6574206D61736B3C2F6C6162656C3E6F
:1005D0003C696E707574206E616D653D6D2076614D
:1005E0006C75653D003E5374617469633C2F6F7098
:1005F00074696F6E3E3C2F73656C6563743E3C6C32
:100600006162656C3E5374617469632049503C2F8C
:100610006C6162656C3E3C696E707574206E616DD4
:10062000653D612076616C75653D002073656C6584
:1006300063746564003E44484350202866616C6CD6
:10064000206261636B20746F20737461746963202E
:1006500062656C6F77206966206E6F6E65293C2F2E
:100660006F7074696F6E3E3C6F7074696F6E207648
:10067000616C75653D30002073656C6563746564FD
:10068000003E3C2F6469763E3C2F6469763E3C64B4
:10069000697620636C6173733D6B207374796C654C
:1006A0003D27666F6E742D73697A653A31327078C2
:1006B0003B6D617267696E2D746F703A3670782782
:1006C0003E506F72742D4164647265737320302FD5
:1006D000302F302069732073686F776E206173202C
:1006E00022556E6976657273652031222062792009
:1006F0006D6F737420636F6E736F6C65733B205105
:100700004C432B20616E64204D412063616C6C2052
:10071000697420556E69766572736520302E3C2FA2
:100720006469763E3C68323E4E6574776F726B3C0E
:100730002F68323E3C6C6162656C3E416464726558
:100740007373696E673C2F6C6162656C3E3C7365C8
:100750006C656374206E616D653D643E3C6F7074C2
:10076000696F6E2076616C75653D31003E3C2F648B
:1007700069763E3C6469763E3C6C6162656C3E55D0
:100780006E6976657273652028302D3135293C2FCE
:100790006C6162656C3E3C696E707574206E616D53
:1007A000653D7520747970653D6E756D626572206A
:1007B0006D696E3D30206D61783D31352076616C1C
:1007C00075653D003E3C2F6469763E3C6469763E2B
:1007D0003C6C6162656C3E5375622D4E65742028D9
:1007E000302D3135293C2F6C6162656C3E3C696E61
:1007F000707574206E616D653D7320747970653D10
:100800006E756D626572206D696E3D30206D617828
:100810003D31352076616C75653D003C68323E4166
:1008200072742D4E65743C2F68323E3C666F726D5B
:1008300020616374696F6E3D2F736176653E3C6421
:10084000697620636C6173733D723E3C6469763EE9
:100850003C6C6162656C3E4E65742028302D3132EF
:1008600037293C2F6C6162656C3E3C696E70757413
:10087000206E616D653D6E20747970653D6E756D9D
:10088000626572206D696E3D30206D61783D313258
:10089000372076616C75653D003C2F6469763E00BB
:1008A000204E6574776F726B2073657474696E6720
:1008B00073206368616E6765206F6E206E65787463
:1008C00020706F7765722D6379636C6520E2809488
:1008D00020756E706C756720616E642072652D7076
:1008E0006C756720746865206E6F64652E003C64CB
:1008F000697620636C6173733D6F6B3E53617665FF
:10090000642E00485454502F312E31203230302084
:100910004F4B0D0A436F6E74656E742D547970657C
:100920003A20746578742F68746D6C0D0A436F6E8D
:100930006E656374696F6E3A20636C6F73650D0A40
:100940000D0A3C21444F43545950452068746D6C46
:100950003E3C68746D6C3E3C686561643E3C6D6510
:10096000746120636861727365743D7574662D38B7
:100970003E3C6D657461206E616D653D766965779D
:10098000706F727420636F6E74656E743D27776943
:100990006474683D6465766963652D77696474681D
:1009A0002C696E697469616C2D7363616C653D318E
:1009B000273E3C7469746C653E534F4E4F52204144
:1009C00072742D4E6574204E6F64653C2F7469748B
:1009D0006C653E3C7374796C653E626F64797B66CE
:1009E0006F6E743A313570782F312E35202D61704D
:1009F000706C652D73797374656D2C5365676F65C5
:100A00002055492C48656C7665746963612C417288
:100A100069616C2C73616E732D73657269663B62DC
:100A200061636B67726F756E643A233131313431B3
:100A3000383B636F6C6F723A236536653865623B8D
:100A40006D617267696E3A303B70616464696E67AC
:100A50003A323070787D68317B666F6E742D7369C1
:100A60007A653A323070783B6D617267696E3A3000
:100A70002030203470787D68327B666F6E742D7301
:100A8000697A653A313470783B746578742D747284
:100A9000616E73666F726D3A7570706572636173C3
:100AA000653B6C65747465722D73706163696E6704
:100AB0003A2E3038656D3B636F6C6F723A23386144
:100AC000393461303B6D617267696E3A32347078E7
:100AD0002030203870787D2E637B6D61782D7769AA
:100AE0006474683A35363070783B6D617267696E50
:100AF0003A6175746F7D2E6B7B636F6C6F723A23F6
:100B00003861393461307D6C6162656C7B64697316
:100B1000706C61793A626C6F636B3B6D617267698F
:100B20006E3A313070782030203370783B636F6CD0
:100B30006F723A233861393461303B666F6E742DC1
:100B400073697A653A313370787D696E7075742C8B
:100B500073656C6563747B77696474683A313030AF
:100B6000253B626F782D73697A696E673A626F729E
:100B70006465722D626F783B70616464696E673A78
:100B800038707820313070783B626F726465723AE9
:100B900031707820736F6C69642023326233323392
:100BA000613B626F726465722D7261646975733A3C
:100BB0003670783B6261636B67726F756E643A235F
:100BC0003161316632353B636F6C6F723A23653643
:100BD000653865623B666F6E742D73697A653A316C
:100BE0003570787D2E727B646973706C61793A67B9
:100BF0007269643B677269642D74656D706C6174B1
:100C0000652D636F6C756D6E733A31667220316657
:100C100072203166723B6761703A313070787D6264
:100C20007574746F6E7B6D617267696E2D746F7011
:100C30003A313670783B70616464696E673A31307E
:100C4000707820313870783B626F726465723A3028
:100C50003B626F726465722D7261646975733A36B6
:100C600070783B6261636B67726F756E643A2334B0
:100C700062623964333B636F6C6F723A2330623166
:100C80003031343B666F6E742D7765696768743AEE
:100C90003630303B666F6E742D73697A653A313544
:100CA00070787D7072657B6261636B67726F756E61
:100CB000643A233161316632353B626F726465722A
:100CC0003A31707820736F6C69642023326233325A
:100CD00033613B626F726465722D72616469757312
:100CE0003A3670783B70616464696E673A3132708D
:100CF000783B666F6E742D73697A653A313270781D
:100D00003B6F766572666C6F773A6175746F7D2E96
:100D10006F6B7B6261636B67726F756E643A2331D0
:100D200065336132613B626F726465723A3170782B
:100D300020736F6C696420233265376434663B70BE
:100D4000616464696E673A3130707820313470784C
:100D50003B626F726465722D7261646975733A36B5
:100D600070783B6D617267696E2D626F74746F6D20
:100D70003A313670787D3C2F7374796C653E3C2F28
:100D8000686561643E3C626F64793E3C64697620CC
:100D9000636C6173733D633E3C68313E534F4E4F0D
:100DA00052204172742D4E6574204E6F64653C2F45
:100DB00068313E3C64697620636C6173733D6B3EC1
:100DC00045746865726E65742026726172723B208C
:100DD000444D5835313220266D6964646F743B2070
:100DE0006669726D776172652076302E332E303CE5
:100DF0002F6469763E004172742D4E6574000000C8
:100E000000080002010000030407000000000000C9
:100E1000000000000000250028002B00000000005A
:100E2000240027002A000404040404040404020229
:100E30000202020203030303030301020408102059
:100E400040800102040810200102040810207520CF
:100E500011241FBECFEFD8E0DEBFCDBF11E0A0E070
:100E6000B1E0E2E5F6E502C005900D92AA3BB107BC
:100E7000D9F725E0AAEBB1E001C01D92AE36B2076A
:100E8000E1F717E0C8E2D7E004C02197FE010E9415
:100E9000B529C732D107C9F70E94EC200C94272B43
:100EA0000C9400008CBD9DBD089590E0FC01E65CB3
:100EB000F14F24918A5D914FFC018491882399F030
:100EC00090E0880F991FFC01E45EF14FA591B49169
:100ED000FC01EE5EF14F859194918FB7F894EC91FF
:100EE000E22BEC938FBF089520E3FC012083329620
:100EF000862F82958F706F706A3030F4605D6293D8
:100F0000682F8111F5CF0895695CF9CFFC01818DBF
:100F1000928D08950895833081F028F4813099F0FE
:100F20008230A9F008958730A9F08830C9F0843064
:100F3000B1F4809180008F7D03C0809180008F7715
:100F400080938000089584B58F7784BD089584B51B
:100F50008F7DFBCF8091B0008F778093B000089594
:100F60008091B0008F7DF9CF1F93CF93DF93282F0F
:100F700030E0F901E250F24F8491F901E65CF14F63
:100F8000D491F901EA5DF14FC491CC23A9F0162F59
:100F900081110E948B07EC2FF0E0EE0FFF1FEE5E39
:100FA000F14FA591B4918FB7F894EC91111108C04D
:100FB000D095DE23DC938FBFDF91CF911F910895F1
:100FC000DE2BF8CF3FB7F8948091D0049091D104F4
:100FD000A091D204B091D30426B5A89B05C02F3FA1
:100FE00019F00196A11DB11D3FBFBA2FA92F982F4F
:100FF0008827BC01CD01620F711D811D911D42E04A
:10100000660F771F881F991F4A95D1F708958F9211
:101010009F92AF92BF92CF92DF92EF92FF924B01DD
:101020005C010E94E2076B017C010E94E2076C19DF
:101030007D098E099F09683E734081059105A8F3DB
:1010400021E0821A9108A108B10888EEC80E83E059
:10105000D81EE11CF11C81149104A104B10429F7EC
:10106000FF90EF90DF90CF90BF90AF909F908F90C8
:1010700008952FB7F8946091CC047091CD048091BD
:10108000CE049091CF042FBF0895FC0120812EBD86
:101090009B012150310941F051810DB407FEFDCF74
:1010A0004EB55EBD4193F5CF61507109860F971F14
:1010B0000DB407FEFDCF2EB5FC0120830895E0910D
:1010C000BB01F091BC0180819091BA01892B808392
:1010D0000895E091BB01F091BC0190818091BA012B
:1010E00080958923808308958EBD00000DB407FE8E
:1010F000FDCF8EB50895AF92BF92CF92DF92EF925F
:10110000FF920F931F93CF93DF93CDB7DEB728974E
:101110000FB6F894DEBF0FBECDBF8C017B016A0114
:101120008091F8048333E1F45801A40EB51EA01693
:10113000B10609F46FC00E94690880EF0E9474082C
:10114000812F0E947408802F0E9474080F5F1F4F28
:10115000F70181917F010E9474080E945F08E7CF28
:101160005B01A40EB51E8433C1F40E946908198383
:101170000A838D2D80688B83CC8264E070E0CE0181
:1011800001960E944508AE14BF0409F441C0F7015E
:1011900081917F010E947408F6CF0E9469080F3F79
:1011A000110509F028F419820A8384E08B830CC0AE
:1011B00017FD17C019820A8333E0169507953A95F3
:1011C000E1F7007E0C600B8386E0C816D104A0F521
:1011D000F701DE011496EA15FB0599F081918D93D4
:1011E000FACFC80126E0969587952A95E1F7807E8B
:1011F00019830A830115104C10F48461D7CF8C61D8
:10120000D5CFB6016D5F7F4FCE0101960E94450894
:101210000E945F08C60128960FB6F894DEBF0FBE85
:10122000CDBFDF91CF911F910F91FF90EF90DF9095
:10123000CF90BF90AF90089563E070E0CE0101962B
:101240000E944508F70181917F010E947408AE1445
:10125000BF04C1F7DDCFCF93DF931F92CDB7DEB7C9
:10126000898341E050E0BE016F5F7F4F90E080E0F6
:101270000E947B080F90DF91CF91089590E020911C
:10128000F804233339F40C96982F990F990F990F7E
:1012900080E008954896F8CFDA01E091BE01F0E0D1
:1012A000FE2FEE27E60FF71F90E0982F8827A90161
:1012B000BD018E0F9F1F0C947B08CF93DF9300D04E
:1012C000CDB7DEB779836A8322E030E0AE014F5FAD
:1012D0005F4F60E170E00E944C090F900F90DF912A
:1012E000CF910895CF93DF9300D0CDB7DEB7798348
:1012F0006A8322E030E0AE014F5F5F4F64E070E050
:101300000E944C090F900F90DF91CF910895CF93D9
:10131000DF931F92CDB7DEB72091BE0130E0322FB0
:101320002227260F371F90E0982F8827498341E016
:1013300050E0BE016F5F7F4F820F931F0E947B08BA
:101340000F90DF91CF910895CF93DF931F92CDB788
:10135000DEB76983DC01ED91FC910280F381E02D21
:1013600041E050E0BE016F5F7F4F09950F90DF9124
:10137000CF910895CF93DF931F92CDB7DEB76983E6
:10138000DC01ED91FC910280F381E02D41E050E021
:10139000BE016F5F7F4F09950F90DF91CF91089548
:1013A000FC019485FB018485981303C081E094308F
:1013B00008F080E00895CF93DF931F92CDB7DEB79A
:1013C0006983DC01ED91FC910280F381E02D41E025
:1013D00050E0BE016F5F7F4F09950F90DF91CF9175
:1013E0000895FC01768765870895DC01ED91FC91F5
:1013F00002A0F3A1E02D099591E089270895862F99
:10140000089581E08627089521E0FC0184858430D9
:1014100008F020E0822F0895089544E050E0BC01D8
:101420008FE090E00C947B0844E050E0BC0185E044
:1014300090E00C947B0844E050E0BC0181E090E037
:101440000C947B080895FF920F931F93CF93DF9323
:10145000EB01FC01178A168A2A81211109C02B8110
:10146000211106C02C81211103C02D81222301F1FD
:1014700041155105E9F08A01FC01F08C80E591E00D
:101480000E945207AE014E5F5F4F24E030E06CE0F7
:1014900070E08F2D0E944C09B8018F2D0E945D09CC
:1014A00081E090E0DF91CF911F910F91FF9008951F
:1014B00080E0F7CFCF93DF9320E0AAE0EC01388102
:1014C00030533A30C8F4FC0150E040E0CF01319194
:1014D000B0EDB30FBA30A0F4A49FC001A59F900D4A
:1014E0001124AC0140535109430F511D37FD5A954A
:1014F0004F3F510559F350F380E0DF91CF910895AC
:10150000EB014993BE01233029F0EC0188818E3232
:1015100099F7CF012F5F243089F681E0EECFFC01EF
:10152000848595850895FC0184899589089523E92A
:1015300031E0FC0131832083FB01408951896289BC
:101540007389FC0142835383648375830895DC01AE
:10155000ED91FC91048CF58DE02D0994089590E0B7
:1015600080E008958F929F92AF92BF92EF92FF9288
:101570000F931F93CF93DF93CDB7DEB7A1970FB62D
:10158000F894DEBF0FBECDBF7C01262F30E050E0C7
:1015900040E019A28E010F5D1F4F8AE0882E912C2A
:1015A000A12CB12CCA01B901A50194010E94842982
:1015B000605DD8016E938D012115310541055105FE
:1015C00089F790E080E0109789F0C701FD01019054
:1015D0000020E9F73197AF014A1B5B0BD701ED9172
:1015E000FC910280F381E02DB8010995A1960FB618
:1015F000F894DEBF0FBECDBFDF91CF911F910F9149
:10160000FF90EF90BF90AF909F908F9008958F9232
:101610009F92AF92BF92CF92DF92EF92FF920F9381
:101620001F93CF93DF937C01EB016C0182E0C80E26
:10163000D11C4701E5E08E0E911C10E000E0F601A0
:1016400061916F01CE010E94B20A5C01E881F981CB
:101650000190F081E02D6EE2CE0109958A0D9B1D6F
:10166000080F191FC814D90451F7F7016581CE017D
:101670000E94B20A800F911FDF91CF911F910F91AD
:10168000FF90EF90DF90CF90BF90AF909F908F90A2
:101690000895EF92FF920F931F93CF937C018B01DC
:1016A000C0E0F80161918F01C7010E94B20AC33006
:1016B00021F06EE2C7010E94DB09CF5FC43089F7D9
:1016C000CF911F910F91FF90EF900895FF920F938C
:1016D0001F93CF93DF930AEF14E0D0E0C0E0F8014E
:1016E000F1908F01CE010E943C29F81621F06F2D58
:1016F000CE010E9444292196C131D10581F78AEF9C
:1017000094E0DF91CF911F910F91FF9008950F9377
:101710001F93CF93DF930AEF14E0D0E0C0E0CE0137
:101720000E943C29F80181938F012196C131D10596
:10173000B1F78091FA04883AB9F140910F015091C4
:10174000100160911101709112018091130190912B
:101750001401A0911501B091160128EA2093FA0412
:101760001092FB041092FC041092FD0421E02093DF
:10177000FE044093FF0450930005609301057093AD
:1017800002052FEF20930305109204051092050522
:10179000109206058093070590930805A09309050C
:1017A000B0930A050E94660B8091FB048F778093AB
:1017B000FB048091FC048F708093FC048091FD04F5
:1017C0008F708093FD0481E09091FE04911101C01F
:1017D00080E08093FE04DF91CF911F910F910895D7
:1017E000AF92BF92CF92DF92EF92FF920F931F932F
:1017F000CF93DF9300D000D0CDB7DEB78C016B0163
:101800007A018091F8048333E9F45B016801C40E26
:10181000D51EC016D106A9F10E9469088FE00E946A
:101820007408812F0E947408802F0E9474080F5F33
:101830001F4F80E00E947408F50181935F010E94B0
:101840005F08E7CF843369F50E94690819830A832A
:101850008F2D8F778B83EC8264E070E0CE01019650
:101860000E944508A70170E060E0C6010E94F42ACA
:10187000E114F10421F0B701C6010E9445080E945D
:101880005F08C7010F900F900F900F90DF91CF91DD
:101890001F910F91FF90EF90DF90CF90BF90AF908E
:1018A00008950E9469080F3F110509F030F419826C
:1018B0000A831B8263E070E0D1CF17FD0BC0198251
:1018C0000A8333E0169507953A95E1F7007E0860A4
:1018D0000B83F0CFC80126E0969587952A95E1F70E
:1018E000807E19830A830115104C18F480618B8364
:1018F000E1CF8861FCCFCF93DF931F92CDB7DEB7E6
:101900002091BE0130E0322F2227260F371F90E0B2
:10191000982F882741E050E0BE016F5F7F4F820F14
:10192000931F0E94F00B89810F90DF91CF91089552
:10193000CF93C82F462F61E070E00E94870961E0D5
:1019400070E08C2F0E947B0C8111F9CFCF9108950C
:10195000CF93C82F80E591E00E94520768E070E0C5
:101960008C2FCF910C94980CCF93C82F80E591E0E9
:101970000E94520760E170E08C2FCF910C94980C7C
:10198000CF93DF93EC01888D843020F40E94B40C57
:1019900084E0888FDF91CF91089563E070E00C942C
:1019A0007B0CCF93C82F80E591E00E9452078C2FCB
:1019B000CF910C94CD0CEF92FF920F931F93CF9386
:1019C0007C0100EF14E0C0E0F801219131918F011A
:1019D000F701848195812817390729F0CF5FC4303A
:1019E00099F780E006C08C2F0E94D10C8431B1F7AA
:1019F00081E0CF911F910F91FF90EF900895CF93C9
:101A0000DF93EC018C858430D0F40E94D10C8431BA
:101A100089F0882379F0883169F021E08C3159F41C
:101A2000E881F9810084F185E02DCE01099521E05E
:101A3000892B09F420E0822FDF91CF91089580E077
:101A4000FBCFCF92DF92EF92FF92CF93DF93EC0127
:101A50008C85843068F40E94A80C0E9439086B01C0
:101A60007C018C850E94D10C811109C084E08C8797
:101A7000DF91CF91FF90EF90DF90CF90089561E0DC
:101A800070E080E090E00E9407080E943908AB01F6
:101A9000BC014C195D096E097F098D859E85B0E0FA
:101AA000A0E0481759076A077B07D8F28C850E9487
:101AB000B40CDCCFCF93FC01C08D80E591E00E9497
:101AC000520760E270E08C2F0E94980C62E070E098
:101AD0008C2F0E947B0C84FD16C062E070E08C2F7E
:101AE0000E947B0C83FF0AC048E162E070E08C2F0B
:101AF0000E94870980E090E0CF91089580E591E011
:101B00000E945207E3CF40E162E070E08C2F0E9418
:101B1000870981E0F0CFCF93DF931F92CDB7DEB777
:101B200041E050E0BE016F5F7F4F90E080E00E9497
:101B3000F00B89810F90DF91CF910895CF93DF93C0
:101B4000C4E1D0E00E948B0D882361F061E070E079
:101B500080E090E00E9407082197A1F780E0DF91E4
:101B6000CF91089581E0FBCF1F93CF93DF9300D0F7
:101B7000CDB7DEB760E372E080E090E00E94070836
:101B80001FB7F8948091BD01811124C0E0E3FEE00D
:101B90008491E4E4FEE09491E82FF0E0EE0FFF1F63
:101BA000E45EF14FA591B491EC91E92321F461E059
:101BB0008AE00E94B4078AE00E9455078CB58061D4
:101BC0008CBD8CB580648CBD8DE00E9455078BE088
:101BD0000E9455078091BD018F5F8093BD011FBF9B
:101BE00080910001282F30E0F901EA5DF14FE49186
:101BF000F0E0EE0FFF1FEE5EF14F459154915093D0
:101C0000BC014093BB01F901E65CF14FE491E09324
:101C1000BA010E9455070E945F0880E591E00E948A
:101C2000520784E38093F80480E80E942B090E9405
:101C30009E0D882309F448C088E00E942B090E9469
:101C40008B0D883009F040C080E10E942B090E9472
:101C50008B0D8031C9F580E00E942B090E948B0D0D
:101C6000182F811131C041E050E0BE016F5F7F4FFE
:101C70008FE190E00E94F00B8981833029F580E4A8
:101C80008093BE0142E06EE170E0812F0E948709DF
:101C900042E06FE170E0812F0E9487091F5F1430DE
:101CA00089F740E06EE170E0812F0E94870940E0F3
:101CB0006FE170E0812F0E9487091F5F183089F75C
:101CC00081E08093F9046AC087E38093F80480E898
:101CD0000E942B090E949E0D882329F188E00E9412
:101CE0002B090E948B0D8830F1F480E10E942B09B2
:101CF0000E948B0D182F8031B1F480E00E942B09D7
:101D00000E948B0D81110FC041E050E0BE016F5F5A
:101D10007F4F89E390E00E94F00B8981843019F4B1
:101D20001093BE01CDCF83E38093F80480E80E9436
:101D30002B090E949E0D882371F180E10E942B09DE
:101D40000E948B0D803139F582E10E942B090E949F
:101D50008B0D823101F580E00E942B090E948B0DD2
:101D6000811119C084E08093BE0115E51A8341E01A
:101D700050E0BE016E5F7F4F8BE190E00E947B08D8
:101D8000198341E050E0BE016F5F7F4F8AE190E030
:101D90000E947B0895CF1092F80480E00F900F907E
:101DA000DF91CF911F910895CF92DF92EF92FF9232
:101DB0000F931F93CF93DF93EC018B017A0169019D
:101DC0008091F904882371F180E591E00E94520727
:101DD00046E050E06FE571E089E090E00E947B080A
:101DE000CE0102960E940D0AC70102960E941B0AAC
:101DF000C60102960E94140AF80182819381A4818F
:101E0000B58180932B0590932C05A0932D05B0935D
:101E10002E05DF91CF911F910F91FF90EF90DF90F2
:101E2000CF9008950E94B40D882399F3CDCF1F93CE
:101E3000CF93DF931F92CDB7DEB7182F80E591E0E7
:101E40000E945207812F0E943E0927E0129FF00155
:101E50001124EC52FB4F22813381377041E050E076
:101E6000BE016F5F7F4F820F931F0E94F00B89812D
:101E70000F90DF91CF911F910895FC01808D8430E8
:101E800040F4218D328D232B21F00E94170F90E01A
:101E900008958FEF9FEF0895CF93DF93FC01248582
:101EA000243028F08FEF9FEFDF91CF910895EC0160
:101EB0000190F081E02D0084F185E02D0995892BBA
:101EC00089F38C850E94170F90E0EECFDA01E09144
:101ED000BE01F0E0FE2FEE27E60FF71F90E0982FEF
:101EE0008827A901BD018E0F9F1F0C94F00B8F92C4
:101EF0009F92AF92BF92CF92DF92EF92FF921F9389
:101F0000CF93DF93CDB7DEB72C970FB6F894DEBF33
:101F10000FBECDBF2091F80414E0222329F16B01FC
:101F20007C0180E591E00E9452075E0127E0A20E4D
:101F3000B11C450110E0812F0E94CD0CF40181936A
:101F40004F01882349F11F5F1430A9F710E0F50114
:101F500081915F018D31D9F08831C9F08A51823089
:101F6000B0F01F5F143099F7812F2C960FB6F894BC
:101F7000DEBF0FBECDBFDF91CF911F91FF90EF90DD
:101F8000DF90CF90BF90AF909F908F90089560E1C9
:101F900070E0812F0E94980CA12EB12CF501EE0F5C
:101FA000FF1FE051FB4F1182108283EE93E00197F7
:101FB000F1F742E870E060E0812F0E9487094FEF5F
:101FC00062E070E0812F0E948709B601C114D1043C
:101FD00091F4809103019091040101968115F0EC38
:101FE0009F0708F45CC09093040180930301609103
:101FF000030170910401812F0E94720986E0E7E1DC
:10200000F1E0DE01119601900D928A95E1F7F7015A
:1020100083818F778C8384818D8385818E83A701D3
:102020004E5F5F4F24E030E06CE070E0812F0E9453
:102030004C09B601812F0E945D0926E030E0AE0117
:102040004F5F5F4F66E070E0812F0E944C0961E0B6
:1020500070E0812F0E94980C27E02A9DC0012B9DE3
:10206000900D11249C012C523B4F7901F9011182F2
:10207000108222E030E0AE01455F5F4F68E270E021
:10208000812F0E94660F8B859C859827892798272A
:10209000F7019383828316821582148265CF80E0D4
:1020A00090ECA1CFCF92DF92EF92FF920F931F930C
:1020B000CF93DF9300D000D000D0CDB7DEB78C0136
:1020C0006B017A01FC01808D843010F40E94B40C05
:1020D00083E991E09A838983F60182819381A481C7
:1020E000B5818B839C83AD83BE83B701CE010196FE
:1020F0000E94770FF801808F8430A0F4F586E48683
:10210000128E118E81E026960FB6F894DEBF0FBEB8
:10211000CDBFDF91CF911F910F91FF90EF90DF9096
:10212000CF90089580E0EFCFAF92BF92CF92DF9231
:10213000EF92FF920F931F93CF93DF9300D000D0C5
:1021400000D0CDB7DEB7082F6B0180E591E00E948B
:1021500052079E012F5F3F4F7901590110E0812FF7
:102160000E94CD0CF50181935F01882341F11F5F2F
:102170001430A9F710E0F70181917F018D31D1F082
:102180008831C1F08A518230A8F01F5F143099F76E
:10219000812F26960FB6F894DEBF0FBECDBFDF911C
:1021A000CF911F910F91FF90EF90DF90CF90BF9054
:1021B000AF90089560E170E0812F0E94980CE12EAD
:1021C000F12CF701EE0FFF1FE051FB4F118210823F
:1021D00083EE93E00197F1F7402F70E060E0812FEC
:1021E0000E9487094FEF62E070E0812F0E9487090B
:1021F000B601CD2889F480910301909104010196E4
:102200008115F0EC9F0798F19093040180930301EE
:102210006091030170910401812F0E94720961E0B5
:1022200070E0812F0E94980C27E02E9DC0012F9D09
:10223000900D11249C012C523B4F7901F901118220
:10224000108222E030E0AE014B5F5F4F68E270E049
:10225000812F0E94660F8D819E819827892798275C
:10226000F7019383828316821582148291CF80E0D6
:1022700090ECCACFCF92DF92EF92FF921F93CF9351
:10228000DF93EC017B016A018C85843048F40E9465
:10229000D10C882319F08C850E94A80C84E08C87CF
:1022A000F70182819381A481B5810097A105B105D1
:1022B00051F490E080E0DF91CF911F91FF90EF907B
:1022C000DF90CF9008958F3F9F4FAF4FBF4F89F35F
:1022D0008091F804811103C084E08C87EACF70E01C
:1022E00060E081E20E949410182F8C87843008F7F8
:1022F00080E591E00E945207A7014E5F5F4F24E006
:1023000030E06CE070E0812F0E944C09B601812F13
:102310000E945D0964E070E0812F0E94980C0E9489
:1023200039086B017C018C850E94D10C873109F141
:102330008C31F9F0882309F4BCCF0E943908AB0135
:10234000BC014C195D096E097F098D859E85B0E041
:10235000A0E084179507A607B70738F061E070E0A2
:1023600080E090E00E940708DECF8C850E94B40CCC
:10237000B3CF81E090E09FCF0F931F93CF93DF9374
:10238000EC018B01888D843010F40E94B40C809194
:10239000F804811107C094E0988FDF91CF911F91CD
:1023A0000F910895B80182E00E949410888F8430C4
:1023B00030F41D870C871A8E198E81E0EECF80E0F5
:1023C000ECCF0F931F93CF932091F804222349F170
:1023D0008C01FC016481758181E20E949410C82FF8
:1023E0008430F8F480E591E00E9452078C2F0E941F
:1023F000CD0C833131F08C2FCF911F910F910C9424
:10240000A80C62E070E08C2F0E94980CF801848187
:102410009581EC2FF0E0EE0FFF1FE051FB4F918311
:102420008083CF911F910F9108957F928F929F92F9
:10243000AF92BF92CF92DF92EF92FF920F931F93D2
:10244000CF93DF9300D0CDB7DEB7782E8B014A0152
:10245000590122E030E0AE014F5F5F4F64E270E06F
:102460000E94660FE980FA80FE24EF24FE24E00E2D
:10247000F11E970137704091F804072D10E04333A7
:1024800009F042C0085F1F4F102F0027110F110FD6
:10249000110FC901800F911F4733C9F1A9014A0DDE
:1024A0005B1D4130584098F160E078E06B01C21A42
:1024B000D30AA601B4010E947B08A5014C195D094D
:1024C000B4016C0D7D1DC8010E947B08EA0CFB1C49
:1024D000F982EA8222E030E0AE014F5F5F4F64E2B2
:1024E00070E0872D0E944C090F900F90DF91CF91E3
:1024F0001F910F91FF90EF90DF90CF90BF90AF9022
:102500009F908F907F900895005F1F4FBDCFA501D2
:10251000B401DACFEF92FF921F93CF93DF9300D0F5
:10252000CDB7DEB7182F22E030E0AE014F5F5F4F2E
:1025300060E270E00E94660FE980FA80FE24EF24DA
:10254000FE2422E030E0AE014F5F5F4F60E270E0BA
:10255000812F0E94660F89819A8198278927982761
:10256000E816F90689F487E0189FF0011124EC526F
:10257000FB4FF582E482C7010F900F90DF91CF915E
:102580001F91FF90EF9008957C01DBCF1F93CF93B5
:10259000DF93182F80E591E00E945207812F0E945F
:1025A0008A12EC01812F0E94CD0C873121F08C31F1
:1025B00011F0D0E0C0E0CE01DF91CF911F910895DE
:1025C000CF93DF93EC018C85843060F40E94D10CB2
:1025D000873111F08C3131F48C850E94C61281153F
:1025E000984088F3DF91CF910895FC018485843071
:1025F00010F40C94C61290E080E00895CF92DF9220
:10260000EF92FF921F93CF93DF93182F7B01EA0184
:102610004130584010F0C0E0D8E080E591E00E94E1
:102620005207812F0E948A126C01812F0E94CD0CCB
:10263000873111F08C3121F5CC16DD0670F380E581
:1026400091E00E9452079E01A70170E060E0812F97
:102650000E94151260E270E0812F0E94980C62E0E7
:1026600070E0812F0E947B0C84FD0DC0812F0E94A1
:10267000CD0C8823B9F080E591E00E945207EFCF9E
:10268000D0E0C0E0DCCF40E162E070E0812F0E944A
:102690008709CE01DF91CF911F91FF90EF90DF90DE
:1026A000CF900895D0E0C0E0F4CF0F931F93CF9365
:1026B000DF938C01EA01FC018485843048F40E9498
:1026C000FE12892B39F481E090E0F8019383828334
:1026D000D0E0C0E0CE01DF91CF911F910F9108951E
:1026E000CF92DF92EF92FF920F931F93CF93DF93DE
:1026F000CDB7DEB7A0970FB6F894DEBF0FBECDBF43
:102700006C017B01C7010E94FF288823A9F0813258
:1027100008F080E2082F10E0A801B701CE01019671
:102720000E94F628A801BE016F5F7F4FC6010E947C
:102730005513E00EF11EE6CFA0960FB6F894DEBF5B
:102740000FBECDBFDF91CF911F910F91FF90EF9002
:10275000DF90CF9008959F92AF92BF92CF92DF9279
:10276000EF92FF920F931F93CF93DF938C015B0146
:10277000942EE52EFC01C688D788F08C80E591E088
:102780000E9452078F2D0E948A12C92DDE2D8C17B0
:102790009D0708F4EC019E01A501B6018F2D0E9452
:1027A0001512F801868997898C0F9D1F978B868B50
:1027B000CE01DF91CF911F910F91FF90EF90DF90AD
:1027C000CF90BF90AF909F900895CF93DF93C82F85
:1027D000CC2371F0DC2FC13108F0D0E14D2F50E057
:1027E0006DE171E087E495E00E94AB13CD1BF0CF63
:1027F000DF91CF910895EF92FF920F931F93CF93A4
:10280000DF93162F082FEC01862F8150990B7C0146
:102810008C2F801BFE016491662349F021968E1552
:102820001F042CF487E495E00E94A409F1CF181B43
:10283000812FDF91CF911F910F91FF90EF900C941A
:10284000E513FF920F931F93CF93DF9300D0CDB783
:10285000DEB7F82E22E030E0AE014F5F5F4F66E258
:1028600070E00E94660F09811A8110270127102746
:1028700022E030E0AE014F5F5F4F66E270E08F2DE7
:102880000E94660F89819A819827892798270817BF
:10289000190749F4C8010F900F90DF91CF911F9154
:1028A0000F91FF9008958C01E3CF1F93CF93DF9397
:1028B000182F87E0189FE0011124CC52DB4F88814C
:1028C0009981009761F480E591E00E945207812F81
:1028D0000E9421142E81821B910999838883DF91A4
:1028E000CF911F910895AF92BF92CF92DF92EF9256
:1028F000FF920F931F93CF93DF93EC017B018091A5
:10290000F804811120C01B821A8288EE93E0A0E0B7
:10291000B0E08C839D83AE83BF8381E391E0998394
:10292000888384E08C8788EE93E09E878D87CE0134
:10293000DF91CF911F910F91FF90EF90DF90CF909B
:10294000BF90AF90089580EFC82E84E0D82E10E09D
:1029500094E0B92EA12CD6012D913D916D01F70186
:10296000848195812817390791F4812F0E94D10C19
:10297000082F873111F08C3139F5812F0E945514C1
:10298000892B59F50C3119F4812F0E94A80C1F5F77
:10299000143009F7A11008C0D701ED91FC91008413
:1029A000F185E02DC70109951B821A8288EE93E01C
:1029B000A0E0B0E08C839D83AE83BF8381E391E090
:1029C00099838883BC86AFCF843149F08111DFCFF2
:1029D000F601329711821082DACFB12ED8CFAA2415
:1029E000A394D5CF8F929F92AF92BF92CF92DF9256
:1029F000EF92FF921F93CF93DF93CDB7DEB72F9760
:102A00000FB6F894DEBF0FBECDBF5C014B017A015B
:102A10008091F8048823A1F1B501CE0101960E94AE
:102A2000731480EFC82E84E0D82E10E0F6012191B7
:102A300031916F01F501848195812817390751F48F
:102A4000812F0E94D10C873129F4A701B401812F75
:102A50000E94FE121F5F143049F7C7012F960FB670
:102A6000F894DEBF0FBECDBFDF91CF911F91FF90D5
:102A7000EF90DF90CF90BF90AF909F908F90089590
:102A8000F12CE12CEACFFC018485843010F40C9405
:102A9000551490E080E008954F925F927F928F925C
:102AA0009F92AF92BF92CF92DF92EF92FF920F93DD
:102AB0001F93CF93DF9300D0CDB7DEB7782E6B0195
:102AC0004A01A82EB12C27E0829FC0011124FC01ED
:102AD000EC52FB4F7F010081118180E591E00E9463
:102AE00052070815190554F4872D0E942114F70187
:102AF00026818C01021B1109118300830115110528
:102B000019F5872D0E94CD0C843159F0882349F0A6
:102B100001E010E08C3111F410E000E01195019516
:102B20001109C8010F900F90DF91CF911F910F9164
:102B3000FF90EF90DF90CF90BF90AF909F908F90DD
:102B40007F905F904F900895801691060CF4840159
:102B500087E08A9DF0018B9DF00D1124EC52FB4F14
:102B6000E280F380C114D10451F12701F7E05F2224
:102B7000872D0E943E09840D951D2091F80427336E
:102B800009F453C09801240D351D2130384008F454
:102B90004CC020E038E0490184189508A401B60132
:102BA0000E94F00B2601480C591C6801C818D9086E
:102BB000872D0E943E09A601B2010E94F00BE00E93
:102BC000F11E87E08A9DF0018B9DF00D1124EC52DF
:102BD000FB4FF382E28220813181201B310B318354
:102BE00020838681800F912F911D8A3F910510F4DB
:102BF000232BF1F487E08A9DF0018B9DF00D1124C9
:102C0000EC52FB4F1682F982EA8222E030E0AE01FC
:102C10004F5F5F4F68E270E0872D0E944C0960E4CF
:102C200070E0872D0E94980C7CCFA801B601C5CF1B
:102C3000868377CFCF93DF93FC01218D328D2115D1
:102C4000310529F48FEF9FEFDF91CF910895EC01CB
:102C5000808D4217530708F0A9010E944C151816E1
:102C6000190684F7298D3A8D281B390B3A8F298F45
:102C7000EBCF0F931F93CF93DF931F92CDB7DEB7A8
:102C8000FC01218D328D232B41F48FEF9FEF0F90AC
:102C9000DF91CF911F910F9108958C0141E050E099
:102CA000BE016F5F7F4FFC01808D0E944C1518168E
:102CB00019065CF7F801818D928D0197928F818FB3
:102CC000898190E0E4CFCF93DF931F92CDB7DEB739
:102CD00041E050E0BE016F5F7F4FFC0184850E94A0
:102CE0004C151816190634F4898190E00F90DF9185
:102CF000CF9108958FEF9FEFF9CFFC018485843049
:102D000010F40C944C1590E080E008950F931F93FD
:102D1000CF93DF9300D0CDB7DEB7FC0124852430FC
:102D2000E0F48C0180E591E00E94520722E030E05F
:102D3000AE014F5F5F4F60E170E0F80184850E9453
:102D4000660F89819A819827892798270F900F907D
:102D5000DF91CF911F910F91089590E080E0F6CF21
:102D60000F931F93CF93DF9300D0CDB7DEB7FC0155
:102D700024852430E0F48C0180E591E00E94520724
:102D800022E030E0AE014F5F5F4F64E070E0F80199
:102D900084850E94660F89819A81982789279827C0
:102DA0000F900F90DF91CF911F910F91089590E0B8
:102DB00080E0F6CFDC0183E991E08D939D9384E080
:102DC000FB0101900D928A95E1F70895EF92FF9231
:102DD0000F931F93CF93DF9300D000D0CDB7DEB712
:102DE0008C017B01FB0184858430A8F083E991E0AC
:102DF000F801918380831282138214821582C801A4
:102E00000F900F900F900F90DF91CF911F910F9126
:102E1000FF90EF90089580E591E00E94520724E032
:102E200030E0AE014F5F5F4F6CE070E0F7018485EA
:102E30000E94660FBE016F5F7F4FC8010E94DA16C5
:102E4000DECF0F931F93CF93DF93CDB7DEB72897D5
:102E50000FB6F894DEBF0FBECDBF8C01D8015996D6
:102E60004D915C915A974115510551F0ED91FC91AE
:102E7000048CF58DE02D70E060E0C8010995EECF7F
:102E8000F801808D0E945514892BB1F148E050E083
:102E9000BE016F5F7F4FD80158968C910E944C15F0
:102EA00018161906F4F4D801509684E0FE01319604
:102EB00001900D928A95E1F78D8190E0982F8827F7
:102EC0002E81820F911DF801958B848B8F81282F85
:102ED00030E0322F22278885820F932F911D928F09
:102EE000818F28960FB6F894DEBF0FBECDBFDF915D
:102EF000CF911F910F91089590E080E0F2CF4F9213
:102F00005F926F927F928F929F92AF92BF92CF9279
:102F1000DF92EF92FF920F931F93CF93DF93CDB782
:102F2000DEB763970FB6F894DEBF0FBECDBF7C014E
:102F30006B013A01FB0120E090E080E06AE0319112
:102F4000332309F461C040ED430F4A3008F04DC00F
:102F5000689FA001699F500D1124CA01C097830F7B
:102F6000911D37FD9A958F3F910549F340F3F70185
:102F70004281538164817581809137059091380534
:102F8000A0913905B0913A05481759076A077B07A0
:102F900009F40DC28701085F1F4F0E9439086F7046
:102FA00077277C5FC8010E94BC11813009F004C200
:102FB00083E991E09A838983F70182819381A481D7
:102FC000B5818B839C83AD83BE8345E350E0BE0116
:102FD0006F5F7F4FC8010E94230A892BA9F5D12C6E
:102FE000C12CC8010E94C00C17C03E3209F0BFCFEF
:102FF000233009F4BCCFD301A20FB11D12968C93DC
:103000002F5F90E080E09BCF233009F0B0CFF30139
:103010008583CC24C394D12CC60163960FB6F89453
:10302000DEBF0FBECDBFDF91CF911F910F91FF90FB
:10303000EF90DF90CF90BF90AF909F908F907F9058
:103040006F905F904F9008950E943908F701778341
:10305000668342E050E0B7016A5F7F4FC8010E947B
:10306000AB1381E090E09A83898342E050E0BE0197
:103070006F5F7F4FC8010E94AB1380E091E09A839D
:10308000898342E050E0BE016F5F7F4FC8010E941C
:10309000AB131A82198242E050E0BE016F5F7F4F8E
:1030A000C8010E94AB1342E050E0BE016F5F7F4F4A
:1030B000C8010E94AB1342E050E0BE016F5F7F4F3A
:1030C000C8010E94AB135601F6018081882301F1EB
:1030D0006501F60181912F01882311F08E32B1F440
:1030E00046018A189B081814190474F48D8641E06F
:1030F00050E0BE01635F7F4FC8010E94AB13A40183
:10310000B501C8010E94AB135201DECF6201E1CFCD
:103110001D8641E050E0BE01635F7F4FC8010E9401
:10312000AB13C12CDD24D394DA82C98242E050E093
:10313000BE016F5F7F4FC8010E94AB13DA82C98264
:1031400042E050E0BE016F5F7F4FC8010E94AB13A9
:10315000C8010E945A0D892B09F441CFF3E0AF2E2C
:10316000B12C230122E0420E511CD4C0F701428150
:10317000538164817581808D918DA28DB38D4817A7
:1031800059076A077B0709F008C1848D958DC5979B
:1031900009F003C181A192A15DEFC52EDD24DA946F
:1031A0000C970CF4ADC04CE050E0BE016F5F7F4F58
:1031B000C8010E941A168B819C819827892798271D
:1031C0009A8B898BF7014681578129813A81421771
:1031D000530709F0E7C097FFE5C08F7092703BEF8F
:1031E000C32EDD24DA94892B09F08AC06F8078849D
:1031F0007624672476242AEFC22EDD24DA94611423
:10320000710409F47DC0D12CC12C8D819E81982739
:1032100089279827C816D906F8F441E050E0BE0186
:10322000635F7F4FC8010E941A164D85442331F019
:1032300050E070E060E0C8010E941A168D8581118F
:10324000ECCF44E050E070E060E0C8010E941A1644
:10325000FFEFCF1ADF0AD9CF912C812C41E050E04B
:10326000BE016D5E7F4FC8010E941A164B89842FE4
:10327000807C09F06CC0442331F050E070E060E0E5
:10328000C8010E941A168B898111E8CF42E050E0F4
:10329000BE01615F7F4FC8010E941A1642E050E0F4
:1032A000BE01635F7F4FC8010E941A1644E050E0E0
:1032B00070E060E0C8010E941A1642E050E0BE01D2
:1032C0006F5E7F4FC8010E941A168F8598894989C1
:1032D0005A898115914009F043C0CD84DE84DC24F5
:1032E000CD24DC2481E0C816D104D1F54115544029
:1032F00009F04AC044E050E0B201C8010E941A1629
:1033000021E0A21AB10809F46CCEFFEFCF16DF0658
:1033100009F067CE0E9439083B014C01C8010E94A8
:103320002117181619060CF421CF0E9439086619C6
:10333000770988099909693873418105910548F52C
:1033400062E370E080E090E00E940708E7CF41E090
:1033500050E070E060E0C8010E941A161B8A93CF0B
:1033600054274527542770E060E0C8010E941A16D0
:10337000FFEF8F1A9F0A6814790409F06FCF96EF58
:10338000C92EDD24DA94BCCFE7EFCE2EDD24DA940B
:10339000B7CFCC24CA94DC2CB3CF6EEFC62EDD247D
:1033A000DA94AECF4CEFC42EDD24DA94A9CF8EEFA1
:1033B000C82EDD24DA9430CED12CC12C2DCECF9264
:1033C000DF92EF92FF920F931F93CF93DF93CDB7CE
:1033D000DEB7AF970FB6F894DEBF0FBECDBF7C014E
:1033E0006A0103E911E01A8309831C861B8688EEB3
:1033F00093E0A0E0B0E08D879E87AF87B88B89E629
:1034000091E09A878987188F0F8B198E1A8E1B8EE1
:103410001C8E84E089A31BA70AA71CA61DA61EA6B6
:103420001FA680912B0590912C05A0912D05B091A0
:103430002E058EA39FA3A8A7B9A78B839C83AD83DA
:10344000BE8318861F82AE01465D5F4FCE01019696
:103450000E947F1781309105B1F4D701ED91FC9165
:103460000488F589E02D1DA30CA38CA59DA5AEA510
:10347000BFA58EA39FA3A8A7B9A7A601BE016C5D97
:103480007F4FC7010995AF960FB6F894DEBF0FBE08
:10349000CDBFDF91CF911F910F91FF90EF90DF9003
:1034A000CF900895CF92DF92EF92FF920F931F93E8
:1034B000CF93DF93CDB7DEB7AF970FB6F894DEBFEB
:1034C0000FBECDBF8C016B017A0183E991E09A8335
:1034D00089831B821C821D821E821C861B8648EEED
:1034E00053E060E070E04D875E876F87788B29E658
:1034F00031E03A872987988F8F8B198E1A8E1B8E11
:103500001C8E24E029A39BA78AA71CA61DA61EA685
:103510001FA6D8011C968C91843060F40E94D10CB7
:10352000882321F0F80184850E94A80C84E0D8014A
:103530001C968C9380912B0590912C05A0912D05C4
:10354000B0912E058EA39FA3A8A7B9A78B839C83B8
:10355000AD83BE8318861F82AE01465D5F4FB60104
:10356000CE0101960E947F170097C1F0D801ED911E
:10357000FC910684F785E02D83E991E09DA38CA35F
:103580008CA59DA5AEA5BFA58EA39FA3A8A7B9A7EF
:10359000A701BE016C5D7F4FC8010995AF960FB6BC
:1035A000F894DEBF0FBECDBFDF91CF911F910F9179
:1035B000FF90EF90DF90CF9008953F924F925F92EF
:1035C0006F927F928F929F92AF92BF92CF92DF9233
:1035D000EF92FF920F931F93CF93DF93CDB7DEB798
:1035E000EA970FB6F894DEBF0FBECDBF7C012A016B
:1035F0003B0169010E9439084B015C0187010D5BA9
:103600001F4FC8010E942117181619069CF00E942E
:103610003908681979098A099B0946165706680608
:10362000790608F466C162E370E080E090E00E94F1
:103630000708E7CF42E250E0BE016F5F7F4FC8014D
:103640000E941A1689818230D1F0312C832DEA969E
:103650000FB6F894DEBF0FBECDBFDF91CF911F91A3
:103660000F91FF90EF90DF90CF90BF90AF909F9021
:103670008F907F906F905F904F903F900895F801EA
:10368000848995898334910501F76D817E818F81CD
:1036900098850E94BB294B015C01F60180829182D2
:1036A000A282B38246E050E0B701685F7F4FCE014F
:1036B0004D960E94E72A892B41F6F701808191817E
:1036C000A281B38188169906AA06BB0608F4BDCF6D
:1036D00084819581A681B78188159905AA05BB05C6
:1036E00008F4B3CF89899A89AB89BC898687978783
:1036F000A08BB18B4EEC50E070E060E0C8010E94FE
:103700001A16312CC701829698AB8FA7F701B6968F
:10371000FAABE9AB08969CAB8BAB67019AE1C90E9B
:10372000D11CBD96FEABEDABC701429698AF8FABF7
:10373000FD97FAAFE9AF4701FEE18F0E911CF8014A
:10374000818D928D181619060CF080CFC8010E9449
:1037500039168333910509F4B2C014F5813091050F
:1037600009F464C044F4892B51F3C8010E9439164E
:10377000AC01552775C08330910509F462C00697E6
:10378000A1F7C8010E943916B82E44E050E0B401F8
:10379000C8010E941A16EB2DE450FF0BAF0160C068
:1037A0008A33910509F45FC084F585339105B1F141
:1037B000C697D9F6C8010E9439165C01B601CE0140
:1037C00089960E94DA168BA59CA5ADA5BEA5892B6E
:1037D0008A2B8B2BB1F0EDA9FEA94080518062802D
:1037E0007380B601CE0183960E94DA168DA19EA148
:1037F000AFA1B8A5A501481659066A067B0609F0CF
:10380000B8CF44E050E0B60118C08B33910509F4FD
:1038100040C08F3F910509F492CFA7CFC8010E9405
:103820003916C8010E943916382E89CFC8010E9466
:10383000391644E050E06FA978ADC8010E941A160D
:103840007ECFC8010E943916B82E44E050E069AD21
:103850007AADC8010E941A168B2D8450990BAC01C9
:1038600070E060E0EACFC8010E94391644E050E001
:1038700069A97AA9C8010E941A16F70166A177A161
:1038800080A591A50E94BB2966A377A380A791A7D5
:1038900056CFC8010E94391644E050E06BA97CA9BC
:1038A000C8010E941A16F70162A573A584A595A503
:1038B0000E94BB2962A773A784A795A740CFC80120
:1038C0000E94391644E050E06FA578A9C8010E9413
:1038D0001A16F70162A173A184A195A10E94BB29C8
:1038E00062A373A384A395A366A777A780AB91ABCC
:1038F00026CF33243A94AACE0C945E2A7F928F92DC
:103900009F92AF92BF92CF92DF92EF92FF920F936E
:103910001F93CF93DF93CDB7DEB7A6970FB6F8947A
:10392000DEBF0FBECDBF8C01762E942E852E20E2F9
:10393000A22ECE0101967C01DC01EA2D1D92EA95B2
:10394000E9F76801F3E4CF0ED11C83E991E09AA373
:1039500089A38FEF8BA38CA38DA38EA343E450E0A8
:10396000BE016F5D7F4FC6010E94230A019609F4D4
:10397000BFC081E089838A8386E0B82EBB821C8227
:10398000D80114966D917D918D919C9117970E940D
:10399000BB296D837E838F83988789869A8680E88A
:1039A00090E09C878B874CE150E0B701C6010E94F4
:1039B000AB13FE0137968AE1DF011D928A95E9F784
:1039C0004801B8E08B0E911CF401D70101900D92D3
:1039D000BA94E1F740E150E0B701C6010E94AB1391
:1039E000F7011192AA94E9F796E0A92EB12C40E2D2
:1039F00050E0B701C6010E94AB13F1E0AF1AB10865
:103A0000B1F783E6898392E89A8393E59B838C835D
:103A100085E38D8381E08E837F829DE3988797E0A5
:103A200099878A8786E0F401DE011B9601900D924A
:103A30008A95E1F78CE0898B8A8B65EA71E0CE018B
:103A400043960E94062BD8011B966C91CE01499695
:103A50000E947407F8016485CE014B960E9474079A
:103A6000D8011D966C91CE014D960E9474074EE1CF
:103A700050E0B701C6010E94AB13B3E07B121EC039
:103A800082E3898384E08A83F80196859B83978506
:103A90009C8390899D8391899E8396E39F838887E9
:103AA000828D8987838D8A87848D8B87858D8C878E
:103AB0004CE050E0B701C6010E94AB1387E3898355
:103AC00086E08A8391E09B8393E09C838D838FE0E3
:103AD0008E838AE38F838BE388878FEF898749E022
:103AE00050E0B701C6010E94AB13C6010E945A0DF7
:103AF000A6960FB6F894DEBF0FBECDBFDF91CF9173
:103B00001F910F91FF90EF90DF90CF90BF90AF90FB
:103B10009F908F907F9008952F923F924F925F9247
:103B20006F927F928F929F92AF92BF92CF92DF92CD
:103B3000EF92FF920F931F93CF93DF9300D000D0AB
:103B400000D0CDB7DEB78C010E9480282FEC37E083
:103B500040E050E00E945229DC01CB010196A11DFA
:103B6000B11DF80184839583A683B78380839183F5
:103B7000A283B3835801F3E4AF0EB11CC5010E94C8
:103B8000C00C64E470E0C5010E94BC11882309F4F4
:103B900045C10E9439082B013C01480182E4880E8E
:103BA000911C48EEC42E43E0D42EE12CF12C52E0BF
:103BB000252E1E821D82D4018C918330B1F181119A
:103BC00066C0F80184819581A681B7810196A11D07
:103BD000B11D84839583A683B7830E943908641935
:103BE000750986099709A70196010E948429A901F0
:103BF00061E0C8010E947E1C81E0D4018C938D811C
:103C00009E810197C1F20E943908641975098609DD
:103C10009709D801D6962D913D914D915C91D997F8
:103C2000261737074807590720F6C5010E94C00C20
:103C3000F80184819581A681B7810196A11DB11DEE
:103C400084839583A683B7830E943908F801FE9682
:103C500060837183828393838D819E8126960FB6C4
:103C6000F894DEBF0FBECDBFDF91CF911F910F91B2
:103C7000FF90EF90DF90CF90BF90AF909F908F908C
:103C80007F906F905F904F903F902F900895843079
:103C9000F1F4F80184819581A681B7810196A11D77
:103CA000B11D84839583A683B7830E943908641964
:103CB000750986099709A70196010E948429A9011F
:103CC00063E0C8010E947E1CD4012C9298CF813001
:103CD00051F5F80142AD53AD64AD75AD9E012F5F56
:103CE0003F4FC8010E94DD1A382EF2E08F1390C0BA
:103CF00089819A81AB81BC81F80184839583A683F5
:103D0000B7830E9439086419750986099709A701C4
:103D100096010E948429A90163E0C8010E947E1CCB
:103D2000D4013C926CCF823009F069CFF80142ADEA
:103D300053AD64AD75AD9E012F5F3F4FC8010E942A
:103D4000DD1A382EF5E08F135DC0E3E0D401EC936B
:103D5000F80182A193A1A4A1B5A1892B8A2B8B2B59
:103D600041F484E893E0A0E0B0E082A393A3A4A38D
:103D7000B5A3F80186A197A1A0A5B1A5892B8A2B8F
:103D80008B2B61F482A193A1A4A1B5A1B695A795AF
:103D90009795879586A397A3A0A7B1A7F80182A5B9
:103DA00093A5A4A5B5A5892B8A2B8B2BA9F482A159
:103DB00093A1A4A1B5A1AC01BD0123E076956795BF
:103DC000579547952A95D1F7841B950BA60BB70BF2
:103DD00082A793A7A4A7B5A7F80186A197A1A0A53C
:103DE000B1A586A797A7A0ABB1AB82A593A5A4A5C3
:103DF000B5A582AB93ABA4ABB5AB81E090E09E835D
:103E00008D83FDCE96E0891303C0D4011C92F7CEBA
:103E1000BFEF3B12F4CEF4011082F1CE1E821D8260
:103E20001BCF1F920F920FB60F9211242F933F9327
:103E30008F939F93AF93BF938091CC049091CD04C7
:103E4000A091CE04B091CF043091CB0423E0230F96
:103E50002D3758F50196A11DB11D2093CB048093F9
:103E6000CC049093CD04A093CE04B093CF04809162
:103E7000D0049091D104A091D204B091D3040196C2
:103E8000A11DB11D8093D0049093D104A093D204BE
:103E9000B093D304BF91AF919F918F913F912F9198
:103EA0000F900FBE0F901F90189526E8230F0296D3
:103EB000A11DB11DD2CF1F920F920FB60F921124E8
:103EC0002F933F938F939F93EF93FF938091C5011F
:103ED0009091C6012091CA013091CB01213031056A
:103EE000F9F48F3F9807E1F41092C50089E08093C0
:103EF000C40088E48093C1008EE28093C2001092D7
:103F0000C6001092C6011092C501FF91EF919F91DA
:103F10008F913F912F910F900FBE0F901F9018958A
:103F20000097A1F41092C50083E08093C40088E25A
:103F30008093C1008EE08093C2001092C60081E0A1
:103F400090E09093C6018093C501DFCF20910101DD
:103F5000309102018217930770F49C012F5F3F4F4D
:103F60003093C6012093C5018A5C9D4FFC0180817E
:103F70008093C600CACF1092C50083E08093C4002E
:103F800088E48093C1008EE08093C200E091C50177
:103F9000F091C601EA5CFD4F80818093C6008FEFEF
:103FA0009FEFCFCF1F920F920FB60F9211242F9336
:103FB0003F934F935F936F937F938F939F93AF93B1
:103FC000BF93EF93FF930E945B1FFF91EF91BF910F
:103FD000AF919F918F917F916F915F914F913F91A1
:103FE0002F910F900FBE0F901F9018951F920F9258
:103FF0000FB60F9211242F933F934F935F936F93BC
:104000007F938F939F93AF93BF93EF93FF932091F1
:10401000C0008091C6009091C7019130A1F482E068
:104020008093C701FF91EF91BF91AF919F918F91C5
:104030007F916F915F914F913F912F910F900FBEA4
:104040000F901F90189524FF1FC083E08093C70135
:1040500086E392E09093C4018093C3018091C701ED
:10406000853001F78091CA019091CB010397B9F691
:104070001092C50083E08093C40080E18093C1006A
:1040800086E08093C200CECF9330A9F4811129C07D
:1040900084E08093C7010E9439086093BF01709348
:1040A000C0018093C1019093C2018091C30190919E
:1040B000C4010196CFCF943089F6E091C301F0910D
:1040C000C4019081891380833196F093C401E093F9
:1040D000C30180913402909135028E179F0708F03A
:1040E000A1CF85E08093C701B9CFEBE0F5E083E98C
:1040F00091E0918380831282138214821582E1E120
:10410000F5E0918380831282138214821582E7E1A5
:10411000F5E0918380831282138214821582EDE18F
:10412000F5E0918380831282138214821582E3E288
:10413000F5E0918380831282138214821582EFE26C
:10414000F5E0918380831282138214821582E9E262
:10415000F5E0918380831282138214821582E5E355
:10416000F5E0918380831282138214821582EBE33F
:10417000F5E0918380831282138214821582E2E635
:10418000F5E0918380831282138214821582E7E422
:10419000F5E01382128248EE53E060E070E0448361
:1041A00055836683778329E631E0318320839787BF
:1041B0008687108A118A128A138A84E0808FE1E44C
:1041C000F5E01382128289E991E09183808380E592
:1041D00090E0958384830895CF93DF93CDB7DEB7C6
:1041E000EE970FB6F894DEBF0FBECDBF789484B5BE
:1041F000826084BD84B5816084BD85B5826085BDE3
:1042000085B5816085BD80916E00816080936E0070
:104210001092810080918100826080938100809162
:104220008100816080938100809180008160809313
:1042300080008091B10084608093B1008091B000D3
:1042400081608093B00080917A00846080937A00CE
:1042500080917A00826080937A0080917A008160F8
:1042600080937A0080917A00806880937A0010921F
:10427000C10083E00E94550761E083E00E94B4071B
:104280000E94870B82E090E09093C9018093C8015F
:1042900081E08093C7011092C6011092C50186E3A8
:1042A00092E09093C4018093C3010E943908609307
:1042B000BF017093C0018093C1019093C20180E05F
:1042C00092E090930201809301018091010190910D
:1042D00002018A5C9D4F9093350280933402E6E39D
:1042E000F2E087E394E011928E179F07E1F781E0F7
:1042F00090E09093CB018093CA011092C00010917E
:10430000C801812F0E94550760E0812F0E94B407E9
:104310008091CA019091CB018130910509F010C1C3
:1043200061E0812F0E94B40780E290E09093020147
:10433000809301011092C50089E08093C40088E455
:104340008093C1008EE28093C2001092C60080E08C
:1043500092E0909302018093010186E394E09093B0
:104360003502809334028AE0809300018091FE043C
:10437000882309F40FC180912A0281112AC010926A
:1043800012021092110288EE93E0A0E0B0E0809358
:10439000130290931402A0931502B093160289E6BB
:1043A00091E09093100280930F0283E991E0909343
:1043B0001E0280931D0210921F0210922002109282
:1043C00021021092220284E08093270281E08093F0
:1043D0002A028CEC91E09093330280933202809118
:1043E000F904882309F4CAC080E591E00E945207CD
:1043F00046E050E06FE571E089E090E00E947B08C4
:1044000083E991E09A8389831B821C821D821E822C
:10441000CE0103960E940D0A1092EE011092EF0158
:104420001092F0011092F1011092F2011092F3013A
:104430001092F4011092F5011092F6011092F7011A
:104440001092F8011092F90188E893E1A0E0B0E041
:104450008093020290930302A0930402B09305029A
:1044600080ED97E0A0E0B0E0809306029093070211
:10447000A0930802B0930902EAEDF1E084E1DF01C4
:104480001D928A95E9F786E0EFE5F1E0A4EDB1E051
:1044900001900D928A95E1F710920E028CEC91E05A
:1044A0000E948C1D7C01019709F06EC080E591E0AF
:1044B0000E9452070091320210913302B801625FEC
:1044C0007F4FCE0101960E94DA16CE0103960E941C
:1044D0000D0AB8016A5E7F4FCE0101960E94DA167E
:1044E000CE0103960E941B0AB8016E5E7F4FCE017B
:1044F00001960E94DA16CE0103960E94140AB801B2
:10450000625E7F4FCE0101960E94DA168B819C81FC
:10451000AD81BE8180932B0590932C05A0932D0532
:10452000B0932E050E94E2077F7380910301909162
:10453000040168277927709304016093030124C064
:10454000029709F004CF86E392E09093C401809330
:10455000C30181E08093C7011092C50083E080937E
:10456000C40080E98093C10086E08093C2008091FE
:10457000C00087FFECCE8091C600F9CF0E94B40D39
:10458000F12CE12C811130CF81E0EF2809F480E09B
:104590008093CA048091CA04811145C06FEF74E012
:1045A000CE01C9960E94DA1663E075E0CE01C3968B
:1045B0000E94DA1667E075E0CE018D960E94DA1649
:1045C00083E991E09A8389834DA95EA96FA978ADAB
:1045D0004B835C836D837E839B8B8A8B4FA558A90D
:1045E00069A97AA94C8B5D8B6E8B7F8B9AA389A36B
:1045F0004BA35CA36DA37EA398A78FA38BAD9CADAB
:10460000ADADBEAD89A79AA7ABA7BCA79E012F5F92
:104610003F4FAE014E5E5F4FBE016F5D7F4FCE01DB
:1046200087960E94D40E66E379E187E495E00E94C4
:10463000BC1181E495E00E94E11160E083E00E94FA
:10464000B40778EE872E73E0972EA12CB12C7E0153
:10465000E7E0EE0EF11C8091CA04882309F4CBC078
:1046600000913202109133020115110509F4C3C003
:104670000E9439082B013C016801FEE3CF0ED11CDA
:10468000F60180819181A281B381A3019201281B4F
:10469000390B4A0B5B0BCA01B901683E33E0730763
:1046A0008105910590F1A50194010E948429461A83
:1046B000570A680A790AD6014D925D926D927C92F2
:1046C0001397F80186A597A5A0A9B1A929013A01D8
:1046D000440C551C661C771C84159505A605B7056A
:1046E00008F02AC116A617A610AA11AAF80182A9D5
:1046F00093A9A4A9B5A984159505A605B70508F041
:1047000024C112AA13AA14AA15AAF80186A597A56E
:10471000A0A9B1A9892B8A2B8B2B09F01FC1EE5BB5
:10472000FF4F8081833009F019C184E08083C80184
:104730000E948C1D0196D801D2964D915D916D918C
:104740007C91D597452B462B472BA1F4F801EE5BC6
:10475000FF4F2081233011F021110CC01082F8018D
:104760003E9684E1DF011D928A95E9F7C8010E9417
:104770008C1D03968230910511F00497E1F580E5D8
:1047800091E00E9452070091320210913302B80169
:10479000625F7F4FCE0101960E94DA16CE0103962A
:1047A0000E940D0AB8016A5E7F4FCE0101960E94F9
:1047B000DA16CE0103960E941B0AB8016E5E7F4F87
:1047C000CE0101960E94DA16CE0103960E94140AC9
:1047D000B801625E7F4FCE0101960E94DA168B818E
:1047E0009C81AD81BE8180932B0590932C05A09375
:1047F0002D05B0932E0587E495E00E9421178C01CA
:104800000C970CF4DCC042E150E068EB74E087E404
:1048100095E00E941A160C970CF4D1C0A8EBB4E0F6
:10482000E6EFFDE080EC94E03D9124913213C7C0A7
:1048300031968A179B07C1F78091C0049091C104FB
:104840008115B0E59B0709F0F7C0023111050CF4A2
:10485000B6C09091C7048091FB049813B0C020911A
:10486000C6048091FC04B0E18B9FC00111243091FB
:10487000FD04832B2817190609F0A1C02091C80454
:104880003091C904025111093227232732272130E0
:10489000E2E03E0710F020E032E02017310708F494
:1048A0008901DD24D394C12C0115110509F462C0DE
:1048B000A8010132110510F040E250E067E374E016
:1048C00087E495E00E941A16181619060CF052C0DB
:1048D000E0913402F09135022D2D3C2D622F6D199F
:1048E00070E068177907ECF5A9012130A2E03A07DA
:1048F00014F040E052E01416150614F041E050E0C8
:10490000695C7B4FDB016C91DA01AA5CBD4F6C9353
:1049100060910101709102016417750750F4509382
:10492000020140930101E0910101F0910201EA5C72
:10493000FD4F2F5F3F4FD2CF821B930BA40BB50BC4
:1049400086A797A7A0ABB1ABD1CE821B930BA40BCC
:10495000B50B82AB93ABA4ABB5ABD7CE90E080E008
:10496000EACEF0933502E0933402081B190BD22EE5
:10497000C32E9ACFE1E0FEE08491EDE3FEE01491D6
:10498000E9E2FEE0049170E060E0002399F081111B
:104990000E948B07E02FF0E0EE0FFF1FE859FF4F5A
:1049A000A591B491EC911E2391E080E009F490E090
:1049B000692F782FB1E06B2783E00E94B40761E490
:1049C00075E0CE0142960E9473148E8D843008F0FB
:1049D0000EC30E9439082B013C0188E5C82E84E0F3
:1049E000D82E10E0CE0142960E94FF0C882309F4D5
:1049F00041C10E9439086419750986099709643F05
:104A000071408105910508F035C1CE0142960E94A2
:104A10004315892B39F3CE0142960E9463168A30E2
:104A200009F428C18D3009F425C11F35D8F61F5F60
:104A3000D6018D936D01D6CF8115904209F0BFCF7D
:104A400000915B0510915C05809157059091580588
:104A5000A0915905B0915A058BA39CA3ADA3BEA309
:104A600083E991E09B8B8A8B1C8A1D8A1E8A1F8A90
:104A700080E591E00E94520744E050E0BE016C5E88
:104A80007F4F8FE090E00E94F00B0115110511F4AB
:104A900006E319E183E991E09A8389838BA19CA1C4
:104AA000ADA1BEA18B839C83AD83BE83A801BE0153
:104AB0006F5F7F4F87E495E00E94230A68E086EFEE
:104AC0009DE00E94FB1360E087E495E00E94A4094A
:104AD00061E287E495E00E94A4098C899D89AE89F2
:104AE000BF898B839C83AD83BE838E010D5F1F4F77
:104AF0006801D8016D918D0187E495E00E94A409B9
:104B00000E151F05B1F766E387E495E00E94A4093E
:104B100069E187E495E00E94A40960E087E495E0FC
:104B20000E94A40962E087E495E00E94A4096091D4
:104B3000FB0487E495E00E94A4096091FC0487E4EB
:104B400095E00E94A40960E087E495E00E94A40932
:104B50006FEF87E495E00E94A40960E087E495E0A8
:104B60000E94A40960ED87E495E00E94A4096FE724
:104B700087E495E00E94A4096FE787E495E00E942E
:104B8000A40962E18EEC90E00E94FB1360E486EAE7
:104B900090E00E94FB1360E482E790E00E94FB1328
:104BA00060E087E495E00E94A40961E087E495E075
:104BB0000E94A40960E887E495E00E94A40983E0CC
:104BC0000E94E51384E00E94E51360E887E495E025
:104BD0000E94A40983E00E94E51384E00E94E5138B
:104BE0006091FC04B0E16B9FC00111246091FD0451
:104BF000682B87E495E00E94A40983E00E94E513F6
:104C000086E00E94E51360E087E495E00E94A40935
:104C100046E050E06FE571E087E495E00E94AB1359
:104C20008C899D89AE89BF898B839C83AD83BE832C
:104C30008601F80161918F0187E495E00E94A40943
:104C4000E016F106B1F761E087E495E00E94A4095F
:104C50008091CA046EE0811101C06CE087E495E0A8
:104C60000E94A4098AE10E94E51387E495E00E946E
:104C70005A0DA5CEE12FF0E0E85AFB4F1082CE018D
:104C800042960E944315892B29F0CE0142960E943C
:104C90006316F5CF6CEA71E088E594E00E940D2B75
:104CA000009709F485C08C01065F1F4F60E270E039
:104CB000C8010E94FB2A009711F0FC01108281E1DB
:104CC000EAEFF4E0DE01119601900D928A95E1F78A
:104CD00067EB71E0C8010E9408298C01009709F474
:104CE00071C06DE370E00E94FB2A009709F435C0A3
:104CF000DC0111962C91222309F42FC0FC011192A2
:104D00006F01CF010E94D828D801EC91E156E5311E
:104D100020F50E2E000CFF0BE057F94D0C94B52931
:104D2000D026AD26AD26CA26AD26AD26DE26AD267A
:104D3000AD26AD26AD26AD26DA26A526AD26AD26B6
:104D4000AD26AD26B426AD26BF2697FD0BC0803814
:104D5000910514F08FE790E08A8367EB71E090E0B3
:104D600080E0B9CF80E0F8CF97FD07C08031910592
:104D700014F08FE090E08B83F0CF80E0FCCF97FDC4
:104D800007C08031910514F08FE090E08C83E5CF6F
:104D900080E0FCCF21E0892B09F420E02D83DDCFDA
:104DA000BE016A5F7F4FC6010E945A0A8111D5CFAA
:104DB00010E01FC0BE01665F7F4FF5CFBE01625F8E
:104DC0007F4FF1CF8A818F3709F019C18B818F30E6
:104DD00009F015C18C818F3009F011C160E090E0BD
:104DE00080E00E9444290E94870B81E08093570451
:104DF00011E063E079E0CE0142960E947013112326
:104E0000B1F06EEE78E0CE0142960E947013809170
:104E10005704882331F060EA78E0CE0142960E9480
:104E2000701369E978E0CE0142960E9470136BE13D
:104E300078E0CE0142960E9470136091FB04CE018F
:104E400042960E94B20A64EC77E0CE0142960E943C
:104E500070136091FC04CE0142960E94B20A6CE687
:104E600077E0CE0142960E9470136091FD04CE015E
:104E700042960E94B20A61E876E0CE0142960E9414
:104E800070138091FE04882331F067E776E0CE014D
:104E900042960E94701365E376E0CE0142960E942E
:104EA00070138091FE04811106C06BE276E0CE01A2
:104EB00042960E94701365EE75E0CE0142960E9404
:104EC00070136FEF74E0CE0142960E94490B65EBC0
:104ED00075E0CE0142960E94701363E075E0CE014A
:104EE00042960E94490B69E875E0CE0142960E9405
:104EF000701367E075E0CE0142960E94490B6BE6A5
:104F000075E0CE0142960E94701366E575E0CE0111
:104F100042960E94701369E475E0CE0142960E94A9
:104F2000701383E991E09A8389831B821C821D821E
:104F30001E8280E591E00E94520744E050E0BE01ED
:104F40006D5F7F4F8FE090E00E94F00BBE016E5EC0
:104F50007F4FCE0101960E94070B8091CA0465EE37
:104F600070E0811102C069ED70E0CE0142960E94AE
:104F700070136FE075E0CE0142960E94701360914D
:104F8000FB04CE0142960E94B20A63E075E0CE01B6
:104F900042960E9470136091FC04CE0142960E94DA
:104FA000B20A66EF74E0CE0142960E9470136091DF
:104FB000FD04CE0142960E94B20A6BEC74E0CE0171
:104FC00042960E9470136FEE70E0CE0142960E94EE
:104FD0007013CE0142960E94E01265E070E080E01E
:104FE00090E00E940708CE0142960E94210D80E0C9
:104FF00090E0892B09F42FCB0E9400002CCB9D81DF
:105000008091FE0498132EC044E050E06FEF74E0EE
:10501000CE0106960E94E72A892B21F544E050E054
:1050200063E075E0CE010A960E94E72A892BD1F44D
:1050300044E050E067E075E0CE010E960E94E72A5A
:1050400021E0892B09F420E02093570481E1FE013F
:105050003196AAEFB4E001900D928A95E1F70E9493
:10506000660BC6CE21E0F0CF8F929F92AF92BF9297
:10507000CF92DF92EF92FF92CF93DF93EC016881A2
:1050800079818A819B81611571058105910521F4E2
:1050900064E279ED8BE597E02DE133EF41E050E0FC
:1050A0000E94522949015A019B01AC01A7EAB1E4CF
:1050B0000E9471296B017C01ACEEB4EFA501940153
:1050C0000E947F29C60ED71EE81EF91EF7FE06C0F5
:1050D00081E0C81AD108E10880E8F80AC882D982BC
:1050E000EA82FB82C701B6019F77DF91CF91FF90E3
:1050F000EF90DF90CF90BF90AF909F908F900895EA
:105100008F929F92AF92BF92CF92DF92EF92FF92D7
:10511000609105017091060180910701909108014D
:10512000611571058105910521F464E279ED8BE546
:1051300097E02DE133EF41E050E00E945229490110
:105140005A019B01AC01A7EAB1E40E9471296B01ED
:105150007C01ACEEB4EFA50194010E947F29C60E3C
:10516000D71EE81EF91EF7FE06C081E0C81AD10856
:10517000E10880E8F80AC0920501D0920601E092A9
:105180000701F0920801C701B6019F77FF90EF90E9
:10519000DF90CF90BF90AF909F908F9008956093D5
:1051A000050170930601809307019093080108950B
:1051B000FC0188279927E89421912032E9F32930CE
:1051C00010F02E30C8F32B3241F02D3239F46894B0
:1051D00004C00E943429820F911D219120532A304E
:1051E000C0F31EF4909581959F4F0895FB01DC015B
:1051F00002C005900D9241505040D8F70895FC012F
:1052000005900020E9F7809590958E0F9F1F0895D7
:1052100048E655E00E940D290895FA01A191B08158
:10522000009719F41097E1F0CD01DC01CD010D904C
:10523000002011F4C00113C0FB012191222319F0B9
:105240002015D9F7F3CFFB012191201519F41E92F7
:10525000119606C02223C1F70D900020A1F7D001BE
:10526000FA01A193B08308957AE0979F902D879FCC
:10527000802D910D11240895F999FECF92BD81BD25
:10528000F89A992780B50895262FF999FECF1FBA6D
:1052900092BD81BD20BD0FB6F894FA9AF99A0FBE5F
:1052A00001960895052E97FB1EF400940E9469292B
:1052B00057FD07D00E94842907FC03D04EF40C94BC
:1052C000692950954095309521953F4F4F4F5F4F3D
:1052D000089590958095709561957F4F8F4F9F4F62
:1052E00008950E94A629A59F900DB49F900DA49F9C
:1052F000800D911D11240895B7FF0C9471290E940F
:105300007129821B930B0895A1E21A2EAA1BBB1BC5
:10531000FD010DC0AA1FBB1FEE1FFF1FA217B30781
:10532000E407F50720F0A21BB30BE40BF50B661F97
:10533000771F881F991F1A9469F76095709580955B
:1053400090959B01AC01BD01CF010895A29FB001D2
:10535000B39FC001A39F700D811D1124911DB29FA9
:10536000700D811D1124911D0895EE0FFF1F0590F2
:10537000F491E02D099469279627692778278727D4
:10538000782708950F931F93CF93DF938230910571
:1053900010F482E090E0E0916C05F0916D0530E052
:1053A00020E0B0E0A0E0309799F42115310509F430
:1053B0004AC0281B390B24303105D8F58A819B81DE
:1053C0006115710589F1FB0193838283FE0111C090
:1053D000408151810281138148175907E0F0481735
:1053E000590799F4109761F012960C93129713963F
:1053F0001C933296CF01DF91CF911F910F910895A9
:1054000000936C0510936D05F4CF2115310551F013
:105410004217530738F0A901DB019A01BD01DF01F2
:10542000F801C1CFEF01F9CF90936D0580936C0522
:10543000CDCFFE01E20FF31F8193919322503109EA
:1054400039832883D7CF20916A0530916B05232BB0
:1054500041F420910B0130910C0130936B052093A6
:105460006A052091090130910A012115310541F4A5
:105470002DB73EB740910D0150910E01241B350B05
:10548000E0916A05F0916B05E217F307A0F42E1B7B
:105490003F0B2817390778F0AC014E5F5F4F241798
:1054A000350748F04E0F5F1F50936B0540936A0518
:1054B000819391939FCFF0E0E0E09CCFCF93DF9377
:1054C0000097E9F0FC01329713821282A0916C05DB
:1054D000B0916D05ED0130E020E01097A1F420813E
:1054E0003181820F931F20916A0530916B05281737
:1054F000390709F061C0F0936B05E0936A05DF910D
:10550000CF910895EA01CE17DF07E8F54A815B8164
:105510009E0141155105B1F7E901FB83EA834991E9
:105520005991C40FD51FEC17FD0761F4808191815B
:105530000296840F951FE901998388838281938164
:105540009B838A83F0E0E0E012968D919C91139703
:105550000097B9F52D913C911197CD010296820FDC
:10556000931F20916A0530916B052817390739F68A
:10557000309751F510926D0510926C05B0936B0544
:10558000A0936A05BCCFD383C28340815181840F2D
:10559000951FC817D90761F44E5F5F4F88819981C5
:1055A000480F591F518340838A819B819383828353
:1055B0002115310509F0B0CFF0936D05E0936C052E
:1055C0009ECFFD01DC01C0CF13821282D7CFFB0139
:1055D000DC0104C08D910190801921F441505040AC
:1055E000C8F7881B990B0895DC0101C06D934150E9
:1055F0005040E0F70895FC018191861721F088233F
:10560000D9F7992708953197CF010895FB01DC015F
:1056100001900D920020E1F70895FB01519155236F
:10562000A9F0BF01DC014D9145174111E1F759F493
:10563000CD010190002049F04D9140154111C9F371
:10564000FB014111EFCF81E090E001970895F894BC
:02565000FFCF8A
:105652000A200000C00100000000006E0580000268
:1056620000000A0200000101005E000000000000CC
:105672000000000000000000000000000000000028
:1056820000DB095513F512E012431563164C0F3A6D
:1056920011521A7D16210DFF0C040A0C0A7C1C0102
:1056A2000AFF09D009F509B016E6168616F10902B5
:1056B200534F4E4F5200000000A409AB13AF0A8AA9
:1056C20007860739163D0FBC115210C00C230ADFA2
:1056D200195A0D21171A16A70A970A930A8F0A0058
:1056E200000000070B00000000BA09F214AF0AAE76
:1056F2000AE111DB0C57495A6E6574004745542084
:0A5702002F736176653F002600005A
:00000001FF
